{
    "contractName": "PollingStation",
    "abi": [
        {
            "anonymous": false,
            "inputs": [
                {
                    "indexed": true,
                    "internalType": "address",
                    "name": "claimer",
                    "type": "address"
                }
            ],
            "name": "ClaimerAdded",
            "type": "event"
        },
        {
            "anonymous": false,
            "inputs": [
                {
                    "indexed": true,
                    "internalType": "address",
                    "name": "claimer",
                    "type": "address"
                }
            ],
            "name": "ClaimerRemoved",
            "type": "event"
        },
        {
            "anonymous": false,
            "inputs": [
                {
                    "indexed": false,
                    "internalType": "uint256",
                    "name": "oldExpiration",
                    "type": "uint256"
                },
                {
                    "indexed": false,
                    "internalType": "uint256",
                    "name": "newExpiration",
                    "type": "uint256"
                }
            ],
            "name": "ExpirationUpdated",
            "type": "event"
        },
        {
            "anonymous": false,
            "inputs": [
                {
                    "indexed": true,
                    "internalType": "address",
                    "name": "previousOwner",
                    "type": "address"
                },
                {
                    "indexed": true,
                    "internalType": "address",
                    "name": "newOwner",
                    "type": "address"
                }
            ],
            "name": "OwnershipTransferred",
            "type": "event"
        },
        {
            "anonymous": false,
            "inputs": [
                {
                    "indexed": true,
                    "internalType": "address",
                    "name": "creator",
                    "type": "address"
                },
                {
                    "indexed": true,
                    "internalType": "uint256",
                    "name": "pollId",
                    "type": "uint256"
                },
                {
                    "indexed": true,
                    "internalType": "address",
                    "name": "pollAddr",
                    "type": "address"
                },
                {
                    "indexed": false,
                    "internalType": "string",
                    "name": "name",
                    "type": "string"
                }
            ],
            "name": "PollCreated",
            "type": "event"
        },
        {
            "constant": false,
            "inputs": [
                {
                    "internalType": "address",
                    "name": "_claimer",
                    "type": "address"
                }
            ],
            "name": "addClaimer",
            "outputs": [],
            "payable": false,
            "stateMutability": "nonpayable",
            "type": "function"
        },
        {
            "constant": false,
            "inputs": [],
            "name": "claim",
            "outputs": [],
            "payable": false,
            "stateMutability": "nonpayable",
            "type": "function"
        },
        {
            "constant": false,
            "inputs": [
                {
                    "internalType": "uint256",
                    "name": "pollId",
                    "type": "uint256"
                }
            ],
            "name": "closePoll",
            "outputs": [],
            "payable": false,
            "stateMutability": "nonpayable",
            "type": "function"
        },
        {
            "constant": false,
            "inputs": [
                {
                    "internalType": "string",
                    "name": "_name",
                    "type": "string"
                },
                {
                    "internalType": "bytes32[]",
                    "name": "_options",
                    "type": "bytes32[]"
                }
            ],
            "name": "createPoll",
            "outputs": [
                {
                    "internalType": "uint256",
                    "name": "",
                    "type": "uint256"
                },
                {
                    "internalType": "address",
                    "name": "",
                    "type": "address"
                }
            ],
            "payable": false,
            "stateMutability": "nonpayable",
            "type": "function"
        },
        {
            "constant": true,
            "inputs": [],
            "name": "debugnow",
            "outputs": [
                {
                    "internalType": "uint256",
                    "name": "",
                    "type": "uint256"
                }
            ],
            "payable": false,
            "stateMutability": "view",
            "type": "function"
        },
        {
            "constant": true,
            "inputs": [],
            "name": "getBalance",
            "outputs": [
                {
                    "internalType": "uint256",
                    "name": "",
                    "type": "uint256"
                }
            ],
            "payable": false,
            "stateMutability": "view",
            "type": "function"
        },
        {
            "constant": true,
            "inputs": [],
            "name": "getExpirationTime",
            "outputs": [
                {
                    "internalType": "uint256",
                    "name": "",
                    "type": "uint256"
                }
            ],
            "payable": false,
            "stateMutability": "view",
            "type": "function"
        },
        {
            "constant": true,
            "inputs": [],
            "name": "getMyPolls",
            "outputs": [
                {
                    "internalType": "uint256[]",
                    "name": "",
                    "type": "uint256[]"
                }
            ],
            "payable": false,
            "stateMutability": "view",
            "type": "function"
        },
        {
            "constant": true,
            "inputs": [],
            "name": "isClaimable",
            "outputs": [
                {
                    "internalType": "bool",
                    "name": "",
                    "type": "bool"
                },
                {
                    "internalType": "bool",
                    "name": "",
                    "type": "bool"
                },
                {
                    "internalType": "bool",
                    "name": "",
                    "type": "bool"
                }
            ],
            "payable": false,
            "stateMutability": "view",
            "type": "function"
        },
        {
            "constant": true,
            "inputs": [
                {
                    "internalType": "address",
                    "name": "_claimer",
                    "type": "address"
                }
            ],
            "name": "isClaimer",
            "outputs": [
                {
                    "internalType": "bool",
                    "name": "",
                    "type": "bool"
                }
            ],
            "payable": false,
            "stateMutability": "view",
            "type": "function"
        },
        {
            "constant": true,
            "inputs": [],
            "name": "isOwner",
            "outputs": [
                {
                    "internalType": "bool",
                    "name": "",
                    "type": "bool"
                }
            ],
            "payable": false,
            "stateMutability": "view",
            "type": "function"
        },
        {
            "constant": true,
            "inputs": [],
            "name": "owner",
            "outputs": [
                {
                    "internalType": "address",
                    "name": "",
                    "type": "address"
                }
            ],
            "payable": false,
            "stateMutability": "view",
            "type": "function"
        },
        {
            "constant": true,
            "inputs": [
                {
                    "internalType": "uint256",
                    "name": "",
                    "type": "uint256"
                }
            ],
            "name": "polls",
            "outputs": [
                {
                    "internalType": "contract Poll",
                    "name": "",
                    "type": "address"
                }
            ],
            "payable": false,
            "stateMutability": "view",
            "type": "function"
        },
        {
            "constant": true,
            "inputs": [],
            "name": "read",
            "outputs": [
                {
                    "internalType": "address",
                    "name": "",
                    "type": "address"
                },
                {
                    "internalType": "uint256",
                    "name": "",
                    "type": "uint256"
                },
                {
                    "internalType": "bool",
                    "name": "",
                    "type": "bool"
                }
            ],
            "payable": false,
            "stateMutability": "view",
            "type": "function"
        },
        {
            "constant": false,
            "inputs": [
                {
                    "internalType": "address",
                    "name": "_claimer",
                    "type": "address"
                }
            ],
            "name": "removeClaimer",
            "outputs": [],
            "payable": false,
            "stateMutability": "nonpayable",
            "type": "function"
        },
        {
            "constant": false,
            "inputs": [],
            "name": "renounceOwnership",
            "outputs": [],
            "payable": false,
            "stateMutability": "nonpayable",
            "type": "function"
        },
        {
            "constant": false,
            "inputs": [
                {
                    "internalType": "uint256",
                    "name": "_expirationTime",
                    "type": "uint256"
                }
            ],
            "name": "setExpirationTime",
            "outputs": [],
            "payable": false,
            "stateMutability": "nonpayable",
            "type": "function"
        },
        {
            "constant": false,
            "inputs": [
                {
                    "internalType": "address",
                    "name": "newOwner",
                    "type": "address"
                }
            ],
            "name": "transferOwnership",
            "outputs": [],
            "payable": false,
            "stateMutability": "nonpayable",
            "type": "function"
        }
    ],
    "bytecode": "60806040819052600080546001600160a01b03191633178082556001600160a01b0316917f8be0079c531659141344cd1fd0a4f28419497f9722a3daafe3b4186f6b6457e0908290a3611fc0806100576000396000f3fe60806040523480156200001157600080fd5b50600436106200012f5760003560e01c80638da5cb5b11620000b1578063c0cc365d116200007b578063c0cc365d146200044c578063e1aa071c146200046c578063e23a845a1462000476578063f0490b8a1462000480578063f2fde38b14620004a9576200012f565b80638da5cb5b14620003dc5780638f32d59b14620004025780639534e637146200040c578063ac2f0074146200042c576200012f565b80632ea6640111620000ff5780632ea66401146200033d5780634e71d92d146200036857806357de26a41462000372578063715018a614620003a657806374478bb314620003b0576200012f565b8062f63722146200013457806310a8aecd146200028857806312065fe014620002c5578063170b5add14620002e1575b600080fd5b62000267600480360360408110156200014c57600080fd5b8101906020810181356401000000008111156200016857600080fd5b8201836020820111156200017b57600080fd5b803590602001918460018302840111640100000000831117156200019e57600080fd5b91908080601f0160208091040260200160405190810160405280939291908181526020018383808284376000920191909152509295949360208101935035915050640100000000811115620001f257600080fd5b8201836020820111156200020557600080fd5b803590602001918460208302840111640100000000831117156200022857600080fd5b919080806020026020016040519081016040528093929190818152602001838360200280828437600092019190915250929550620004d2945050505050565b604080519283526001600160a01b0390911660208301528051918290030190f35b620002b160048036036020811015620002a057600080fd5b50356001600160a01b031662000736565b604080519115158252519081900360200190f35b620002cf62000754565b60408051918252519081900360200190f35b620002eb6200076f565b60408051602080825283518183015283519192839290830191858101910280838360005b83811015620003295781810151838201526020016200030f565b505050509050019250505060405180910390f35b62000366600480360360208110156200035557600080fd5b50356001600160a01b0316620007d2565b005b620003666200085c565b6200037c620008a2565b604080516001600160a01b0390941684526020840192909252151582820152519081900360600190f35b62000366620008ca565b620003ba62000928565b6040805193151584529115156020840152151582820152519081900360600190f35b620003e662000953565b604080516001600160a01b039092168252519081900360200190f35b620002b162000962565b62000366600480360360208110156200042457600080fd5b503562000973565b620003e6600480360360208110156200044457600080fd5b503562000a92565b62000366600480360360208110156200046457600080fd5b503562000aba565b620002cf62000b15565b620002cf62000b19565b62000366600480360360208110156200049857600080fd5b50356001600160a01b031662000b1f565b6200036660048036036020811015620004c157600080fd5b50356001600160a01b031662000ba2565b60008060008484604051620004e79062000c33565b604080825283519082015282518190602080830191606084019187019080838360005b83811015620005245781810151838201526020016200050a565b50505050905090810190601f168015620005525780820380516001836020036101000a031916815260200191505b508381038252845181528451602091820191808701910280838360005b83811015620005895781810151838201526020016200056f565b50505050905001945050505050604051809103906000f080158015620005b3573d6000803e3d6000fd5b50600380546001808201928390557fc2575a0e9e593c00f959f8c92f12db2869c3395a3b0502d05e2516446f71f85b90910180546001600160a01b0319166001600160a01b03851690811790915533600081815260046020908152604080832080549687018155835281832090950186905584518181528c51818301528c5197985095969395879593947f7ea57775055a1d04b0e99841ebddb0a6bf8ca4d1b0474329fdd201c5d3ac6c57948e949293849391840192908601918190849084905b838110156200068e57818101518382015260200162000674565b50505050905090810190601f168015620006bc5780820380516001836020036101000a031916815260200191505b509250505060405180910390a46040805163f2fde38b60e01b815233600482015290516001600160a01b0384169163f2fde38b91602480830192600092919082900301818387803b1580156200071157600080fd5b505af115801562000726573d6000803e3d6000fd5b5092989397509295505050505050565b6001600160a01b031660009081526001602052604090205460ff1690565b60006200076062000962565b6200076a57600080fd5b504790565b33600090815260046020908152604091829020805483518184028101840190945280845260609392830182828015620007c857602002820191906000526020600020905b815481526020019060010190808311620007b3575b5050505050905090565b620007dc62000962565b620007e657600080fd5b6001600160a01b03811660009081526001602052604090205460ff16156200080d57600080fd5b6001600160a01b0381166000818152600160208190526040808320805460ff1916909217909155517fff9a8f4e0a39755c20c899b46171e470382709479fce2aa1e388f95edfe017399190a250565b620008673362000736565b6200087157600080fd5b60025442116200088057600080fd5b6200088a62000962565b156200089557600080fd5b620008a03362000bc4565b565b6000806000620008b162000953565b600254620008bf3362000736565b925092509250909192565b620008d462000962565b620008de57600080fd5b600080546040516001600160a01b03909116907f8be0079c531659141344cd1fd0a4f28419497f9722a3daafe3b4186f6b6457e0908390a3600080546001600160a01b0319169055565b6000806000620009383362000736565b60025442116200094762000962565b15925092509250909192565b6000546001600160a01b031690565b6000546001600160a01b0316331490565b80336001600160a01b0316600382815481106200098c57fe5b6000918252602091829020015460408051638da5cb5b60e01b815290516001600160a01b0390921692638da5cb5b92600480840193829003018186803b158015620009d657600080fd5b505afa158015620009eb573d6000803e3d6000fd5b505050506040513d602081101562000a0257600080fd5b50516001600160a01b03161462000a1857600080fd5b60006003838154811062000a2857fe5b60009182526020822001546040805163ed8c2aed60e01b815290516001600160a01b039092169350839263ed8c2aed9260048084019382900301818387803b15801562000a7457600080fd5b505af115801562000a89573d6000803e3d6000fd5b50505050505050565b6003818154811062000aa057fe5b6000918252602090912001546001600160a01b0316905081565b62000ac462000962565b62000ace57600080fd5b6002805490829055604080518281526020810184905281517f48bd2ad49200e0ca36b95736b1b720e3a4db1eb87715905a0242d11e90fcf176929181900390910190a15050565b4290565b60025490565b62000b2962000962565b62000b3357600080fd5b6001600160a01b03811660009081526001602052604090205460ff1662000b5957600080fd5b6001600160a01b038116600081815260016020526040808220805460ff19169055517f30acaa541089592567cd4ce36437c68778a43e66dc1a9e7031e4496faf4593259190a250565b62000bac62000962565b62000bb657600080fd5b62000bc18162000bc4565b50565b6001600160a01b03811662000bd857600080fd5b600080546040516001600160a01b03808516939216917f8be0079c531659141344cd1fd0a4f28419497f9722a3daafe3b4186f6b6457e091a3600080546001600160a01b0319166001600160a01b0392909216919091179055565b61134a8062000c428339019056fe60806040523480156200001157600080fd5b506040516200134a3803806200134a833981810160405260408110156200003757600080fd5b81019080805160405193929190846401000000008211156200005857600080fd5b9083019060208201858111156200006e57600080fd5b82516401000000008111828201881017156200008957600080fd5b82525081516020918201929091019080838360005b83811015620000b85781810151838201526020016200009e565b50505050905090810190601f168015620000e65780820380516001836020036101000a031916815260200191505b50604052602001805160405193929190846401000000008211156200010a57600080fd5b9083019060208201858111156200012057600080fd5b82518660208202830111640100000000821117156200013e57600080fd5b82525081516020918201928201910280838360005b838110156200016d57818101518382015260200162000153565b50505050919091016040819052600080546001600160a01b03191633178082556001600160a01b0316955093507f8be0079c531659141344cd1fd0a4f28419497f9722a3daafe3b4186f6b6457e09250839150a36000815111620001d057600080fd5b8151620001e590600390602085019062000263565b5060005b81518110156200025a5760048282815181106200020257fe5b6020908102919091018101518254600181018455600093845291832090910155825160059082908590859081106200023657fe5b602090810291909101810151825281019190915260400160002055600101620001e9565b50505062000308565b828054600181600116156101000203166002900490600052602060002090601f016020900481019282601f10620002a657805160ff1916838001178555620002d6565b82800160010185558215620002d6579182015b82811115620002d6578251825591602001919060010190620002b9565b50620002e4929150620002e8565b5090565b6200030591905b80821115620002e45760008155600101620002ef565b90565b61103280620003186000396000f3fe60806040526004361061014b5760003560e01c80638da5cb5b116100b6578063e1aa071c1161006f578063e1aa071c146104f3578063e23a845a14610508578063e5ed5b1e1461051d578063ed8c2aed14610558578063f0490b8a1461056d578063f2fde38b146105a05761014b565b80638da5cb5b146103e35780638f32d59b14610414578063b647990a14610429578063c0cc365d1461048e578063cc2ee196146104b8578063df1edbe8146104cd5761014b565b8063597e1fb511610108578063597e1fb5146102e6578063709c9276146102fb578063715018a61461033457806374478bb31461034957806381d0e37b146103805780638d8afd3d146103aa5761014b565b806306fdde031461015057806310a8aecd146101da5780632ea6640114610221578063409e2205146102565780634e71d92d1461029257806357de26a4146102a7575b600080fd5b34801561015c57600080fd5b506101656105d3565b6040805160208082528351818301528351919283929083019185019080838360005b8381101561019f578181015183820152602001610187565b50505050905090810190601f1680156101cc5780820380516001836020036101000a031916815260200191505b509250505060405180910390f35b3480156101e657600080fd5b5061020d600480360360208110156101fd57600080fd5b50356001600160a01b0316610661565b604080519115158252519081900360200190f35b34801561022d57600080fd5b506102546004803603602081101561024457600080fd5b50356001600160a01b031661067f565b005b34801561026257600080fd5b506102806004803603602081101561027957600080fd5b5035610705565b60408051918252519081900360200190f35b34801561029e57600080fd5b50610254610723565b3480156102b357600080fd5b506102bc610760565b604080516001600160a01b0390941684526020840192909252151582820152519081900360600190f35b3480156102f257600080fd5b5061020d610784565b34801561030757600080fd5b506102546004803603604081101561031e57600080fd5b506001600160a01b03813516906020013561078d565b34801561034057600080fd5b506102546108ee565b34801561035557600080fd5b5061035e610949565b6040805193151584529115156020840152151582820152519081900360600190f35b34801561038c57600080fd5b50610280600480360360208110156103a357600080fd5b5035610970565b3480156103b657600080fd5b50610254600480360360408110156103cd57600080fd5b50803590602001356001600160a01b0316610982565b3480156103ef57600080fd5b506103f8610a92565b604080516001600160a01b039092168252519081900360200190f35b34801561042057600080fd5b5061020d610aa1565b34801561043557600080fd5b5061043e610ab2565b60408051602080825283518183015283519192839290830191858101910280838360005b8381101561047a578181015183820152602001610462565b505050509050019250505060405180910390f35b34801561049a57600080fd5b50610254600480360360208110156104b157600080fd5b5035610b12565b3480156104c457600080fd5b5061043e610b6a565b610254600480360360208110156104e357600080fd5b50356001600160a01b0316610bc2565b3480156104ff57600080fd5b50610280610d77565b34801561051457600080fd5b50610280610d7b565b34801561052957600080fd5b506102546004803603604081101561054057600080fd5b506001600160a01b0381358116916020013516610d81565b34801561056457600080fd5b50610254610e90565b34801561057957600080fd5b506102546004803603602081101561059057600080fd5b50356001600160a01b0316610ef3565b3480156105ac57600080fd5b50610254600480360360208110156105c357600080fd5b50356001600160a01b0316610f72565b6003805460408051602060026001851615610100026000190190941693909304601f810184900484028201840190925281815292918301828280156106595780601f1061062e57610100808354040283529160200191610659565b820191906000526020600020905b81548152906001019060200180831161063c57829003601f168201915b505050505081565b6001600160a01b031660009081526001602052604090205460ff1690565b610687610aa1565b61069057600080fd5b6001600160a01b03811660009081526001602052604090205460ff16156106b657600080fd5b6001600160a01b0381166000818152600160208190526040808320805460ff1916909217909155517fff9a8f4e0a39755c20c899b46171e470382709479fce2aa1e388f95edfe017399190a250565b6004818154811061071257fe5b600091825260209091200154905081565b61072c33610661565b61073557600080fd5b600254421161074357600080fd5b61074b610aa1565b1561075557600080fd5b61075e33610f8f565b565b600080600061076d610a92565b60025461077933610661565b925092509250909192565b60075460ff1681565b6001600160a01b038216600090815260066020526040902054829060ff16156107b557600080fd5b6001600160a01b038084166000908152600660205260409020600201548491161580156107ea57506001600160a01b03811633145b8061081157506001600160a01b038181166000908152600660205260409020600201541633145b61081a57600080fd5b60075460ff161561082a57600080fd5b6000831161087f576040805162461bcd60e51b815260206004820152601b60248201527f5072696365206d75737420626520686967686572207468616e20300000000000604482015290519081900360640190fd5b6001600160a01b03841660008181526006602090815260409182902060018101879055805461ff0019166101001781558251938452908301869052815190927f68a2e03410e90f36e390d071d135e4acd2e4e0279eb70c9aa5d62d4115b7223892908290030190a15050505050565b6108f6610aa1565b6108ff57600080fd5b600080546040516001600160a01b03909116907f8be0079c531659141344cd1fd0a4f28419497f9722a3daafe3b4186f6b6457e0908390a3600080546001600160a01b0319169055565b600080600061095733610661565b6002544211610964610aa1565b15925092509250909192565b60056020526000908152604090205481565b6001600160a01b038116600090815260066020526040902054819060ff16156109aa57600080fd5b6001600160a01b038083166000908152600660205260409020600201548391161580156109df57506001600160a01b03811633145b80610a0657506001600160a01b038181166000908152600660205260409020600201541633145b610a0f57600080fd5b60075460ff1615610a1f57600080fd5b6000848152600560209081526040808320805460019081019091556001600160a01b03871684526006835292819020805460ff19169093179092558151868152915133927fc0f8946b28ac7993b4dd24b05482b70709d3394c92247236929d86a50b24d0ab92908290030190a250505050565b6000546001600160a01b031690565b6000546001600160a01b0316331490565b60608060005b600454811015610b0c576005600060048381548110610ad357fe5b9060005260206000200154815260200190815260200160002054828281518110610af957fe5b6020908102919091010152600101610ab8565b50905090565b610b1a610aa1565b610b2357600080fd5b6002805490829055604080518281526020810184905281517f48bd2ad49200e0ca36b95736b1b720e3a4db1eb87715905a0242d11e90fcf176929181900390910190a15050565b60606004805480602002602001604051908101604052809291908181526020018280548015610bb857602002820191906000526020600020905b815481526020019060010190808311610ba4575b5050505050905090565b6001600160a01b038116600090815260066020526040902054819060ff1615610bea57600080fd5b6001600160a01b0382166000908152600660205260409020548290610100900460ff16610c1657600080fd5b60075460ff1615610c2657600080fd5b6001600160a01b03831660009081526006602052604090206001810154341015610c97576040805162461bcd60e51b815260206004820152601c60248201527f4e6f7420656e6f7567682066756e6473207472616e7366657272656400000000604482015290519081900360640190fd5b600181015460405134829003916001600160a01b0387169181156108fc0291906000818181858888f19350505050158015610cd6573d6000803e3d6000fd5b508015610d0c57604051339082156108fc029083906000818181858888f19350505050158015610d0a573d6000803e3d6000fd5b505b815461ff00191682556002820180546001600160a01b03191633908117909155604080516001600160a01b0388168152602081019290925280517f3bc4f409beaf4fdda6a2d537717b5131aecea79aecfdd3d885488ddaa5a14c329281900390910190a15050505050565b4290565b60025490565b6001600160a01b038216600090815260066020526040902054829060ff1615610da957600080fd5b6001600160a01b03808416600090815260066020526040902060020154849116158015610dde57506001600160a01b03811633145b80610e0557506001600160a01b038181166000908152600660205260409020600201541633145b610e0e57600080fd5b60075460ff1615610e1e57600080fd5b6001600160a01b0384811660008181526006602090815260409182902060020180546001600160a01b0319169488169485179055815192835282019290925281517f3bc4f409beaf4fdda6a2d537717b5131aecea79aecfdd3d885488ddaa5a14c32929181900390910190a150505050565b60075460ff1615610ea057600080fd5b610ea8610aa1565b610eb157600080fd5b6007805460ff191660011790556040805130815290517f231ba46a9796cfff3206eb206f870c5e4f68248af093e30cf9e3dd48857a6e669181900360200190a1565b610efb610aa1565b610f0457600080fd5b6001600160a01b03811660009081526001602052604090205460ff16610f2957600080fd5b6001600160a01b038116600081815260016020526040808220805460ff19169055517f30acaa541089592567cd4ce36437c68778a43e66dc1a9e7031e4496faf4593259190a250565b610f7a610aa1565b610f8357600080fd5b610f8c81610f8f565b50565b6001600160a01b038116610fa257600080fd5b600080546040516001600160a01b03808516939216917f8be0079c531659141344cd1fd0a4f28419497f9722a3daafe3b4186f6b6457e091a3600080546001600160a01b0319166001600160a01b039290921691909117905556fea265627a7a723158204c2216179d772d67ca6149a9e61e953f1fdc28d13c7ab87e572cabf13b4925fa64736f6c63430005100032a265627a7a72315820316562769649c1cbec5b922df12d7fb5f1b084f079870535392624342ebf617b64736f6c63430005100032",
    "sourcePath": "c:/Users/Guilherme Mussi/git/solidity-voting/contracts/PollingStation.sol",
    "compiler": {
        "name": "solc",
        "version": "0.5.16+commit.9c3226ce"
    },
    "functionHashes": {
        "addClaimer(address)": "2ea66401",
        "claim()": "4e71d92d",
        "closePoll(uint256)": "9534e637",
        "createPoll(string,bytes32[])": "00f63722",
        "debugnow()": "e1aa071c",
        "getBalance()": "12065fe0",
        "getExpirationTime()": "e23a845a",
        "getMyPolls()": "170b5add",
        "isClaimable()": "74478bb3",
        "isClaimer(address)": "10a8aecd",
        "isOwner()": "8f32d59b",
        "owner()": "8da5cb5b",
        "polls(uint256)": "ac2f0074",
        "read()": "57de26a4",
        "removeClaimer(address)": "f0490b8a",
        "renounceOwnership()": "715018a6",
        "setExpirationTime(uint256)": "c0cc365d",
        "transferOwnership(address)": "f2fde38b"
    },
    "gasEstimates": {
        "creation": {
            "codeDepositCost": "1625600",
            "executionCost": "24054",
            "totalCost": "1649654"
        },
        "external": {
            "addClaimer(address)": "24072",
            "claim()": "26101",
            "closePoll(uint256)": "infinite",
            "createPoll(string,bytes32[])": "infinite",
            "debugnow()": "241",
            "getBalance()": "1140",
            "getExpirationTime()": "1064",
            "getMyPolls()": "infinite",
            "isClaimable()": "2973",
            "isClaimer(address)": "1200",
            "isOwner()": "1072",
            "owner()": "1060",
            "polls(uint256)": "2059",
            "read()": "2931",
            "removeClaimer(address)": "24116",
            "renounceOwnership()": "24281",
            "setExpirationTime(uint256)": "23237",
            "transferOwnership(address)": "24468"
        }
    }
}