{
    "contractName": "PollingStation",
    "abi": [
        {
            "anonymous": false,
            "inputs": [
                {
                    "indexed": true,
                    "internalType": "address",
                    "name": "claimer",
                    "type": "address"
                }
            ],
            "name": "ClaimerAdded",
            "type": "event"
        },
        {
            "anonymous": false,
            "inputs": [
                {
                    "indexed": true,
                    "internalType": "address",
                    "name": "claimer",
                    "type": "address"
                }
            ],
            "name": "ClaimerRemoved",
            "type": "event"
        },
        {
            "anonymous": false,
            "inputs": [
                {
                    "indexed": false,
                    "internalType": "uint256",
                    "name": "oldExpiration",
                    "type": "uint256"
                },
                {
                    "indexed": false,
                    "internalType": "uint256",
                    "name": "newExpiration",
                    "type": "uint256"
                }
            ],
            "name": "ExpirationUpdated",
            "type": "event"
        },
        {
            "anonymous": false,
            "inputs": [
                {
                    "indexed": true,
                    "internalType": "address",
                    "name": "previousOwner",
                    "type": "address"
                },
                {
                    "indexed": true,
                    "internalType": "address",
                    "name": "newOwner",
                    "type": "address"
                }
            ],
            "name": "OwnershipTransferred",
            "type": "event"
        },
        {
            "anonymous": false,
            "inputs": [
                {
                    "indexed": true,
                    "internalType": "address",
                    "name": "pollAddr",
                    "type": "address"
                }
            ],
            "name": "PollClosed",
            "type": "event"
        },
        {
            "anonymous": false,
            "inputs": [
                {
                    "indexed": true,
                    "internalType": "address",
                    "name": "creator",
                    "type": "address"
                },
                {
                    "indexed": true,
                    "internalType": "uint256",
                    "name": "pollId",
                    "type": "uint256"
                },
                {
                    "indexed": true,
                    "internalType": "address",
                    "name": "pollAddr",
                    "type": "address"
                },
                {
                    "indexed": false,
                    "internalType": "string",
                    "name": "name",
                    "type": "string"
                }
            ],
            "name": "PollCreated",
            "type": "event"
        },
        {
            "inputs": [
                {
                    "internalType": "address",
                    "name": "_claimer",
                    "type": "address"
                }
            ],
            "name": "addClaimer",
            "outputs": [],
            "stateMutability": "nonpayable",
            "type": "function"
        },
        {
            "inputs": [],
            "name": "claim",
            "outputs": [],
            "stateMutability": "nonpayable",
            "type": "function"
        },
        {
            "inputs": [
                {
                    "internalType": "string",
                    "name": "_name",
                    "type": "string"
                },
                {
                    "internalType": "bytes32[]",
                    "name": "_options",
                    "type": "bytes32[]"
                }
            ],
            "name": "createPoll",
            "outputs": [
                {
                    "internalType": "uint256",
                    "name": "",
                    "type": "uint256"
                },
                {
                    "internalType": "address",
                    "name": "",
                    "type": "address"
                }
            ],
            "stateMutability": "nonpayable",
            "type": "function"
        },
        {
            "inputs": [],
            "name": "getCount",
            "outputs": [
                {
                    "internalType": "uint256",
                    "name": "count",
                    "type": "uint256"
                }
            ],
            "stateMutability": "view",
            "type": "function"
        },
        {
            "inputs": [],
            "name": "getExpirationTime",
            "outputs": [
                {
                    "internalType": "uint256",
                    "name": "",
                    "type": "uint256"
                }
            ],
            "stateMutability": "view",
            "type": "function"
        },
        {
            "inputs": [],
            "name": "getMyPolls",
            "outputs": [
                {
                    "internalType": "uint256[]",
                    "name": "",
                    "type": "uint256[]"
                }
            ],
            "stateMutability": "view",
            "type": "function"
        },
        {
            "inputs": [],
            "name": "isClaimable",
            "outputs": [
                {
                    "internalType": "bool",
                    "name": "",
                    "type": "bool"
                },
                {
                    "internalType": "bool",
                    "name": "",
                    "type": "bool"
                },
                {
                    "internalType": "bool",
                    "name": "",
                    "type": "bool"
                }
            ],
            "stateMutability": "view",
            "type": "function"
        },
        {
            "inputs": [
                {
                    "internalType": "address",
                    "name": "_claimer",
                    "type": "address"
                }
            ],
            "name": "isClaimer",
            "outputs": [
                {
                    "internalType": "bool",
                    "name": "",
                    "type": "bool"
                }
            ],
            "stateMutability": "view",
            "type": "function"
        },
        {
            "inputs": [],
            "name": "isOwner",
            "outputs": [
                {
                    "internalType": "bool",
                    "name": "",
                    "type": "bool"
                }
            ],
            "stateMutability": "view",
            "type": "function"
        },
        {
            "inputs": [],
            "name": "owner",
            "outputs": [
                {
                    "internalType": "address",
                    "name": "",
                    "type": "address"
                }
            ],
            "stateMutability": "view",
            "type": "function"
        },
        {
            "inputs": [
                {
                    "internalType": "contract Poll",
                    "name": "poll",
                    "type": "address"
                }
            ],
            "name": "pollClosed",
            "outputs": [],
            "stateMutability": "nonpayable",
            "type": "function"
        },
        {
            "inputs": [
                {
                    "internalType": "uint256",
                    "name": "",
                    "type": "uint256"
                }
            ],
            "name": "polls",
            "outputs": [
                {
                    "internalType": "contract Poll",
                    "name": "",
                    "type": "address"
                }
            ],
            "stateMutability": "view",
            "type": "function"
        },
        {
            "inputs": [],
            "name": "read",
            "outputs": [
                {
                    "internalType": "address",
                    "name": "",
                    "type": "address"
                },
                {
                    "internalType": "uint256",
                    "name": "",
                    "type": "uint256"
                },
                {
                    "internalType": "bool",
                    "name": "",
                    "type": "bool"
                }
            ],
            "stateMutability": "view",
            "type": "function"
        },
        {
            "inputs": [
                {
                    "internalType": "address",
                    "name": "_claimer",
                    "type": "address"
                }
            ],
            "name": "removeClaimer",
            "outputs": [],
            "stateMutability": "nonpayable",
            "type": "function"
        },
        {
            "inputs": [],
            "name": "renounceOwnership",
            "outputs": [],
            "stateMutability": "nonpayable",
            "type": "function"
        },
        {
            "inputs": [
                {
                    "internalType": "uint256",
                    "name": "_expirationTime",
                    "type": "uint256"
                }
            ],
            "name": "setExpirationTime",
            "outputs": [],
            "stateMutability": "nonpayable",
            "type": "function"
        },
        {
            "inputs": [
                {
                    "internalType": "address",
                    "name": "newOwner",
                    "type": "address"
                }
            ],
            "name": "transferOwnership",
            "outputs": [],
            "stateMutability": "nonpayable",
            "type": "function"
        }
    ],
    "bytecode": "608060405234801561001057600080fd5b50600080546001600160a01b0319163390811782556040519091907f8be0079c531659141344cd1fd0a4f28419497f9722a3daafe3b4186f6b6457e0908290a36123738061005f6000396000f3fe60806040523480156200001157600080fd5b5060043610620001205760003560e01c80638da5cb5b11620000af578063af9da81f116200007a578063af9da81f14620002a4578063c0cc365d14620002bb578063e23a845a14620002d2578063f0490b8a14620002db578063f2fde38b14620002f257600080fd5b80638da5cb5b14620002405780638f32d59b1462000266578063a87d942c146200027a578063ac2f0074146200028d57600080fd5b80634e71d92d11620000f05780634e71d92d14620001d057806357de26a414620001da578063715018a6146200020c57806374478bb3146200021657600080fd5b8062f63722146200012557806310a8aecd146200015e578063170b5add146200019e5780632ea6640114620001b7575b600080fd5b6200013c6200013636600462000951565b62000309565b604080519283526001600160a01b039091166020830152015b60405180910390f35b6200018d6200016f3660046200092a565b6001600160a01b031660009081526001602052604090205460ff1690565b604051901515815260200162000155565b620001a86200047f565b60405162000155919062000a7f565b620001ce620001c83660046200092a565b620004e2565b005b620001ce62000570565b620001e4620005c2565b604080516001600160a01b039094168452602084019290925215159082015260600162000155565b620001ce620005fb565b620002206200065d565b604080519315158452911515602084015215159082015260600162000155565b6000546001600160a01b03165b6040516001600160a01b03909116815260200162000155565b6000546001600160a01b031633146200018d565b6003545b60405190815260200162000155565b6200024d6200029e36600462000a15565b6200069c565b620001ce620002b53660046200092a565b620006c7565b620001ce620002cc36600462000a15565b62000714565b6002546200027e565b620001ce620002ec3660046200092a565b62000771565b620001ce620003033660046200092a565b620007f8565b60008060003085856040516200031f906200088d565b6200032d9392919062000ac5565b604051809103906000f0801580156200034a573d6000803e3d6000fd5b50600380546001808201835560008381527fc2575a0e9e593c00f959f8c92f12db2869c3395a3b0502d05e2516446f71f85b90920180546001600160a01b0319166001600160a01b038616179055915492935091620003aa919062000b78565b33600081815260046020908152604080832080546001810182559084529190922001839055519192506001600160a01b038416918391907f7ea57775055a1d04b0e99841ebddb0a6bf8ca4d1b0474329fdd201c5d3ac6c579062000410908b9062000b2f565b60405180910390a460405163f2fde38b60e01b81523360048201526001600160a01b0383169063f2fde38b90602401600060405180830381600087803b1580156200045a57600080fd5b505af11580156200046f573d6000803e3d6000fd5b5092989397509295505050505050565b33600090815260046020908152604091829020805483518184028101840190945280845260609392830182828015620004d857602002820191906000526020600020905b815481526020019060010190808311620004c3575b5050505050905090565b6000546001600160a01b03163314620004fa57600080fd5b6001600160a01b03811660009081526001602052604090205460ff16156200052157600080fd5b6001600160a01b0381166000818152600160208190526040808320805460ff1916909217909155517fff9a8f4e0a39755c20c899b46171e470382709479fce2aa1e388f95edfe017399190a250565b3360009081526001602052604090205460ff166200058d57600080fd5b60025442116200059c57600080fd5b6000546001600160a01b0316331415620005b557600080fd5b620005c0336200081e565b565b6000806000620005da6000546001600160a01b031690565b6002543360009081526001602052604090205460ff16925092509250909192565b6000546001600160a01b031633146200061357600080fd5b600080546040516001600160a01b03909116907f8be0079c531659141344cd1fd0a4f28419497f9722a3daafe3b4186f6b6457e0908390a3600080546001600160a01b0319169055565b336000908152600160205260408120548190819060ff16600254421162000690600054336001600160a01b039091161490565b15925092509250909192565b60038181548110620006ad57600080fd5b6000918252602090912001546001600160a01b0316905081565b336001600160a01b03821614620006dd57600080fd5b6040516001600160a01b038216907f231ba46a9796cfff3206eb206f870c5e4f68248af093e30cf9e3dd48857a6e6690600090a250565b6000546001600160a01b031633146200072c57600080fd5b600280549082905560408051828152602081018490527f48bd2ad49200e0ca36b95736b1b720e3a4db1eb87715905a0242d11e90fcf176910160405180910390a15050565b6000546001600160a01b031633146200078957600080fd5b6001600160a01b03811660009081526001602052604090205460ff16620007af57600080fd5b6001600160a01b038116600081815260016020526040808220805460ff19169055517f30acaa541089592567cd4ce36437c68778a43e66dc1a9e7031e4496faf4593259190a250565b6000546001600160a01b031633146200081057600080fd5b6200081b816200081e565b50565b6001600160a01b0381166200083257600080fd5b600080546040516001600160a01b03808516939216917f8be0079c531659141344cd1fd0a4f28419497f9722a3daafe3b4186f6b6457e091a3600080546001600160a01b0319166001600160a01b0392909216919091179055565b6117738062000bcb83390190565b600082601f830112620008ad57600080fd5b8135602067ffffffffffffffff821115620008cc57620008cc62000b9e565b8160051b620008dd82820162000b44565b838152828101908684018388018501891015620008f957600080fd5b600093505b858410156200091e578035835260019390930192918401918401620008fe565b50979650505050505050565b6000602082840312156200093d57600080fd5b81356200094a8162000bb4565b9392505050565b600080604083850312156200096557600080fd5b823567ffffffffffffffff808211156200097e57600080fd5b818501915085601f8301126200099357600080fd5b8135602082821115620009aa57620009aa62000b9e565b620009be601f8301601f1916820162000b44565b8281528882848701011115620009d357600080fd5b82828601838301376000928101820192909252909450850135915080821115620009fc57600080fd5b5062000a0b858286016200089b565b9150509250929050565b60006020828403121562000a2857600080fd5b5035919050565b6000815180845260005b8181101562000a575760208185018101518683018201520162000a39565b8181111562000a6a576000602083870101525b50601f01601f19169290920160200192915050565b6020808252825182820181905260009190848201906040850190845b8181101562000ab95783518352928401929184019160010162000a9b565b50909695505050505050565b6001600160a01b03841681526060602080830182905260009162000aec9084018662000a2f565b838103604085015284518082528286019183019060005b8181101562000b215783518352928401929184019160010162000b03565b509098975050505050505050565b6020815260006200094a602083018462000a2f565b604051601f8201601f1916810167ffffffffffffffff8111828210171562000b705762000b7062000b9e565b604052919050565b60008282101562000b9957634e487b7160e01b600052601160045260246000fd5b500390565b634e487b7160e01b600052604160045260246000fd5b6001600160a01b03811681146200081b57600080fdfe60806040523480156200001157600080fd5b506040516200177338038062001773833981016040819052620000349162000277565b600080546001600160a01b0319163390811782556040519091907f8be0079c531659141344cd1fd0a4f28419497f9722a3daafe3b4186f6b6457e0908290a360008151116200008257600080fd5b600380546001600160a01b0319166001600160a01b0385161790558151620000b290600490602085019062000143565b5060005b815181101562000139576005828281518110620000d757620000d762000418565b6020908102919091018101518254600181810185556000948552928420015560068054918201815582527ff652222313e28459528d920b65115c16c04f3efc82aaedc97be59f3f377c0d3f0155806200013081620003ee565b915050620000b6565b5050505062000444565b8280546200015190620003b1565b90600052602060002090601f016020900481019282620001755760008555620001c0565b82601f106200019057805160ff1916838001178555620001c0565b82800160010185558215620001c0579182015b82811115620001c0578251825591602001919060010190620001a3565b50620001ce929150620001d2565b5090565b5b80821115620001ce5760008155600101620001d3565b600082601f830112620001fb57600080fd5b815160206001600160401b038211156200021957620002196200042e565b8160051b6200022a8282016200037e565b8381528281019086840183880185018910156200024657600080fd5b600093505b858410156200026b5780518352600193909301929184019184016200024b565b50979650505050505050565b6000806000606084860312156200028d57600080fd5b83516001600160a01b0381168114620002a557600080fd5b602085810151919450906001600160401b0380821115620002c557600080fd5b818701915087601f830112620002da57600080fd5b815181811115620002ef57620002ef6200042e565b62000303601f8201601f191685016200037e565b81815289858386010111156200031857600080fd5b60005b82811015620003385784810186015182820187015285016200031b565b828111156200034a5760008684840101525b506040890151909650935050808311156200036457600080fd5b50506200037486828701620001e9565b9150509250925092565b604051601f8201601f191681016001600160401b0381118282101715620003a957620003a96200042e565b604052919050565b600181811c90821680620003c657607f821691505b60208210811415620003e857634e487b7160e01b600052602260045260246000fd5b50919050565b60006000198214156200041157634e487b7160e01b600052601160045260246000fd5b5060010190565b634e487b7160e01b600052603260045260246000fd5b634e487b7160e01b600052604160045260246000fd5b61131f80620004546000396000f3fe6080604052600436106101665760003560e01c80638d337b81116100d1578063df1edbe81161008a578063e7b3387c11610064578063e7b3387c146104b3578063ed8c2aed146104c8578063f0490b8a146104dd578063f2fde38b146104fd57600080fd5b8063df1edbe81461046b578063e23a845a1461047e578063e5ed5b1e1461049357600080fd5b80638d337b81146103435780638da5cb5b146103c15780638f32d59b146103e9578063b4545a8714610409578063c0cc365d14610429578063cc2ee1961461044957600080fd5b80634e71d92d116101235780634e71d92d1461026f57806357de26a414610284578063597e1fb5146102c0578063709c9276146102da578063715018a6146102fa57806374478bb31461030f57600080fd5b806302d947ef1461016b57806306fdde031461018d57806310a8aecd146101b85780632ea66401146102015780633c3a220d14610221578063409e22051461024f575b600080fd5b34801561017757600080fd5b5061018b61018636600461117d565b61051d565b005b34801561019957600080fd5b506101a261065c565b6040516101af91906111e6565b60405180910390f35b3480156101c457600080fd5b506101f16101d33660046110db565b6001600160a01b031660009081526001602052604090205460ff1690565b60405190151581526020016101af565b34801561020d57600080fd5b5061018b61021c3660046110db565b6106ea565b34801561022d57600080fd5b5061024161023c366004611164565b610776565b6040519081526020016101af565b34801561025b57600080fd5b5061024161026a366004611164565b610797565b34801561027b57600080fd5b5061018b6107a7565b34801561029057600080fd5b506102996107f4565b604080516001600160a01b03909416845260208401929092521515908201526060016101af565b3480156102cc57600080fd5b506008546101f19060ff1681565b3480156102e657600080fd5b5061018b6102f5366004611138565b61082c565b34801561030657600080fd5b5061018b61097e565b34801561031b57600080fd5b506103246109df565b60408051931515845291151560208401521515908201526060016101af565b34801561034f57600080fd5b5061039661035e3660046110db565b6001600160a01b0390811660009081526007602052604090208054600182015460029092015460ff8083169561010090930416931690565b6040805194151585529215156020850152918301526001600160a01b031660608201526080016101af565b3480156103cd57600080fd5b506000546040516001600160a01b0390911681526020016101af565b3480156103f557600080fd5b506000546001600160a01b031633146101f1565b34801561041557600080fd5b5061018b6104243660046110db565b610a1d565b34801561043557600080fd5b5061018b610444366004611164565b610b42565b34801561045557600080fd5b5061045e610b9e565b6040516101af91906111a2565b61018b6104793660046110db565b610bf6565b34801561048a57600080fd5b50600254610241565b34801561049f57600080fd5b5061018b6104ae3660046110ff565b610db6565b3480156104bf57600080fd5b5061045e610eb1565b3480156104d457600080fd5b5061018b610f07565b3480156104e957600080fd5b5061018b6104f83660046110db565b610fc5565b34801561050957600080fd5b5061018b6105183660046110db565b61104a565b6001600160a01b038116600090815260076020526040902054819060ff161561054557600080fd5b6001600160a01b0380831660009081526007602052604090206002015483911615801561057a57506001600160a01b03811633145b806105a157506001600160a01b038181166000908152600760205260409020600201541633145b6105aa57600080fd5b60085460ff16156105ba57600080fd5b600684815481106105cd576105cd6112be565b600091825260208220018054916105e38361128d565b90915550506001600160a01b0383166000818152600760205260409020805460ff19166001179055600580543392919087908110610623576106236112be565b600091825260208220015460405190917f49800724769cfeab686bbed287515c62b0780b3ca377ad4dc33a74a2b84ea8a591a450505050565b6004805461066990611252565b80601f016020809104026020016040519081016040528092919081815260200182805461069590611252565b80156106e25780601f106106b7576101008083540402835291602001916106e2565b820191906000526020600020905b8154815290600101906020018083116106c557829003601f168201915b505050505081565b6000546001600160a01b0316331461070157600080fd5b6001600160a01b03811660009081526001602052604090205460ff161561072757600080fd5b6001600160a01b0381166000818152600160208190526040808320805460ff1916909217909155517fff9a8f4e0a39755c20c899b46171e470382709479fce2aa1e388f95edfe017399190a250565b6006818154811061078657600080fd5b600091825260209091200154905081565b6005818154811061078657600080fd5b3360009081526001602052604090205460ff166107c357600080fd5b60025442116107d157600080fd5b6000546001600160a01b03163314156107e957600080fd5b6107f23361106d565b565b600080600061080b6000546001600160a01b031690565b6002543360009081526001602052604090205460ff16925092509250909192565b6001600160a01b038216600090815260076020526040902054829060ff161561085457600080fd5b6001600160a01b0380841660009081526007602052604090206002015484911615801561088957506001600160a01b03811633145b806108b057506001600160a01b038181166000908152600760205260409020600201541633145b6108b957600080fd5b60085460ff16156108c957600080fd5b6000831161091e5760405162461bcd60e51b815260206004820152601b60248201527f5072696365206d75737420626520686967686572207468616e2030000000000060448201526064015b60405180910390fd5b6001600160a01b03841660008181526007602052604080822060018101879055805461ff00191661010017815590519092339287927f5bd9c8cd0416570878f22361aa825b83e275af1f5ad3af2e353e1f498405b0089190a45050505050565b6000546001600160a01b0316331461099557600080fd5b600080546040516001600160a01b03909116907f8be0079c531659141344cd1fd0a4f28419497f9722a3daafe3b4186f6b6457e0908390a3600080546001600160a01b0319169055565b336000908152600160205260408120548190819060ff166002544211610a11600054336001600160a01b039091161490565b15925092509250909192565b6001600160a01b038116600090815260076020526040902054819060ff1615610a4557600080fd5b6001600160a01b03808316600090815260076020526040902060020154839116158015610a7a57506001600160a01b03811633145b80610aa157506001600160a01b038181166000908152600760205260409020600201541633145b610aaa57600080fd5b6001600160a01b0383166000908152600760205260409020548390610100900460ff16610ad657600080fd5b60085460ff1615610ae657600080fd5b6001600160a01b03841660008181526007602052604080822060018101839055805461ff001916815590519092339290917f65b12a532dda3308398d0ea60c768a0bf2509db55bf7f257c1087b14cfd3cfef9190a35050505050565b6000546001600160a01b03163314610b5957600080fd5b600280549082905560408051828152602081018490527f48bd2ad49200e0ca36b95736b1b720e3a4db1eb87715905a0242d11e90fcf176910160405180910390a15050565b60606005805480602002602001604051908101604052809291908181526020018280548015610bec57602002820191906000526020600020905b815481526020019060010190808311610bd8575b5050505050905090565b6001600160a01b038116600090815260076020526040902054819060ff1615610c1e57600080fd5b6001600160a01b0382166000908152600760205260409020548290610100900460ff16610c4a57600080fd5b60085460ff1615610c5a57600080fd5b6001600160a01b0380841660009081526007602052604090206002810154600182015491921690341015610cd05760405162461bcd60e51b815260206004820152601c60248201527f4e6f7420656e6f7567682066756e6473207472616e73666572726564000000006044820152606401610915565b6000826001015434610ce2919061123b565b60018401546040519192506001600160a01b0384169181156108fc0291906000818181858888f19350505050158015610d1f573d6000803e3d6000fd5b508015610d5557604051339082156108fc029083906000818181858888f19350505050158015610d53573d6000803e3d6000fd5b505b825461ff00191683556002830180546001600160a01b031916339081179091556040516001600160a01b0384811691908916907fb294c26ec0b075ccd4d6ae733f6661019eab6c771ba5eec5ce6ac6513ab0388690600090a4505050505050565b6001600160a01b038216600090815260076020526040902054829060ff1615610dde57600080fd5b6001600160a01b03808416600090815260076020526040902060020154849116158015610e1357506001600160a01b03811633145b80610e3a57506001600160a01b038181166000908152600760205260409020600201541633145b610e4357600080fd5b60085460ff1615610e5357600080fd5b6001600160a01b0384811660008181526007602052604080822060020180546001600160a01b0319169488169485179055513392917fb294c26ec0b075ccd4d6ae733f6661019eab6c771ba5eec5ce6ac6513ab0388691a450505050565b60606006805480602002602001604051908101604052809291908181526020018280548015610bec5760200282019190600052602060002090815481526020019060010190808311610bd8575050505050905090565b60085460ff1615610f1757600080fd5b6000546001600160a01b03163314610f2e57600080fd5b6008805460ff1916600117905560035460405163af9da81f60e01b81523060048201526001600160a01b039091169063af9da81f90602401600060405180830381600087803b158015610f8057600080fd5b505af1158015610f94573d6000803e3d6000fd5b50506040513092507f231ba46a9796cfff3206eb206f870c5e4f68248af093e30cf9e3dd48857a6e669150600090a2565b6000546001600160a01b03163314610fdc57600080fd5b6001600160a01b03811660009081526001602052604090205460ff1661100157600080fd5b6001600160a01b038116600081815260016020526040808220805460ff19169055517f30acaa541089592567cd4ce36437c68778a43e66dc1a9e7031e4496faf4593259190a250565b6000546001600160a01b0316331461106157600080fd5b61106a8161106d565b50565b6001600160a01b03811661108057600080fd5b600080546040516001600160a01b03808516939216917f8be0079c531659141344cd1fd0a4f28419497f9722a3daafe3b4186f6b6457e091a3600080546001600160a01b0319166001600160a01b0392909216919091179055565b6000602082840312156110ed57600080fd5b81356110f8816112d4565b9392505050565b6000806040838503121561111257600080fd5b823561111d816112d4565b9150602083013561112d816112d4565b809150509250929050565b6000806040838503121561114b57600080fd5b8235611156816112d4565b946020939093013593505050565b60006020828403121561117657600080fd5b5035919050565b6000806040838503121561119057600080fd5b82359150602083013561112d816112d4565b6020808252825182820181905260009190848201906040850190845b818110156111da578351835292840192918401916001016111be565b50909695505050505050565b600060208083528351808285015260005b81811015611213578581018301518582016040015282016111f7565b81811115611225576000604083870101525b50601f01601f1916929092016040019392505050565b60008282101561124d5761124d6112a8565b500390565b600181811c9082168061126657607f821691505b6020821081141561128757634e487b7160e01b600052602260045260246000fd5b50919050565b60006000198214156112a1576112a16112a8565b5060010190565b634e487b7160e01b600052601160045260246000fd5b634e487b7160e01b600052603260045260246000fd5b6001600160a01b038116811461106a57600080fdfea2646970667358221220a22be5c2878c5eb16efc45dd3625c84cc68627b2e291d684054366d1e26e73ff64736f6c63430008060033a2646970667358221220510a8639549a89bd9f0991fc6deb092fdff9894953d8073d9cd2d89df9c54b6b64736f6c63430008060033",
    "sourcePath": "/Users/gmussi/git/solidity-voting/contracts/PollingStation.sol",
    "compiler": {
        "name": "solc",
        "version": "0.8.6+commit.11564f7e"
    },
    "functionHashes": {
        "addClaimer(address)": "2ea66401",
        "claim()": "4e71d92d",
        "createPoll(string,bytes32[])": "00f63722",
        "getCount()": "a87d942c",
        "getExpirationTime()": "e23a845a",
        "getMyPolls()": "170b5add",
        "isClaimable()": "74478bb3",
        "isClaimer(address)": "10a8aecd",
        "isOwner()": "8f32d59b",
        "owner()": "8da5cb5b",
        "pollClosed(address)": "af9da81f",
        "polls(uint256)": "ac2f0074",
        "read()": "57de26a4",
        "removeClaimer(address)": "f0490b8a",
        "renounceOwnership()": "715018a6",
        "setExpirationTime(uint256)": "c0cc365d",
        "transferOwnership(address)": "f2fde38b"
    },
    "gasEstimates": {
        "creation": {
            "codeDepositCost": "1815000",
            "executionCost": "27680",
            "totalCost": "1842680"
        },
        "external": {
            "addClaimer(address)": "30204",
            "claim()": "34607",
            "createPoll(string,bytes32[])": "infinite",
            "getCount()": "2348",
            "getExpirationTime()": "2358",
            "getMyPolls()": "infinite",
            "isClaimable()": "6815",
            "isClaimer(address)": "2589",
            "isOwner()": "2366",
            "owner()": "2343",
            "pollClosed(address)": "1527",
            "polls(uint256)": "4703",
            "read()": "6764",
            "removeClaimer(address)": "30181",
            "renounceOwnership()": "30232",
            "setExpirationTime(uint256)": "27958",
            "transferOwnership(address)": "infinite"
        }
    }
}