{
    "contractName": "Poll",
    "abi": [
        {
            "inputs": [
                {
                    "internalType": "contract PollingStation",
                    "name": "_pollingStation",
                    "type": "address"
                },
                {
                    "internalType": "string",
                    "name": "_name",
                    "type": "string"
                },
                {
                    "internalType": "bytes32[]",
                    "name": "_options",
                    "type": "bytes32[]"
                }
            ],
            "stateMutability": "nonpayable",
            "type": "constructor"
        },
        {
            "anonymous": false,
            "inputs": [
                {
                    "indexed": true,
                    "internalType": "address",
                    "name": "claimer",
                    "type": "address"
                }
            ],
            "name": "ClaimerAdded",
            "type": "event"
        },
        {
            "anonymous": false,
            "inputs": [
                {
                    "indexed": true,
                    "internalType": "address",
                    "name": "claimer",
                    "type": "address"
                }
            ],
            "name": "ClaimerRemoved",
            "type": "event"
        },
        {
            "anonymous": false,
            "inputs": [
                {
                    "indexed": false,
                    "internalType": "uint256",
                    "name": "oldExpiration",
                    "type": "uint256"
                },
                {
                    "indexed": false,
                    "internalType": "uint256",
                    "name": "newExpiration",
                    "type": "uint256"
                }
            ],
            "name": "ExpirationUpdated",
            "type": "event"
        },
        {
            "anonymous": false,
            "inputs": [
                {
                    "indexed": true,
                    "internalType": "bytes32",
                    "name": "option",
                    "type": "bytes32"
                },
                {
                    "indexed": true,
                    "internalType": "address",
                    "name": "voteAddr",
                    "type": "address"
                },
                {
                    "indexed": true,
                    "internalType": "address",
                    "name": "user",
                    "type": "address"
                }
            ],
            "name": "NewVote",
            "type": "event"
        },
        {
            "anonymous": false,
            "inputs": [
                {
                    "indexed": true,
                    "internalType": "address",
                    "name": "previousOwner",
                    "type": "address"
                },
                {
                    "indexed": true,
                    "internalType": "address",
                    "name": "newOwner",
                    "type": "address"
                }
            ],
            "name": "OwnershipTransferred",
            "type": "event"
        },
        {
            "anonymous": false,
            "inputs": [
                {
                    "indexed": true,
                    "internalType": "address",
                    "name": "pollAddr",
                    "type": "address"
                }
            ],
            "name": "PollClosed",
            "type": "event"
        },
        {
            "anonymous": false,
            "inputs": [
                {
                    "indexed": true,
                    "internalType": "address",
                    "name": "voteAddr",
                    "type": "address"
                },
                {
                    "indexed": true,
                    "internalType": "uint256",
                    "name": "price",
                    "type": "uint256"
                },
                {
                    "indexed": true,
                    "internalType": "address",
                    "name": "user",
                    "type": "address"
                }
            ],
            "name": "VoteForSale",
            "type": "event"
        },
        {
            "anonymous": false,
            "inputs": [
                {
                    "indexed": true,
                    "internalType": "address",
                    "name": "voteAddr",
                    "type": "address"
                },
                {
                    "indexed": true,
                    "internalType": "address",
                    "name": "user",
                    "type": "address"
                }
            ],
            "name": "VoteNotForSale",
            "type": "event"
        },
        {
            "anonymous": false,
            "inputs": [
                {
                    "indexed": true,
                    "internalType": "address",
                    "name": "voteAddr",
                    "type": "address"
                },
                {
                    "indexed": true,
                    "internalType": "address",
                    "name": "seller",
                    "type": "address"
                },
                {
                    "indexed": true,
                    "internalType": "address",
                    "name": "buyer",
                    "type": "address"
                }
            ],
            "name": "VoteOwnershipChanged",
            "type": "event"
        },
        {
            "inputs": [
                {
                    "internalType": "address",
                    "name": "_claimer",
                    "type": "address"
                }
            ],
            "name": "addClaimer",
            "outputs": [],
            "stateMutability": "nonpayable",
            "type": "function"
        },
        {
            "inputs": [
                {
                    "internalType": "address payable",
                    "name": "_voteAddr",
                    "type": "address"
                }
            ],
            "name": "buysVote",
            "outputs": [],
            "stateMutability": "payable",
            "type": "function"
        },
        {
            "inputs": [],
            "name": "claim",
            "outputs": [],
            "stateMutability": "nonpayable",
            "type": "function"
        },
        {
            "inputs": [],
            "name": "closePoll",
            "outputs": [],
            "stateMutability": "nonpayable",
            "type": "function"
        },
        {
            "inputs": [],
            "name": "closed",
            "outputs": [
                {
                    "internalType": "bool",
                    "name": "",
                    "type": "bool"
                }
            ],
            "stateMutability": "view",
            "type": "function"
        },
        {
            "inputs": [
                {
                    "internalType": "address",
                    "name": "_voteAddr",
                    "type": "address"
                },
                {
                    "internalType": "address payable",
                    "name": "_newOwner",
                    "type": "address"
                }
            ],
            "name": "delegateVote",
            "outputs": [],
            "stateMutability": "nonpayable",
            "type": "function"
        },
        {
            "inputs": [],
            "name": "getExpirationTime",
            "outputs": [
                {
                    "internalType": "uint256",
                    "name": "",
                    "type": "uint256"
                }
            ],
            "stateMutability": "view",
            "type": "function"
        },
        {
            "inputs": [],
            "name": "getOptions",
            "outputs": [
                {
                    "internalType": "bytes32[]",
                    "name": "",
                    "type": "bytes32[]"
                }
            ],
            "stateMutability": "view",
            "type": "function"
        },
        {
            "inputs": [
                {
                    "internalType": "address",
                    "name": "_voter",
                    "type": "address"
                }
            ],
            "name": "getVote",
            "outputs": [
                {
                    "internalType": "bool",
                    "name": "",
                    "type": "bool"
                },
                {
                    "internalType": "bool",
                    "name": "",
                    "type": "bool"
                },
                {
                    "internalType": "uint256",
                    "name": "",
                    "type": "uint256"
                },
                {
                    "internalType": "address",
                    "name": "",
                    "type": "address"
                }
            ],
            "stateMutability": "view",
            "type": "function"
        },
        {
            "inputs": [],
            "name": "getVoteCount",
            "outputs": [
                {
                    "internalType": "uint256[]",
                    "name": "",
                    "type": "uint256[]"
                }
            ],
            "stateMutability": "view",
            "type": "function"
        },
        {
            "inputs": [],
            "name": "isClaimable",
            "outputs": [
                {
                    "internalType": "bool",
                    "name": "",
                    "type": "bool"
                },
                {
                    "internalType": "bool",
                    "name": "",
                    "type": "bool"
                },
                {
                    "internalType": "bool",
                    "name": "",
                    "type": "bool"
                }
            ],
            "stateMutability": "view",
            "type": "function"
        },
        {
            "inputs": [
                {
                    "internalType": "address",
                    "name": "_claimer",
                    "type": "address"
                }
            ],
            "name": "isClaimer",
            "outputs": [
                {
                    "internalType": "bool",
                    "name": "",
                    "type": "bool"
                }
            ],
            "stateMutability": "view",
            "type": "function"
        },
        {
            "inputs": [],
            "name": "isOwner",
            "outputs": [
                {
                    "internalType": "bool",
                    "name": "",
                    "type": "bool"
                }
            ],
            "stateMutability": "view",
            "type": "function"
        },
        {
            "inputs": [],
            "name": "name",
            "outputs": [
                {
                    "internalType": "string",
                    "name": "",
                    "type": "string"
                }
            ],
            "stateMutability": "view",
            "type": "function"
        },
        {
            "inputs": [
                {
                    "internalType": "uint256",
                    "name": "",
                    "type": "uint256"
                }
            ],
            "name": "options",
            "outputs": [
                {
                    "internalType": "bytes32",
                    "name": "",
                    "type": "bytes32"
                }
            ],
            "stateMutability": "view",
            "type": "function"
        },
        {
            "inputs": [],
            "name": "owner",
            "outputs": [
                {
                    "internalType": "address",
                    "name": "",
                    "type": "address"
                }
            ],
            "stateMutability": "view",
            "type": "function"
        },
        {
            "inputs": [],
            "name": "read",
            "outputs": [
                {
                    "internalType": "address",
                    "name": "",
                    "type": "address"
                },
                {
                    "internalType": "uint256",
                    "name": "",
                    "type": "uint256"
                },
                {
                    "internalType": "bool",
                    "name": "",
                    "type": "bool"
                }
            ],
            "stateMutability": "view",
            "type": "function"
        },
        {
            "inputs": [
                {
                    "internalType": "address",
                    "name": "_claimer",
                    "type": "address"
                }
            ],
            "name": "removeClaimer",
            "outputs": [],
            "stateMutability": "nonpayable",
            "type": "function"
        },
        {
            "inputs": [],
            "name": "renounceOwnership",
            "outputs": [],
            "stateMutability": "nonpayable",
            "type": "function"
        },
        {
            "inputs": [
                {
                    "internalType": "address",
                    "name": "_voteAddr",
                    "type": "address"
                },
                {
                    "internalType": "uint256",
                    "name": "price",
                    "type": "uint256"
                }
            ],
            "name": "sellVote",
            "outputs": [],
            "stateMutability": "nonpayable",
            "type": "function"
        },
        {
            "inputs": [
                {
                    "internalType": "uint256",
                    "name": "_expirationTime",
                    "type": "uint256"
                }
            ],
            "name": "setExpirationTime",
            "outputs": [],
            "stateMutability": "nonpayable",
            "type": "function"
        },
        {
            "inputs": [
                {
                    "internalType": "address",
                    "name": "_voteAddr",
                    "type": "address"
                }
            ],
            "name": "stopSelling",
            "outputs": [],
            "stateMutability": "nonpayable",
            "type": "function"
        },
        {
            "inputs": [
                {
                    "internalType": "address",
                    "name": "newOwner",
                    "type": "address"
                }
            ],
            "name": "transferOwnership",
            "outputs": [],
            "stateMutability": "nonpayable",
            "type": "function"
        },
        {
            "inputs": [
                {
                    "internalType": "uint256",
                    "name": "_optionIndex",
                    "type": "uint256"
                },
                {
                    "internalType": "address",
                    "name": "_voteAddr",
                    "type": "address"
                }
            ],
            "name": "vote",
            "outputs": [],
            "stateMutability": "nonpayable",
            "type": "function"
        },
        {
            "inputs": [
                {
                    "internalType": "uint256",
                    "name": "",
                    "type": "uint256"
                }
            ],
            "name": "voteCounts",
            "outputs": [
                {
                    "internalType": "uint256",
                    "name": "",
                    "type": "uint256"
                }
            ],
            "stateMutability": "view",
            "type": "function"
        }
    ],
    "bytecode": "60806040523480156200001157600080fd5b506040516200177338038062001773833981016040819052620000349162000277565b600080546001600160a01b0319163390811782556040519091907f8be0079c531659141344cd1fd0a4f28419497f9722a3daafe3b4186f6b6457e0908290a360008151116200008257600080fd5b600380546001600160a01b0319166001600160a01b0385161790558151620000b290600490602085019062000143565b5060005b815181101562000139576005828281518110620000d757620000d762000418565b6020908102919091018101518254600181810185556000948552928420015560068054918201815582527ff652222313e28459528d920b65115c16c04f3efc82aaedc97be59f3f377c0d3f0155806200013081620003ee565b915050620000b6565b5050505062000444565b8280546200015190620003b1565b90600052602060002090601f016020900481019282620001755760008555620001c0565b82601f106200019057805160ff1916838001178555620001c0565b82800160010185558215620001c0579182015b82811115620001c0578251825591602001919060010190620001a3565b50620001ce929150620001d2565b5090565b5b80821115620001ce5760008155600101620001d3565b600082601f830112620001fb57600080fd5b815160206001600160401b038211156200021957620002196200042e565b8160051b6200022a8282016200037e565b8381528281019086840183880185018910156200024657600080fd5b600093505b858410156200026b5780518352600193909301929184019184016200024b565b50979650505050505050565b6000806000606084860312156200028d57600080fd5b83516001600160a01b0381168114620002a557600080fd5b602085810151919450906001600160401b0380821115620002c557600080fd5b818701915087601f830112620002da57600080fd5b815181811115620002ef57620002ef6200042e565b62000303601f8201601f191685016200037e565b81815289858386010111156200031857600080fd5b60005b82811015620003385784810186015182820187015285016200031b565b828111156200034a5760008684840101525b506040890151909650935050808311156200036457600080fd5b50506200037486828701620001e9565b9150509250925092565b604051601f8201601f191681016001600160401b0381118282101715620003a957620003a96200042e565b604052919050565b600181811c90821680620003c657607f821691505b60208210811415620003e857634e487b7160e01b600052602260045260246000fd5b50919050565b60006000198214156200041157634e487b7160e01b600052601160045260246000fd5b5060010190565b634e487b7160e01b600052603260045260246000fd5b634e487b7160e01b600052604160045260246000fd5b61131f80620004546000396000f3fe6080604052600436106101665760003560e01c80638d337b81116100d1578063df1edbe81161008a578063e7b3387c11610064578063e7b3387c146104b3578063ed8c2aed146104c8578063f0490b8a146104dd578063f2fde38b146104fd57600080fd5b8063df1edbe81461046b578063e23a845a1461047e578063e5ed5b1e1461049357600080fd5b80638d337b81146103435780638da5cb5b146103c15780638f32d59b146103e9578063b4545a8714610409578063c0cc365d14610429578063cc2ee1961461044957600080fd5b80634e71d92d116101235780634e71d92d1461026f57806357de26a414610284578063597e1fb5146102c0578063709c9276146102da578063715018a6146102fa57806374478bb31461030f57600080fd5b806302d947ef1461016b57806306fdde031461018d57806310a8aecd146101b85780632ea66401146102015780633c3a220d14610221578063409e22051461024f575b600080fd5b34801561017757600080fd5b5061018b61018636600461117d565b61051d565b005b34801561019957600080fd5b506101a261065c565b6040516101af91906111e6565b60405180910390f35b3480156101c457600080fd5b506101f16101d33660046110db565b6001600160a01b031660009081526001602052604090205460ff1690565b60405190151581526020016101af565b34801561020d57600080fd5b5061018b61021c3660046110db565b6106ea565b34801561022d57600080fd5b5061024161023c366004611164565b610776565b6040519081526020016101af565b34801561025b57600080fd5b5061024161026a366004611164565b610797565b34801561027b57600080fd5b5061018b6107a7565b34801561029057600080fd5b506102996107f4565b604080516001600160a01b03909416845260208401929092521515908201526060016101af565b3480156102cc57600080fd5b506008546101f19060ff1681565b3480156102e657600080fd5b5061018b6102f5366004611138565b61082c565b34801561030657600080fd5b5061018b61097e565b34801561031b57600080fd5b506103246109df565b60408051931515845291151560208401521515908201526060016101af565b34801561034f57600080fd5b5061039661035e3660046110db565b6001600160a01b0390811660009081526007602052604090208054600182015460029092015460ff8083169561010090930416931690565b6040805194151585529215156020850152918301526001600160a01b031660608201526080016101af565b3480156103cd57600080fd5b506000546040516001600160a01b0390911681526020016101af565b3480156103f557600080fd5b506000546001600160a01b031633146101f1565b34801561041557600080fd5b5061018b6104243660046110db565b610a1d565b34801561043557600080fd5b5061018b610444366004611164565b610b42565b34801561045557600080fd5b5061045e610b9e565b6040516101af91906111a2565b61018b6104793660046110db565b610bf6565b34801561048a57600080fd5b50600254610241565b34801561049f57600080fd5b5061018b6104ae3660046110ff565b610db6565b3480156104bf57600080fd5b5061045e610eb1565b3480156104d457600080fd5b5061018b610f07565b3480156104e957600080fd5b5061018b6104f83660046110db565b610fc5565b34801561050957600080fd5b5061018b6105183660046110db565b61104a565b6001600160a01b038116600090815260076020526040902054819060ff161561054557600080fd5b6001600160a01b0380831660009081526007602052604090206002015483911615801561057a57506001600160a01b03811633145b806105a157506001600160a01b038181166000908152600760205260409020600201541633145b6105aa57600080fd5b60085460ff16156105ba57600080fd5b600684815481106105cd576105cd6112be565b600091825260208220018054916105e38361128d565b90915550506001600160a01b0383166000818152600760205260409020805460ff19166001179055600580543392919087908110610623576106236112be565b600091825260208220015460405190917f49800724769cfeab686bbed287515c62b0780b3ca377ad4dc33a74a2b84ea8a591a450505050565b6004805461066990611252565b80601f016020809104026020016040519081016040528092919081815260200182805461069590611252565b80156106e25780601f106106b7576101008083540402835291602001916106e2565b820191906000526020600020905b8154815290600101906020018083116106c557829003601f168201915b505050505081565b6000546001600160a01b0316331461070157600080fd5b6001600160a01b03811660009081526001602052604090205460ff161561072757600080fd5b6001600160a01b0381166000818152600160208190526040808320805460ff1916909217909155517fff9a8f4e0a39755c20c899b46171e470382709479fce2aa1e388f95edfe017399190a250565b6006818154811061078657600080fd5b600091825260209091200154905081565b6005818154811061078657600080fd5b3360009081526001602052604090205460ff166107c357600080fd5b60025442116107d157600080fd5b6000546001600160a01b03163314156107e957600080fd5b6107f23361106d565b565b600080600061080b6000546001600160a01b031690565b6002543360009081526001602052604090205460ff16925092509250909192565b6001600160a01b038216600090815260076020526040902054829060ff161561085457600080fd5b6001600160a01b0380841660009081526007602052604090206002015484911615801561088957506001600160a01b03811633145b806108b057506001600160a01b038181166000908152600760205260409020600201541633145b6108b957600080fd5b60085460ff16156108c957600080fd5b6000831161091e5760405162461bcd60e51b815260206004820152601b60248201527f5072696365206d75737420626520686967686572207468616e2030000000000060448201526064015b60405180910390fd5b6001600160a01b03841660008181526007602052604080822060018101879055805461ff00191661010017815590519092339287927f5bd9c8cd0416570878f22361aa825b83e275af1f5ad3af2e353e1f498405b0089190a45050505050565b6000546001600160a01b0316331461099557600080fd5b600080546040516001600160a01b03909116907f8be0079c531659141344cd1fd0a4f28419497f9722a3daafe3b4186f6b6457e0908390a3600080546001600160a01b0319169055565b336000908152600160205260408120548190819060ff166002544211610a11600054336001600160a01b039091161490565b15925092509250909192565b6001600160a01b038116600090815260076020526040902054819060ff1615610a4557600080fd5b6001600160a01b03808316600090815260076020526040902060020154839116158015610a7a57506001600160a01b03811633145b80610aa157506001600160a01b038181166000908152600760205260409020600201541633145b610aaa57600080fd5b6001600160a01b0383166000908152600760205260409020548390610100900460ff16610ad657600080fd5b60085460ff1615610ae657600080fd5b6001600160a01b03841660008181526007602052604080822060018101839055805461ff001916815590519092339290917f65b12a532dda3308398d0ea60c768a0bf2509db55bf7f257c1087b14cfd3cfef9190a35050505050565b6000546001600160a01b03163314610b5957600080fd5b600280549082905560408051828152602081018490527f48bd2ad49200e0ca36b95736b1b720e3a4db1eb87715905a0242d11e90fcf176910160405180910390a15050565b60606005805480602002602001604051908101604052809291908181526020018280548015610bec57602002820191906000526020600020905b815481526020019060010190808311610bd8575b5050505050905090565b6001600160a01b038116600090815260076020526040902054819060ff1615610c1e57600080fd5b6001600160a01b0382166000908152600760205260409020548290610100900460ff16610c4a57600080fd5b60085460ff1615610c5a57600080fd5b6001600160a01b0380841660009081526007602052604090206002810154600182015491921690341015610cd05760405162461bcd60e51b815260206004820152601c60248201527f4e6f7420656e6f7567682066756e6473207472616e73666572726564000000006044820152606401610915565b6000826001015434610ce2919061123b565b60018401546040519192506001600160a01b0384169181156108fc0291906000818181858888f19350505050158015610d1f573d6000803e3d6000fd5b508015610d5557604051339082156108fc029083906000818181858888f19350505050158015610d53573d6000803e3d6000fd5b505b825461ff00191683556002830180546001600160a01b031916339081179091556040516001600160a01b0384811691908916907fb294c26ec0b075ccd4d6ae733f6661019eab6c771ba5eec5ce6ac6513ab0388690600090a4505050505050565b6001600160a01b038216600090815260076020526040902054829060ff1615610dde57600080fd5b6001600160a01b03808416600090815260076020526040902060020154849116158015610e1357506001600160a01b03811633145b80610e3a57506001600160a01b038181166000908152600760205260409020600201541633145b610e4357600080fd5b60085460ff1615610e5357600080fd5b6001600160a01b0384811660008181526007602052604080822060020180546001600160a01b0319169488169485179055513392917fb294c26ec0b075ccd4d6ae733f6661019eab6c771ba5eec5ce6ac6513ab0388691a450505050565b60606006805480602002602001604051908101604052809291908181526020018280548015610bec5760200282019190600052602060002090815481526020019060010190808311610bd8575050505050905090565b60085460ff1615610f1757600080fd5b6000546001600160a01b03163314610f2e57600080fd5b6008805460ff1916600117905560035460405163af9da81f60e01b81523060048201526001600160a01b039091169063af9da81f90602401600060405180830381600087803b158015610f8057600080fd5b505af1158015610f94573d6000803e3d6000fd5b50506040513092507f231ba46a9796cfff3206eb206f870c5e4f68248af093e30cf9e3dd48857a6e669150600090a2565b6000546001600160a01b03163314610fdc57600080fd5b6001600160a01b03811660009081526001602052604090205460ff1661100157600080fd5b6001600160a01b038116600081815260016020526040808220805460ff19169055517f30acaa541089592567cd4ce36437c68778a43e66dc1a9e7031e4496faf4593259190a250565b6000546001600160a01b0316331461106157600080fd5b61106a8161106d565b50565b6001600160a01b03811661108057600080fd5b600080546040516001600160a01b03808516939216917f8be0079c531659141344cd1fd0a4f28419497f9722a3daafe3b4186f6b6457e091a3600080546001600160a01b0319166001600160a01b0392909216919091179055565b6000602082840312156110ed57600080fd5b81356110f8816112d4565b9392505050565b6000806040838503121561111257600080fd5b823561111d816112d4565b9150602083013561112d816112d4565b809150509250929050565b6000806040838503121561114b57600080fd5b8235611156816112d4565b946020939093013593505050565b60006020828403121561117657600080fd5b5035919050565b6000806040838503121561119057600080fd5b82359150602083013561112d816112d4565b6020808252825182820181905260009190848201906040850190845b818110156111da578351835292840192918401916001016111be565b50909695505050505050565b600060208083528351808285015260005b81811015611213578581018301518582016040015282016111f7565b81811115611225576000604083870101525b50601f01601f1916929092016040019392505050565b60008282101561124d5761124d6112a8565b500390565b600181811c9082168061126657607f821691505b6020821081141561128757634e487b7160e01b600052602260045260246000fd5b50919050565b60006000198214156112a1576112a16112a8565b5060010190565b634e487b7160e01b600052601160045260246000fd5b634e487b7160e01b600052603260045260246000fd5b6001600160a01b038116811461106a57600080fdfea2646970667358221220a22be5c2878c5eb16efc45dd3625c84cc68627b2e291d684054366d1e26e73ff64736f6c63430008060033",
    "sourcePath": "/Users/gmussi/git/solidity-voting/contracts/Poll.sol",
    "compiler": {
        "name": "solc",
        "version": "0.8.6+commit.11564f7e"
    },
    "functionHashes": {
        "addClaimer(address)": "2ea66401",
        "buysVote(address)": "df1edbe8",
        "claim()": "4e71d92d",
        "closePoll()": "ed8c2aed",
        "closed()": "597e1fb5",
        "delegateVote(address,address)": "e5ed5b1e",
        "getExpirationTime()": "e23a845a",
        "getOptions()": "cc2ee196",
        "getVote(address)": "8d337b81",
        "getVoteCount()": "e7b3387c",
        "isClaimable()": "74478bb3",
        "isClaimer(address)": "10a8aecd",
        "isOwner()": "8f32d59b",
        "name()": "06fdde03",
        "options(uint256)": "409e2205",
        "owner()": "8da5cb5b",
        "read()": "57de26a4",
        "removeClaimer(address)": "f0490b8a",
        "renounceOwnership()": "715018a6",
        "sellVote(address,uint256)": "709c9276",
        "setExpirationTime(uint256)": "c0cc365d",
        "stopSelling(address)": "b4545a87",
        "transferOwnership(address)": "f2fde38b",
        "vote(uint256,address)": "02d947ef",
        "voteCounts(uint256)": "3c3a220d"
    },
    "gasEstimates": {
        "creation": {
            "codeDepositCost": "979000",
            "executionCost": "infinite",
            "totalCost": "infinite"
        },
        "external": {
            "addClaimer(address)": "30204",
            "buysVote(address)": "infinite",
            "claim()": "34607",
            "closePoll()": "infinite",
            "closed()": "2377",
            "delegateVote(address,address)": "infinite",
            "getExpirationTime()": "2359",
            "getOptions()": "infinite",
            "getVote(address)": "6903",
            "getVoteCount()": "infinite",
            "isClaimable()": "6800",
            "isClaimer(address)": "2611",
            "isOwner()": "2388",
            "name()": "infinite",
            "options(uint256)": "4709",
            "owner()": "2346",
            "read()": "6689",
            "removeClaimer(address)": "30181",
            "renounceOwnership()": "30276",
            "sellVote(address,uint256)": "57619",
            "setExpirationTime(uint256)": "28025",
            "stopSelling(address)": "42321",
            "transferOwnership(address)": "infinite",
            "vote(uint256,address)": "66179",
            "voteCounts(uint256)": "4687"
        }
    }
}