{
    "contractName": "Poll",
    "abi": [
        {
            "inputs": [
                {
                    "internalType": "string",
                    "name": "_name",
                    "type": "string"
                },
                {
                    "internalType": "bytes32[]",
                    "name": "_options",
                    "type": "bytes32[]"
                }
            ],
            "payable": false,
            "stateMutability": "nonpayable",
            "type": "constructor"
        },
        {
            "anonymous": false,
            "inputs": [
                {
                    "indexed": true,
                    "internalType": "address",
                    "name": "claimer",
                    "type": "address"
                }
            ],
            "name": "ClaimerAdded",
            "type": "event"
        },
        {
            "anonymous": false,
            "inputs": [
                {
                    "indexed": true,
                    "internalType": "address",
                    "name": "claimer",
                    "type": "address"
                }
            ],
            "name": "ClaimerRemoved",
            "type": "event"
        },
        {
            "anonymous": false,
            "inputs": [
                {
                    "indexed": false,
                    "internalType": "uint256",
                    "name": "oldExpiration",
                    "type": "uint256"
                },
                {
                    "indexed": false,
                    "internalType": "uint256",
                    "name": "newExpiration",
                    "type": "uint256"
                }
            ],
            "name": "ExpirationUpdated",
            "type": "event"
        },
        {
            "anonymous": false,
            "inputs": [
                {
                    "indexed": false,
                    "internalType": "bytes32",
                    "name": "option",
                    "type": "bytes32"
                },
                {
                    "indexed": true,
                    "internalType": "address",
                    "name": "voter",
                    "type": "address"
                }
            ],
            "name": "NewVote",
            "type": "event"
        },
        {
            "anonymous": false,
            "inputs": [
                {
                    "indexed": true,
                    "internalType": "address",
                    "name": "previousOwner",
                    "type": "address"
                },
                {
                    "indexed": true,
                    "internalType": "address",
                    "name": "newOwner",
                    "type": "address"
                }
            ],
            "name": "OwnershipTransferred",
            "type": "event"
        },
        {
            "anonymous": false,
            "inputs": [
                {
                    "indexed": false,
                    "internalType": "address",
                    "name": "pollAddr",
                    "type": "address"
                }
            ],
            "name": "PollClosed",
            "type": "event"
        },
        {
            "anonymous": false,
            "inputs": [
                {
                    "indexed": false,
                    "internalType": "address",
                    "name": "seller",
                    "type": "address"
                },
                {
                    "indexed": false,
                    "internalType": "uint256",
                    "name": "price",
                    "type": "uint256"
                }
            ],
            "name": "VoteForSale",
            "type": "event"
        },
        {
            "anonymous": false,
            "inputs": [
                {
                    "indexed": false,
                    "internalType": "address",
                    "name": "seller",
                    "type": "address"
                },
                {
                    "indexed": false,
                    "internalType": "address",
                    "name": "buyer",
                    "type": "address"
                }
            ],
            "name": "VoteOwnershipChanged",
            "type": "event"
        },
        {
            "constant": false,
            "inputs": [
                {
                    "internalType": "address",
                    "name": "_claimer",
                    "type": "address"
                }
            ],
            "name": "addClaimer",
            "outputs": [],
            "payable": false,
            "stateMutability": "nonpayable",
            "type": "function"
        },
        {
            "constant": false,
            "inputs": [
                {
                    "internalType": "address payable",
                    "name": "_voteAddr",
                    "type": "address"
                }
            ],
            "name": "buysVote",
            "outputs": [],
            "payable": true,
            "stateMutability": "payable",
            "type": "function"
        },
        {
            "constant": false,
            "inputs": [],
            "name": "claim",
            "outputs": [],
            "payable": false,
            "stateMutability": "nonpayable",
            "type": "function"
        },
        {
            "constant": false,
            "inputs": [],
            "name": "closePoll",
            "outputs": [],
            "payable": false,
            "stateMutability": "nonpayable",
            "type": "function"
        },
        {
            "constant": true,
            "inputs": [],
            "name": "closed",
            "outputs": [
                {
                    "internalType": "bool",
                    "name": "",
                    "type": "bool"
                }
            ],
            "payable": false,
            "stateMutability": "view",
            "type": "function"
        },
        {
            "constant": true,
            "inputs": [],
            "name": "debugnow",
            "outputs": [
                {
                    "internalType": "uint256",
                    "name": "",
                    "type": "uint256"
                }
            ],
            "payable": false,
            "stateMutability": "view",
            "type": "function"
        },
        {
            "constant": false,
            "inputs": [
                {
                    "internalType": "address",
                    "name": "_voter",
                    "type": "address"
                },
                {
                    "internalType": "address payable",
                    "name": "_newOwner",
                    "type": "address"
                }
            ],
            "name": "delegateVote",
            "outputs": [],
            "payable": false,
            "stateMutability": "nonpayable",
            "type": "function"
        },
        {
            "constant": true,
            "inputs": [],
            "name": "getExpirationTime",
            "outputs": [
                {
                    "internalType": "uint256",
                    "name": "",
                    "type": "uint256"
                }
            ],
            "payable": false,
            "stateMutability": "view",
            "type": "function"
        },
        {
            "constant": true,
            "inputs": [],
            "name": "getOptions",
            "outputs": [
                {
                    "internalType": "bytes32[]",
                    "name": "",
                    "type": "bytes32[]"
                }
            ],
            "payable": false,
            "stateMutability": "view",
            "type": "function"
        },
        {
            "constant": true,
            "inputs": [
                {
                    "internalType": "uint256",
                    "name": "_optionIndex",
                    "type": "uint256"
                }
            ],
            "name": "getVoteCount",
            "outputs": [
                {
                    "internalType": "uint256",
                    "name": "",
                    "type": "uint256"
                }
            ],
            "payable": false,
            "stateMutability": "view",
            "type": "function"
        },
        {
            "constant": true,
            "inputs": [],
            "name": "isClaimable",
            "outputs": [
                {
                    "internalType": "bool",
                    "name": "",
                    "type": "bool"
                },
                {
                    "internalType": "bool",
                    "name": "",
                    "type": "bool"
                },
                {
                    "internalType": "bool",
                    "name": "",
                    "type": "bool"
                }
            ],
            "payable": false,
            "stateMutability": "view",
            "type": "function"
        },
        {
            "constant": true,
            "inputs": [
                {
                    "internalType": "address",
                    "name": "_claimer",
                    "type": "address"
                }
            ],
            "name": "isClaimer",
            "outputs": [
                {
                    "internalType": "bool",
                    "name": "",
                    "type": "bool"
                }
            ],
            "payable": false,
            "stateMutability": "view",
            "type": "function"
        },
        {
            "constant": true,
            "inputs": [],
            "name": "isOwner",
            "outputs": [
                {
                    "internalType": "bool",
                    "name": "",
                    "type": "bool"
                }
            ],
            "payable": false,
            "stateMutability": "view",
            "type": "function"
        },
        {
            "constant": true,
            "inputs": [],
            "name": "name",
            "outputs": [
                {
                    "internalType": "string",
                    "name": "",
                    "type": "string"
                }
            ],
            "payable": false,
            "stateMutability": "view",
            "type": "function"
        },
        {
            "constant": true,
            "inputs": [
                {
                    "internalType": "uint256",
                    "name": "",
                    "type": "uint256"
                }
            ],
            "name": "options",
            "outputs": [
                {
                    "internalType": "bytes32",
                    "name": "",
                    "type": "bytes32"
                }
            ],
            "payable": false,
            "stateMutability": "view",
            "type": "function"
        },
        {
            "constant": true,
            "inputs": [],
            "name": "owner",
            "outputs": [
                {
                    "internalType": "address",
                    "name": "",
                    "type": "address"
                }
            ],
            "payable": false,
            "stateMutability": "view",
            "type": "function"
        },
        {
            "constant": true,
            "inputs": [],
            "name": "read",
            "outputs": [
                {
                    "internalType": "address",
                    "name": "",
                    "type": "address"
                },
                {
                    "internalType": "uint256",
                    "name": "",
                    "type": "uint256"
                },
                {
                    "internalType": "bool",
                    "name": "",
                    "type": "bool"
                }
            ],
            "payable": false,
            "stateMutability": "view",
            "type": "function"
        },
        {
            "constant": false,
            "inputs": [
                {
                    "internalType": "address",
                    "name": "_claimer",
                    "type": "address"
                }
            ],
            "name": "removeClaimer",
            "outputs": [],
            "payable": false,
            "stateMutability": "nonpayable",
            "type": "function"
        },
        {
            "constant": false,
            "inputs": [],
            "name": "renounceOwnership",
            "outputs": [],
            "payable": false,
            "stateMutability": "nonpayable",
            "type": "function"
        },
        {
            "constant": false,
            "inputs": [
                {
                    "internalType": "address",
                    "name": "_voteAddr",
                    "type": "address"
                },
                {
                    "internalType": "uint256",
                    "name": "price",
                    "type": "uint256"
                }
            ],
            "name": "sellVote",
            "outputs": [],
            "payable": false,
            "stateMutability": "nonpayable",
            "type": "function"
        },
        {
            "constant": false,
            "inputs": [
                {
                    "internalType": "uint256",
                    "name": "_expirationTime",
                    "type": "uint256"
                }
            ],
            "name": "setExpirationTime",
            "outputs": [],
            "payable": false,
            "stateMutability": "nonpayable",
            "type": "function"
        },
        {
            "constant": false,
            "inputs": [
                {
                    "internalType": "address",
                    "name": "newOwner",
                    "type": "address"
                }
            ],
            "name": "transferOwnership",
            "outputs": [],
            "payable": false,
            "stateMutability": "nonpayable",
            "type": "function"
        },
        {
            "constant": false,
            "inputs": [
                {
                    "internalType": "uint256",
                    "name": "_optionIndex",
                    "type": "uint256"
                },
                {
                    "internalType": "address",
                    "name": "_voter",
                    "type": "address"
                }
            ],
            "name": "vote",
            "outputs": [],
            "payable": false,
            "stateMutability": "nonpayable",
            "type": "function"
        }
    ],
    "bytecode": "60806040523480156200001157600080fd5b50604051620012cc380380620012cc833981810160405260408110156200003757600080fd5b81019080805160405193929190846401000000008211156200005857600080fd5b9083019060208201858111156200006e57600080fd5b82516401000000008111828201881017156200008957600080fd5b82525081516020918201929091019080838360005b83811015620000b85781810151838201526020016200009e565b50505050905090810190601f168015620000e65780820380516001836020036101000a031916815260200191505b50604052602001805160405193929190846401000000008211156200010a57600080fd5b9083019060208201858111156200012057600080fd5b82518660208202830111640100000000821117156200013e57600080fd5b82525081516020918201928201910280838360005b838110156200016d57818101518382015260200162000153565b50505050919091016040819052600080546001600160a01b03191633178082556001600160a01b0316955093507f8be0079c531659141344cd1fd0a4f28419497f9722a3daafe3b4186f6b6457e09250839150a36000815111620001d057600080fd5b8151620001e590600390602085019062000246565b5060005b81518110156200023d5760048282815181106200020257fe5b6020908102919091018101518254600181810185556000948552838520909101919091558383526005909152604082209190915501620001e9565b505050620002eb565b828054600181600116156101000203166002900490600052602060002090601f016020900481019282601f106200028957805160ff1916838001178555620002b9565b82800160010185558215620002b9579182015b82811115620002b95782518255916020019190600101906200029c565b50620002c7929150620002cb565b5090565b620002e891905b80821115620002c75760008155600101620002d2565b90565b610fd180620002fb6000396000f3fe6080604052600436106101405760003560e01c80638da5cb5b116100b6578063e1aa071c1161006f578063e1aa071c146104d3578063e23a845a146104e8578063e5ed5b1e146104fd578063ed8c2aed14610538578063f0490b8a1461054d578063f2fde38b1461058057610140565b80638da5cb5b146103ae5780638f32d59b146103df578063b2c2f2e8146103f4578063c0cc365d1461041e578063cc2ee19614610448578063df1edbe8146104ad57610140565b80634e71d92d116101085780634e71d92d146102c057806357de26a4146102d5578063597e1fb514610314578063709c927614610329578063715018a61461036257806374478bb31461037757610140565b806302d947ef1461014557806306fdde031461018057806310a8aecd1461020a5780632ea6640114610251578063409e220514610284575b600080fd5b34801561015157600080fd5b5061017e6004803603604081101561016857600080fd5b50803590602001356001600160a01b03166105b3565b005b34801561018c57600080fd5b506101956106e2565b6040805160208082528351818301528351919283929083019185019080838360005b838110156101cf5781810151838201526020016101b7565b50505050905090810190601f1680156101fc5780820380516001836020036101000a031916815260200191505b509250505060405180910390f35b34801561021657600080fd5b5061023d6004803603602081101561022d57600080fd5b50356001600160a01b0316610770565b604080519115158252519081900360200190f35b34801561025d57600080fd5b5061017e6004803603602081101561027457600080fd5b50356001600160a01b031661078e565b34801561029057600080fd5b506102ae600480360360208110156102a757600080fd5b5035610814565b60408051918252519081900360200190f35b3480156102cc57600080fd5b5061017e610832565b3480156102e157600080fd5b506102ea61086f565b604080516001600160a01b0390941684526020840192909252151582820152519081900360600190f35b34801561032057600080fd5b5061023d610893565b34801561033557600080fd5b5061017e6004803603604081101561034c57600080fd5b506001600160a01b03813516906020013561089c565b34801561036e57600080fd5b5061017e6109fd565b34801561038357600080fd5b5061038c610a58565b6040805193151584529115156020840152151582820152519081900360600190f35b3480156103ba57600080fd5b506103c3610a7f565b604080516001600160a01b039092168252519081900360200190f35b3480156103eb57600080fd5b5061023d610a8e565b34801561040057600080fd5b506102ae6004803603602081101561041757600080fd5b5035610a9f565b34801561042a57600080fd5b5061017e6004803603602081101561044157600080fd5b5035610ab1565b34801561045457600080fd5b5061045d610b09565b60408051602080825283518183015283519192839290830191858101910280838360005b83811015610499578181015183820152602001610481565b505050509050019250505060405180910390f35b61017e600480360360208110156104c357600080fd5b50356001600160a01b0316610b61565b3480156104df57600080fd5b506102ae610d16565b3480156104f457600080fd5b506102ae610d1a565b34801561050957600080fd5b5061017e6004803603604081101561052057600080fd5b506001600160a01b0381358116916020013516610d20565b34801561054457600080fd5b5061017e610e2f565b34801561055957600080fd5b5061017e6004803603602081101561057057600080fd5b50356001600160a01b0316610e92565b34801561058c57600080fd5b5061017e600480360360208110156105a357600080fd5b50356001600160a01b0316610f11565b6001600160a01b038116600090815260066020526040902054819060ff16156105db57600080fd5b6001600160a01b0380831660009081526006602052604090206002015483911615801561061057506001600160a01b03811633145b8061063757506001600160a01b038181166000908152600660205260409020600201541633145b61064057600080fd5b60075460ff161561065057600080fd5b6000848152600560209081526040808320805460019081019091556001600160a01b03871684526006909252909120805460ff191690911790556004805433917fc0f8946b28ac7993b4dd24b05482b70709d3394c92247236929d86a50b24d0ab91879081106106bc57fe5b90600052602060002001546040518082815260200191505060405180910390a250505050565b6003805460408051602060026001851615610100026000190190941693909304601f810184900484028201840190925281815292918301828280156107685780601f1061073d57610100808354040283529160200191610768565b820191906000526020600020905b81548152906001019060200180831161074b57829003601f168201915b505050505081565b6001600160a01b031660009081526001602052604090205460ff1690565b610796610a8e565b61079f57600080fd5b6001600160a01b03811660009081526001602052604090205460ff16156107c557600080fd5b6001600160a01b0381166000818152600160208190526040808320805460ff1916909217909155517fff9a8f4e0a39755c20c899b46171e470382709479fce2aa1e388f95edfe017399190a250565b6004818154811061082157fe5b600091825260209091200154905081565b61083b33610770565b61084457600080fd5b600254421161085257600080fd5b61085a610a8e565b1561086457600080fd5b61086d33610f2e565b565b600080600061087c610a7f565b60025461088833610770565b925092509250909192565b60075460ff1681565b6001600160a01b038216600090815260066020526040902054829060ff16156108c457600080fd5b6001600160a01b038084166000908152600660205260409020600201548491161580156108f957506001600160a01b03811633145b8061092057506001600160a01b038181166000908152600660205260409020600201541633145b61092957600080fd5b60075460ff161561093957600080fd5b6000831161098e576040805162461bcd60e51b815260206004820152601b60248201527f5072696365206d75737420626520686967686572207468616e20300000000000604482015290519081900360640190fd5b6001600160a01b03841660008181526006602090815260409182902060018101879055805461ff0019166101001781558251938452908301869052815190927f68a2e03410e90f36e390d071d135e4acd2e4e0279eb70c9aa5d62d4115b7223892908290030190a15050505050565b610a05610a8e565b610a0e57600080fd5b600080546040516001600160a01b03909116907f8be0079c531659141344cd1fd0a4f28419497f9722a3daafe3b4186f6b6457e0908390a3600080546001600160a01b0319169055565b6000806000610a6633610770565b6002544211610a73610a8e565b15925092509250909192565b6000546001600160a01b031690565b6000546001600160a01b0316331490565b60009081526005602052604090205490565b610ab9610a8e565b610ac257600080fd5b6002805490829055604080518281526020810184905281517f48bd2ad49200e0ca36b95736b1b720e3a4db1eb87715905a0242d11e90fcf176929181900390910190a15050565b60606004805480602002602001604051908101604052809291908181526020018280548015610b5757602002820191906000526020600020905b815481526020019060010190808311610b43575b5050505050905090565b6001600160a01b038116600090815260066020526040902054819060ff1615610b8957600080fd5b6001600160a01b0382166000908152600660205260409020548290610100900460ff16610bb557600080fd5b60075460ff1615610bc557600080fd5b6001600160a01b03831660009081526006602052604090206001810154341015610c36576040805162461bcd60e51b815260206004820152601c60248201527f4e6f7420656e6f7567682066756e6473207472616e7366657272656400000000604482015290519081900360640190fd5b600181015460405134829003916001600160a01b0387169181156108fc0291906000818181858888f19350505050158015610c75573d6000803e3d6000fd5b508015610cab57604051339082156108fc029083906000818181858888f19350505050158015610ca9573d6000803e3d6000fd5b505b815461ff00191682556002820180546001600160a01b03191633908117909155604080516001600160a01b0388168152602081019290925280517f3bc4f409beaf4fdda6a2d537717b5131aecea79aecfdd3d885488ddaa5a14c329281900390910190a15050505050565b4290565b60025490565b6001600160a01b038216600090815260066020526040902054829060ff1615610d4857600080fd5b6001600160a01b03808416600090815260066020526040902060020154849116158015610d7d57506001600160a01b03811633145b80610da457506001600160a01b038181166000908152600660205260409020600201541633145b610dad57600080fd5b60075460ff1615610dbd57600080fd5b6001600160a01b0384811660008181526006602090815260409182902060020180546001600160a01b0319169488169485179055815192835282019290925281517f3bc4f409beaf4fdda6a2d537717b5131aecea79aecfdd3d885488ddaa5a14c32929181900390910190a150505050565b60075460ff1615610e3f57600080fd5b610e47610a8e565b610e5057600080fd5b6007805460ff191660011790556040805130815290517f231ba46a9796cfff3206eb206f870c5e4f68248af093e30cf9e3dd48857a6e669181900360200190a1565b610e9a610a8e565b610ea357600080fd5b6001600160a01b03811660009081526001602052604090205460ff16610ec857600080fd5b6001600160a01b038116600081815260016020526040808220805460ff19169055517f30acaa541089592567cd4ce36437c68778a43e66dc1a9e7031e4496faf4593259190a250565b610f19610a8e565b610f2257600080fd5b610f2b81610f2e565b50565b6001600160a01b038116610f4157600080fd5b600080546040516001600160a01b03808516939216917f8be0079c531659141344cd1fd0a4f28419497f9722a3daafe3b4186f6b6457e091a3600080546001600160a01b0319166001600160a01b039290921691909117905556fea265627a7a72315820e85010a9ff052fe19a9c62bd8f96d6b989e9ff575542714119505f3e33260a7664736f6c63430005100032",
    "sourcePath": "c:/Users/Guilherme Mussi/git/solidity-voting/contracts/Poll.sol",
    "compiler": {
        "name": "solc",
        "version": "0.5.16+commit.9c3226ce"
    },
    "functionHashes": {
        "addClaimer(address)": "2ea66401",
        "buysVote(address)": "df1edbe8",
        "claim()": "4e71d92d",
        "closePoll()": "ed8c2aed",
        "closed()": "597e1fb5",
        "debugnow()": "e1aa071c",
        "delegateVote(address,address)": "e5ed5b1e",
        "getExpirationTime()": "e23a845a",
        "getOptions()": "cc2ee196",
        "getVoteCount(uint256)": "b2c2f2e8",
        "isClaimable()": "74478bb3",
        "isClaimer(address)": "10a8aecd",
        "isOwner()": "8f32d59b",
        "name()": "06fdde03",
        "options(uint256)": "409e2205",
        "owner()": "8da5cb5b",
        "read()": "57de26a4",
        "removeClaimer(address)": "f0490b8a",
        "renounceOwnership()": "715018a6",
        "sellVote(address,uint256)": "709c9276",
        "setExpirationTime(uint256)": "c0cc365d",
        "transferOwnership(address)": "f2fde38b",
        "vote(uint256,address)": "02d947ef"
    },
    "gasEstimates": {
        "creation": {
            "codeDepositCost": "809800",
            "executionCost": "infinite",
            "totalCost": "infinite"
        },
        "external": {
            "addClaimer(address)": "24139",
            "buysVote(address)": "infinite",
            "claim()": "26079",
            "closePoll()": "23808",
            "closed()": "1077",
            "debugnow()": "219",
            "delegateVote(address,address)": "26239",
            "getExpirationTime()": "1042",
            "getOptions()": "infinite",
            "getVoteCount(uint256)": "1173",
            "isClaimable()": "2995",
            "isClaimer(address)": "1222",
            "isOwner()": "1072",
            "name()": "infinite",
            "options(uint256)": "2043",
            "owner()": "1060",
            "read()": "2909",
            "removeClaimer(address)": "24138",
            "renounceOwnership()": "24303",
            "sellVote(address,uint256)": "46263",
            "setExpirationTime(uint256)": "23304",
            "transferOwnership(address)": "24490",
            "vote(uint256,address)": "48838"
        }
    }
}