{
    "contractName": "Poll",
    "abi": [
        {
            "inputs": [
                {
                    "internalType": "string",
                    "name": "_name",
                    "type": "string"
                },
                {
                    "internalType": "bytes32[]",
                    "name": "_options",
                    "type": "bytes32[]"
                }
            ],
            "payable": false,
            "stateMutability": "nonpayable",
            "type": "constructor"
        },
        {
            "anonymous": false,
            "inputs": [
                {
                    "indexed": true,
                    "internalType": "address",
                    "name": "claimer",
                    "type": "address"
                }
            ],
            "name": "ClaimerAdded",
            "type": "event"
        },
        {
            "anonymous": false,
            "inputs": [
                {
                    "indexed": true,
                    "internalType": "address",
                    "name": "claimer",
                    "type": "address"
                }
            ],
            "name": "ClaimerRemoved",
            "type": "event"
        },
        {
            "anonymous": false,
            "inputs": [
                {
                    "indexed": false,
                    "internalType": "uint256",
                    "name": "oldExpiration",
                    "type": "uint256"
                },
                {
                    "indexed": false,
                    "internalType": "uint256",
                    "name": "newExpiration",
                    "type": "uint256"
                }
            ],
            "name": "ExpirationUpdated",
            "type": "event"
        },
        {
            "anonymous": false,
            "inputs": [
                {
                    "indexed": false,
                    "internalType": "bytes32",
                    "name": "option",
                    "type": "bytes32"
                },
                {
                    "indexed": true,
                    "internalType": "address",
                    "name": "voter",
                    "type": "address"
                }
            ],
            "name": "NewVote",
            "type": "event"
        },
        {
            "anonymous": false,
            "inputs": [
                {
                    "indexed": true,
                    "internalType": "address",
                    "name": "previousOwner",
                    "type": "address"
                },
                {
                    "indexed": true,
                    "internalType": "address",
                    "name": "newOwner",
                    "type": "address"
                }
            ],
            "name": "OwnershipTransferred",
            "type": "event"
        },
        {
            "anonymous": false,
            "inputs": [
                {
                    "indexed": false,
                    "internalType": "address",
                    "name": "pollAddr",
                    "type": "address"
                }
            ],
            "name": "PollClosed",
            "type": "event"
        },
        {
            "anonymous": false,
            "inputs": [
                {
                    "indexed": false,
                    "internalType": "address",
                    "name": "seller",
                    "type": "address"
                },
                {
                    "indexed": false,
                    "internalType": "uint256",
                    "name": "price",
                    "type": "uint256"
                }
            ],
            "name": "VoteForSale",
            "type": "event"
        },
        {
            "anonymous": false,
            "inputs": [
                {
                    "indexed": false,
                    "internalType": "address",
                    "name": "seller",
                    "type": "address"
                },
                {
                    "indexed": false,
                    "internalType": "address",
                    "name": "buyer",
                    "type": "address"
                }
            ],
            "name": "VoteOwnershipChanged",
            "type": "event"
        },
        {
            "constant": false,
            "inputs": [
                {
                    "internalType": "address",
                    "name": "_claimer",
                    "type": "address"
                }
            ],
            "name": "addClaimer",
            "outputs": [],
            "payable": false,
            "stateMutability": "nonpayable",
            "type": "function"
        },
        {
            "constant": false,
            "inputs": [
                {
                    "internalType": "address payable",
                    "name": "_voteAddr",
                    "type": "address"
                }
            ],
            "name": "buysVote",
            "outputs": [],
            "payable": true,
            "stateMutability": "payable",
            "type": "function"
        },
        {
            "constant": false,
            "inputs": [],
            "name": "claim",
            "outputs": [],
            "payable": false,
            "stateMutability": "nonpayable",
            "type": "function"
        },
        {
            "constant": false,
            "inputs": [],
            "name": "closePoll",
            "outputs": [],
            "payable": false,
            "stateMutability": "nonpayable",
            "type": "function"
        },
        {
            "constant": true,
            "inputs": [],
            "name": "closed",
            "outputs": [
                {
                    "internalType": "bool",
                    "name": "",
                    "type": "bool"
                }
            ],
            "payable": false,
            "stateMutability": "view",
            "type": "function"
        },
        {
            "constant": true,
            "inputs": [],
            "name": "debugnow",
            "outputs": [
                {
                    "internalType": "uint256",
                    "name": "",
                    "type": "uint256"
                }
            ],
            "payable": false,
            "stateMutability": "view",
            "type": "function"
        },
        {
            "constant": false,
            "inputs": [
                {
                    "internalType": "address payable",
                    "name": "_owner",
                    "type": "address"
                }
            ],
            "name": "delegateVote",
            "outputs": [],
            "payable": false,
            "stateMutability": "nonpayable",
            "type": "function"
        },
        {
            "constant": true,
            "inputs": [],
            "name": "getExpirationTime",
            "outputs": [
                {
                    "internalType": "uint256",
                    "name": "",
                    "type": "uint256"
                }
            ],
            "payable": false,
            "stateMutability": "view",
            "type": "function"
        },
        {
            "constant": true,
            "inputs": [],
            "name": "getOptions",
            "outputs": [
                {
                    "internalType": "bytes32[]",
                    "name": "",
                    "type": "bytes32[]"
                }
            ],
            "payable": false,
            "stateMutability": "view",
            "type": "function"
        },
        {
            "constant": true,
            "inputs": [],
            "name": "isClaimable",
            "outputs": [
                {
                    "internalType": "bool",
                    "name": "",
                    "type": "bool"
                },
                {
                    "internalType": "bool",
                    "name": "",
                    "type": "bool"
                },
                {
                    "internalType": "bool",
                    "name": "",
                    "type": "bool"
                }
            ],
            "payable": false,
            "stateMutability": "view",
            "type": "function"
        },
        {
            "constant": true,
            "inputs": [
                {
                    "internalType": "address",
                    "name": "_claimer",
                    "type": "address"
                }
            ],
            "name": "isClaimer",
            "outputs": [
                {
                    "internalType": "bool",
                    "name": "",
                    "type": "bool"
                }
            ],
            "payable": false,
            "stateMutability": "view",
            "type": "function"
        },
        {
            "constant": true,
            "inputs": [],
            "name": "isOwner",
            "outputs": [
                {
                    "internalType": "bool",
                    "name": "",
                    "type": "bool"
                }
            ],
            "payable": false,
            "stateMutability": "view",
            "type": "function"
        },
        {
            "constant": true,
            "inputs": [],
            "name": "name",
            "outputs": [
                {
                    "internalType": "string",
                    "name": "",
                    "type": "string"
                }
            ],
            "payable": false,
            "stateMutability": "view",
            "type": "function"
        },
        {
            "constant": true,
            "inputs": [
                {
                    "internalType": "uint256",
                    "name": "",
                    "type": "uint256"
                }
            ],
            "name": "options",
            "outputs": [
                {
                    "internalType": "bytes32",
                    "name": "",
                    "type": "bytes32"
                }
            ],
            "payable": false,
            "stateMutability": "view",
            "type": "function"
        },
        {
            "constant": true,
            "inputs": [],
            "name": "owner",
            "outputs": [
                {
                    "internalType": "address",
                    "name": "",
                    "type": "address"
                }
            ],
            "payable": false,
            "stateMutability": "view",
            "type": "function"
        },
        {
            "constant": true,
            "inputs": [],
            "name": "read",
            "outputs": [
                {
                    "internalType": "address",
                    "name": "",
                    "type": "address"
                },
                {
                    "internalType": "uint256",
                    "name": "",
                    "type": "uint256"
                },
                {
                    "internalType": "bool",
                    "name": "",
                    "type": "bool"
                }
            ],
            "payable": false,
            "stateMutability": "view",
            "type": "function"
        },
        {
            "constant": false,
            "inputs": [
                {
                    "internalType": "address",
                    "name": "_claimer",
                    "type": "address"
                }
            ],
            "name": "removeClaimer",
            "outputs": [],
            "payable": false,
            "stateMutability": "nonpayable",
            "type": "function"
        },
        {
            "constant": false,
            "inputs": [],
            "name": "renounceOwnership",
            "outputs": [],
            "payable": false,
            "stateMutability": "nonpayable",
            "type": "function"
        },
        {
            "constant": false,
            "inputs": [
                {
                    "internalType": "uint256",
                    "name": "_expirationTime",
                    "type": "uint256"
                }
            ],
            "name": "setExpirationTime",
            "outputs": [],
            "payable": false,
            "stateMutability": "nonpayable",
            "type": "function"
        },
        {
            "constant": false,
            "inputs": [
                {
                    "internalType": "address",
                    "name": "newOwner",
                    "type": "address"
                }
            ],
            "name": "transferOwnership",
            "outputs": [],
            "payable": false,
            "stateMutability": "nonpayable",
            "type": "function"
        },
        {
            "constant": false,
            "inputs": [
                {
                    "internalType": "bytes32",
                    "name": "_option",
                    "type": "bytes32"
                },
                {
                    "internalType": "address",
                    "name": "_voter",
                    "type": "address"
                }
            ],
            "name": "vote",
            "outputs": [],
            "payable": false,
            "stateMutability": "nonpayable",
            "type": "function"
        },
        {
            "constant": true,
            "inputs": [
                {
                    "internalType": "bytes32",
                    "name": "",
                    "type": "bytes32"
                }
            ],
            "name": "voteCounts",
            "outputs": [
                {
                    "internalType": "uint256",
                    "name": "",
                    "type": "uint256"
                }
            ],
            "payable": false,
            "stateMutability": "view",
            "type": "function"
        }
    ],
    "bytecode": "60806040523480156200001157600080fd5b506040516200109038038062001090833981810160405260408110156200003757600080fd5b81019080805160405193929190846401000000008211156200005857600080fd5b9083019060208201858111156200006e57600080fd5b82516401000000008111828201881017156200008957600080fd5b82525081516020918201929091019080838360005b83811015620000b85781810151838201526020016200009e565b50505050905090810190601f168015620000e65780820380516001836020036101000a031916815260200191505b50604052602001805160405193929190846401000000008211156200010a57600080fd5b9083019060208201858111156200012057600080fd5b82518660208202830111640100000000821117156200013e57600080fd5b82525081516020918201928201910280838360005b838110156200016d57818101518382015260200162000153565b50505050919091016040819052600080546001600160a01b03191633178082556001600160a01b0316955093507f8be0079c531659141344cd1fd0a4f28419497f9722a3daafe3b4186f6b6457e09250839150a36000815111620001d057600080fd5b8151620001e590600390602085019062000263565b5060005b81518110156200025a5760048282815181106200020257fe5b6020908102919091018101518254600181018455600093845291832090910155825160059082908590859081106200023657fe5b602090810291909101810151825281019190915260400160002055600101620001e9565b50505062000308565b828054600181600116156101000203166002900490600052602060002090601f016020900481019282601f10620002a657805160ff1916838001178555620002d6565b82800160010185558215620002d6579182015b82811115620002d6578251825591602001919060010190620002b9565b50620002e4929150620002e8565b5090565b6200030591905b80821115620002e45760008155600101620002ef565b90565b610d7880620003186000396000f3fe6080604052600436106101355760003560e01c80638da5cb5b116100ab578063df1edbe81161006f578063df1edbe81461049c578063e1aa071c146104c2578063e23a845a146104d7578063ed8c2aed146104ec578063f0490b8a14610501578063f2fde38b1461053457610135565b80638da5cb5b146103945780638f32d59b146103c5578063b31e1d4d146103da578063c0cc365d1461040d578063cc2ee1961461043757610135565b806357de26a4116100fd57806357de26a414610291578063597e1fb5146102d0578063715018a6146102e557806374478bb3146102fa57806381d0e37b146103315780638d8afd3d1461035b57610135565b806306fdde031461013a57806310a8aecd146101c45780632ea664011461020b578063409e2205146102405780634e71d92d1461027c575b600080fd5b34801561014657600080fd5b5061014f610567565b6040805160208082528351818301528351919283929083019185019080838360005b83811015610189578181015183820152602001610171565b50505050905090810190601f1680156101b65780820380516001836020036101000a031916815260200191505b509250505060405180910390f35b3480156101d057600080fd5b506101f7600480360360208110156101e757600080fd5b50356001600160a01b03166105f5565b604080519115158252519081900360200190f35b34801561021757600080fd5b5061023e6004803603602081101561022e57600080fd5b50356001600160a01b0316610613565b005b34801561024c57600080fd5b5061026a6004803603602081101561026357600080fd5b5035610699565b60408051918252519081900360200190f35b34801561028857600080fd5b5061023e6106b7565b34801561029d57600080fd5b506102a66106f4565b604080516001600160a01b0390941684526020840192909252151582820152519081900360600190f35b3480156102dc57600080fd5b506101f7610718565b3480156102f157600080fd5b5061023e610721565b34801561030657600080fd5b5061030f61077c565b6040805193151584529115156020840152151582820152519081900360600190f35b34801561033d57600080fd5b5061026a6004803603602081101561035457600080fd5b50356107a3565b34801561036757600080fd5b5061023e6004803603604081101561037e57600080fd5b50803590602001356001600160a01b03166107b5565b3480156103a057600080fd5b506103a96108a3565b604080516001600160a01b039092168252519081900360200190f35b3480156103d157600080fd5b506101f76108b2565b3480156103e657600080fd5b5061023e600480360360208110156103fd57600080fd5b50356001600160a01b03166108c3565b34801561041957600080fd5b5061023e6004803603602081101561043057600080fd5b50356109bd565b34801561044357600080fd5b5061044c610a15565b60408051602080825283518183015283519192839290830191858101910280838360005b83811015610488578181015183820152602001610470565b505050509050019250505060405180910390f35b61023e600480360360208110156104b257600080fd5b50356001600160a01b0316610a6d565b3480156104ce57600080fd5b5061026a610bcc565b3480156104e357600080fd5b5061026a610bd0565b3480156104f857600080fd5b5061023e610bd6565b34801561050d57600080fd5b5061023e6004803603602081101561052457600080fd5b50356001600160a01b0316610c39565b34801561054057600080fd5b5061023e6004803603602081101561055757600080fd5b50356001600160a01b0316610cb8565b6003805460408051602060026001851615610100026000190190941693909304601f810184900484028201840190925281815292918301828280156105ed5780601f106105c2576101008083540402835291602001916105ed565b820191906000526020600020905b8154815290600101906020018083116105d057829003601f168201915b505050505081565b6001600160a01b031660009081526001602052604090205460ff1690565b61061b6108b2565b61062457600080fd5b6001600160a01b03811660009081526001602052604090205460ff161561064a57600080fd5b6001600160a01b0381166000818152600160208190526040808320805460ff1916909217909155517fff9a8f4e0a39755c20c899b46171e470382709479fce2aa1e388f95edfe017399190a250565b600481815481106106a657fe5b600091825260209091200154905081565b6106c0336105f5565b6106c957600080fd5b60025442116106d757600080fd5b6106df6108b2565b156106e957600080fd5b6106f233610cd5565b565b60008060006107016108a3565b60025461070d336105f5565b925092509250909192565b60075460ff1681565b6107296108b2565b61073257600080fd5b600080546040516001600160a01b03909116907f8be0079c531659141344cd1fd0a4f28419497f9722a3daafe3b4186f6b6457e0908390a3600080546001600160a01b0319169055565b600080600061078a336105f5565b60025442116107976108b2565b15925092509250909192565b60056020526000908152604090205481565b6001600160a01b038116600090815260066020526040902054819060ff16156107dd57600080fd5b6001600160a01b0380831660009081526006602052604090206002015483911615801561081257506001600160a01b03811633145b8061083957506001600160a01b038181166000908152600660205260409020600201541633145b61084257600080fd5b60075460ff161561085257600080fd5b600084815260056020908152604091829020805460010190558151868152915133927fc0f8946b28ac7993b4dd24b05482b70709d3394c92247236929d86a50b24d0ab92908290030190a250505050565b6000546001600160a01b031690565b6000546001600160a01b0316331490565b3360008181526006602052604090205460ff16156108e057600080fd5b336000818152600660205260409020600201546001600160a01b031615801561091157506001600160a01b03811633145b8061093857506001600160a01b038181166000908152600660205260409020600201541633145b61094157600080fd5b60075460ff161561095157600080fd5b3360008181526006602090815260409182902060020180546001600160a01b0319166001600160a01b03881690811790915582519384529083015280517f3bc4f409beaf4fdda6a2d537717b5131aecea79aecfdd3d885488ddaa5a14c329281900390910190a1505050565b6109c56108b2565b6109ce57600080fd5b6002805490829055604080518281526020810184905281517f48bd2ad49200e0ca36b95736b1b720e3a4db1eb87715905a0242d11e90fcf176929181900390910190a15050565b60606004805480602002602001604051908101604052809291908181526020018280548015610a6357602002820191906000526020600020905b815481526020019060010190808311610a4f575b5050505050905090565b6001600160a01b038116600090815260066020526040902054819060ff1615610a9557600080fd5b6001600160a01b0382166000908152600660205260409020548290610100900460ff16610ac157600080fd5b60075460ff1615610ad157600080fd5b6001600160a01b0383166000908152600660205260409020600181015415610b6b576001810154340360018201546040516001600160a01b0387169180156108fc02916000818181858888f19350505050158015610b33573d6000803e3d6000fd5b508015610b6957604051339082156108fc029083906000818181858888f19350505050158015610b67573d6000803e3d6000fd5b505b505b6002810180546001600160a01b03191633908117909155604080516001600160a01b0387168152602081019290925280517f3bc4f409beaf4fdda6a2d537717b5131aecea79aecfdd3d885488ddaa5a14c329281900390910190a150505050565b4290565b60025490565b60075460ff1615610be657600080fd5b610bee6108b2565b610bf757600080fd5b6007805460ff191660011790556040805130815290517f231ba46a9796cfff3206eb206f870c5e4f68248af093e30cf9e3dd48857a6e669181900360200190a1565b610c416108b2565b610c4a57600080fd5b6001600160a01b03811660009081526001602052604090205460ff16610c6f57600080fd5b6001600160a01b038116600081815260016020526040808220805460ff19169055517f30acaa541089592567cd4ce36437c68778a43e66dc1a9e7031e4496faf4593259190a250565b610cc06108b2565b610cc957600080fd5b610cd281610cd5565b50565b6001600160a01b038116610ce857600080fd5b600080546040516001600160a01b03808516939216917f8be0079c531659141344cd1fd0a4f28419497f9722a3daafe3b4186f6b6457e091a3600080546001600160a01b0319166001600160a01b039290921691909117905556fea265627a7a72315820592287c33aa2e674be0dc1f8dd6e20a7a85d4969ab0218d2fc584bc1e716452664736f6c63430005100032",
    "sourcePath": "c:/Users/Guilherme Mussi/git/solidity-voting/contracts/Poll.sol",
    "compiler": {
        "name": "solc",
        "version": "0.5.16+commit.9c3226ce"
    },
    "functionHashes": {
        "addClaimer(address)": "2ea66401",
        "buysVote(address)": "df1edbe8",
        "claim()": "4e71d92d",
        "closePoll()": "ed8c2aed",
        "closed()": "597e1fb5",
        "debugnow()": "e1aa071c",
        "delegateVote(address)": "b31e1d4d",
        "getExpirationTime()": "e23a845a",
        "getOptions()": "cc2ee196",
        "isClaimable()": "74478bb3",
        "isClaimer(address)": "10a8aecd",
        "isOwner()": "8f32d59b",
        "name()": "06fdde03",
        "options(uint256)": "409e2205",
        "owner()": "8da5cb5b",
        "read()": "57de26a4",
        "removeClaimer(address)": "f0490b8a",
        "renounceOwnership()": "715018a6",
        "setExpirationTime(uint256)": "c0cc365d",
        "transferOwnership(address)": "f2fde38b",
        "vote(bytes32,address)": "8d8afd3d",
        "voteCounts(bytes32)": "81d0e37b"
    },
    "gasEstimates": {
        "creation": {
            "codeDepositCost": "689600",
            "executionCost": "infinite",
            "totalCost": "infinite"
        },
        "external": {
            "addClaimer(address)": "24117",
            "buysVote(address)": "infinite",
            "claim()": "26168",
            "closePoll()": "23808",
            "closed()": "1055",
            "debugnow()": "241",
            "delegateVote(address)": "26135",
            "getExpirationTime()": "1064",
            "getOptions()": "infinite",
            "isClaimable()": "2951",
            "isClaimer(address)": "1200",
            "isOwner()": "1072",
            "name()": "infinite",
            "options(uint256)": "2021",
            "owner()": "1060",
            "read()": "2887",
            "removeClaimer(address)": "24138",
            "renounceOwnership()": "24259",
            "setExpirationTime(uint256)": "23304",
            "transferOwnership(address)": "24490",
            "vote(bytes32,address)": "26334",
            "voteCounts(bytes32)": "1217"
        }
    }
}