{
    "contractName": "Poll",
    "abi": [
        {
            "inputs": [
                {
                    "internalType": "string",
                    "name": "_name",
                    "type": "string"
                },
                {
                    "internalType": "bytes32[]",
                    "name": "_options",
                    "type": "bytes32[]"
                }
            ],
            "payable": false,
            "stateMutability": "nonpayable",
            "type": "constructor"
        },
        {
            "anonymous": false,
            "inputs": [
                {
                    "indexed": true,
                    "internalType": "address",
                    "name": "claimer",
                    "type": "address"
                }
            ],
            "name": "ClaimerAdded",
            "type": "event"
        },
        {
            "anonymous": false,
            "inputs": [
                {
                    "indexed": true,
                    "internalType": "address",
                    "name": "claimer",
                    "type": "address"
                }
            ],
            "name": "ClaimerRemoved",
            "type": "event"
        },
        {
            "anonymous": false,
            "inputs": [
                {
                    "indexed": false,
                    "internalType": "uint256",
                    "name": "oldExpiration",
                    "type": "uint256"
                },
                {
                    "indexed": false,
                    "internalType": "uint256",
                    "name": "newExpiration",
                    "type": "uint256"
                }
            ],
            "name": "ExpirationUpdated",
            "type": "event"
        },
        {
            "anonymous": false,
            "inputs": [
                {
                    "indexed": false,
                    "internalType": "bytes32",
                    "name": "option",
                    "type": "bytes32"
                },
                {
                    "indexed": true,
                    "internalType": "address",
                    "name": "voter",
                    "type": "address"
                }
            ],
            "name": "NewVote",
            "type": "event"
        },
        {
            "anonymous": false,
            "inputs": [
                {
                    "indexed": true,
                    "internalType": "address",
                    "name": "previousOwner",
                    "type": "address"
                },
                {
                    "indexed": true,
                    "internalType": "address",
                    "name": "newOwner",
                    "type": "address"
                }
            ],
            "name": "OwnershipTransferred",
            "type": "event"
        },
        {
            "anonymous": false,
            "inputs": [
                {
                    "indexed": false,
                    "internalType": "address",
                    "name": "pollAddr",
                    "type": "address"
                }
            ],
            "name": "PollClosed",
            "type": "event"
        },
        {
            "anonymous": false,
            "inputs": [
                {
                    "indexed": false,
                    "internalType": "address",
                    "name": "seller",
                    "type": "address"
                },
                {
                    "indexed": false,
                    "internalType": "uint256",
                    "name": "price",
                    "type": "uint256"
                }
            ],
            "name": "VoteForSale",
            "type": "event"
        },
        {
            "anonymous": false,
            "inputs": [
                {
                    "indexed": false,
                    "internalType": "address",
                    "name": "seller",
                    "type": "address"
                },
                {
                    "indexed": false,
                    "internalType": "address",
                    "name": "buyer",
                    "type": "address"
                }
            ],
            "name": "VoteOwnershipChanged",
            "type": "event"
        },
        {
            "constant": false,
            "inputs": [
                {
                    "internalType": "address",
                    "name": "_claimer",
                    "type": "address"
                }
            ],
            "name": "addClaimer",
            "outputs": [],
            "payable": false,
            "stateMutability": "nonpayable",
            "type": "function"
        },
        {
            "constant": false,
            "inputs": [
                {
                    "internalType": "address payable",
                    "name": "_voteAddr",
                    "type": "address"
                }
            ],
            "name": "buysVote",
            "outputs": [],
            "payable": true,
            "stateMutability": "payable",
            "type": "function"
        },
        {
            "constant": false,
            "inputs": [],
            "name": "claim",
            "outputs": [],
            "payable": false,
            "stateMutability": "nonpayable",
            "type": "function"
        },
        {
            "constant": false,
            "inputs": [],
            "name": "closePoll",
            "outputs": [],
            "payable": false,
            "stateMutability": "nonpayable",
            "type": "function"
        },
        {
            "constant": true,
            "inputs": [],
            "name": "closed",
            "outputs": [
                {
                    "internalType": "bool",
                    "name": "",
                    "type": "bool"
                }
            ],
            "payable": false,
            "stateMutability": "view",
            "type": "function"
        },
        {
            "constant": true,
            "inputs": [],
            "name": "debugnow",
            "outputs": [
                {
                    "internalType": "uint256",
                    "name": "",
                    "type": "uint256"
                }
            ],
            "payable": false,
            "stateMutability": "view",
            "type": "function"
        },
        {
            "constant": false,
            "inputs": [
                {
                    "internalType": "address",
                    "name": "_voter",
                    "type": "address"
                },
                {
                    "internalType": "address payable",
                    "name": "_newOwner",
                    "type": "address"
                }
            ],
            "name": "delegateVote",
            "outputs": [],
            "payable": false,
            "stateMutability": "nonpayable",
            "type": "function"
        },
        {
            "constant": true,
            "inputs": [],
            "name": "getExpirationTime",
            "outputs": [
                {
                    "internalType": "uint256",
                    "name": "",
                    "type": "uint256"
                }
            ],
            "payable": false,
            "stateMutability": "view",
            "type": "function"
        },
        {
            "constant": true,
            "inputs": [],
            "name": "getOptions",
            "outputs": [
                {
                    "internalType": "bytes32[]",
                    "name": "",
                    "type": "bytes32[]"
                }
            ],
            "payable": false,
            "stateMutability": "view",
            "type": "function"
        },
        {
            "constant": true,
            "inputs": [
                {
                    "internalType": "address",
                    "name": "_voter",
                    "type": "address"
                }
            ],
            "name": "getVote",
            "outputs": [
                {
                    "internalType": "bool",
                    "name": "",
                    "type": "bool"
                },
                {
                    "internalType": "bool",
                    "name": "",
                    "type": "bool"
                },
                {
                    "internalType": "uint256",
                    "name": "",
                    "type": "uint256"
                },
                {
                    "internalType": "address",
                    "name": "",
                    "type": "address"
                }
            ],
            "payable": false,
            "stateMutability": "view",
            "type": "function"
        },
        {
            "constant": true,
            "inputs": [],
            "name": "getVoteCount",
            "outputs": [
                {
                    "internalType": "uint256[]",
                    "name": "",
                    "type": "uint256[]"
                }
            ],
            "payable": false,
            "stateMutability": "view",
            "type": "function"
        },
        {
            "constant": true,
            "inputs": [],
            "name": "isClaimable",
            "outputs": [
                {
                    "internalType": "bool",
                    "name": "",
                    "type": "bool"
                },
                {
                    "internalType": "bool",
                    "name": "",
                    "type": "bool"
                },
                {
                    "internalType": "bool",
                    "name": "",
                    "type": "bool"
                }
            ],
            "payable": false,
            "stateMutability": "view",
            "type": "function"
        },
        {
            "constant": true,
            "inputs": [
                {
                    "internalType": "address",
                    "name": "_claimer",
                    "type": "address"
                }
            ],
            "name": "isClaimer",
            "outputs": [
                {
                    "internalType": "bool",
                    "name": "",
                    "type": "bool"
                }
            ],
            "payable": false,
            "stateMutability": "view",
            "type": "function"
        },
        {
            "constant": true,
            "inputs": [],
            "name": "isOwner",
            "outputs": [
                {
                    "internalType": "bool",
                    "name": "",
                    "type": "bool"
                }
            ],
            "payable": false,
            "stateMutability": "view",
            "type": "function"
        },
        {
            "constant": true,
            "inputs": [],
            "name": "name",
            "outputs": [
                {
                    "internalType": "string",
                    "name": "",
                    "type": "string"
                }
            ],
            "payable": false,
            "stateMutability": "view",
            "type": "function"
        },
        {
            "constant": true,
            "inputs": [
                {
                    "internalType": "uint256",
                    "name": "",
                    "type": "uint256"
                }
            ],
            "name": "options",
            "outputs": [
                {
                    "internalType": "bytes32",
                    "name": "",
                    "type": "bytes32"
                }
            ],
            "payable": false,
            "stateMutability": "view",
            "type": "function"
        },
        {
            "constant": true,
            "inputs": [],
            "name": "owner",
            "outputs": [
                {
                    "internalType": "address",
                    "name": "",
                    "type": "address"
                }
            ],
            "payable": false,
            "stateMutability": "view",
            "type": "function"
        },
        {
            "constant": true,
            "inputs": [],
            "name": "read",
            "outputs": [
                {
                    "internalType": "address",
                    "name": "",
                    "type": "address"
                },
                {
                    "internalType": "uint256",
                    "name": "",
                    "type": "uint256"
                },
                {
                    "internalType": "bool",
                    "name": "",
                    "type": "bool"
                }
            ],
            "payable": false,
            "stateMutability": "view",
            "type": "function"
        },
        {
            "constant": false,
            "inputs": [
                {
                    "internalType": "address",
                    "name": "_claimer",
                    "type": "address"
                }
            ],
            "name": "removeClaimer",
            "outputs": [],
            "payable": false,
            "stateMutability": "nonpayable",
            "type": "function"
        },
        {
            "constant": false,
            "inputs": [],
            "name": "renounceOwnership",
            "outputs": [],
            "payable": false,
            "stateMutability": "nonpayable",
            "type": "function"
        },
        {
            "constant": false,
            "inputs": [
                {
                    "internalType": "address",
                    "name": "_voteAddr",
                    "type": "address"
                },
                {
                    "internalType": "uint256",
                    "name": "price",
                    "type": "uint256"
                }
            ],
            "name": "sellVote",
            "outputs": [],
            "payable": false,
            "stateMutability": "nonpayable",
            "type": "function"
        },
        {
            "constant": false,
            "inputs": [
                {
                    "internalType": "uint256",
                    "name": "_expirationTime",
                    "type": "uint256"
                }
            ],
            "name": "setExpirationTime",
            "outputs": [],
            "payable": false,
            "stateMutability": "nonpayable",
            "type": "function"
        },
        {
            "constant": false,
            "inputs": [
                {
                    "internalType": "address",
                    "name": "newOwner",
                    "type": "address"
                }
            ],
            "name": "transferOwnership",
            "outputs": [],
            "payable": false,
            "stateMutability": "nonpayable",
            "type": "function"
        },
        {
            "constant": false,
            "inputs": [
                {
                    "internalType": "uint256",
                    "name": "_optionIndex",
                    "type": "uint256"
                },
                {
                    "internalType": "address",
                    "name": "_voter",
                    "type": "address"
                }
            ],
            "name": "vote",
            "outputs": [],
            "payable": false,
            "stateMutability": "nonpayable",
            "type": "function"
        },
        {
            "constant": true,
            "inputs": [
                {
                    "internalType": "uint256",
                    "name": "",
                    "type": "uint256"
                }
            ],
            "name": "voteCounts",
            "outputs": [
                {
                    "internalType": "uint256",
                    "name": "",
                    "type": "uint256"
                }
            ],
            "payable": false,
            "stateMutability": "view",
            "type": "function"
        }
    ],
    "bytecode": "60806040523480156200001157600080fd5b506040516200141c3803806200141c833981810160405260408110156200003757600080fd5b81019080805160405193929190846401000000008211156200005857600080fd5b9083019060208201858111156200006e57600080fd5b82516401000000008111828201881017156200008957600080fd5b82525081516020918201929091019080838360005b83811015620000b85781810151838201526020016200009e565b50505050905090810190601f168015620000e65780820380516001836020036101000a031916815260200191505b50604052602001805160405193929190846401000000008211156200010a57600080fd5b9083019060208201858111156200012057600080fd5b82518660208202830111640100000000821117156200013e57600080fd5b82525081516020918201928201910280838360005b838110156200016d57818101518382015260200162000153565b50505050919091016040819052600080546001600160a01b03191633178082556001600160a01b0316955093507f8be0079c531659141344cd1fd0a4f28419497f9722a3daafe3b4186f6b6457e09250839150a36000815111620001d057600080fd5b8151620001e590600390602085019062000263565b5060005b81518110156200025a5760048282815181106200020257fe5b602090810291909101810151825460018181018555600094855292842001556005805480830182559083527f036b6384b5eca791c62761152d0c79bb0604c104a5fb6f4eb0703f3154bb3db0019190915501620001e9565b50505062000308565b828054600181600116156101000203166002900490600052602060002090601f016020900481019282601f10620002a657805160ff1916838001178555620002d6565b82800160010185558215620002d6579182015b82811115620002d6578251825591602001919060010190620002b9565b50620002e4929150620002e8565b5090565b6200030591905b80821115620002e45760008155600101620002ef565b90565b61110480620003186000396000f3fe6080604052600436106101665760003560e01c80638d337b81116100d1578063e1aa071c1161008a578063e7b3387c11610064578063e7b3387c146105c2578063ed8c2aed146105d7578063f0490b8a146105ec578063f2fde38b1461061f57610166565b8063e1aa071c1461055d578063e23a845a14610572578063e5ed5b1e1461058757610166565b80638d337b81146103fe5780638da5cb5b146104625780638f32d59b14610493578063c0cc365d146104a8578063cc2ee196146104d2578063df1edbe81461053757610166565b80634e71d92d116101235780634e71d92d1461031057806357de26a414610325578063597e1fb514610364578063709c927614610379578063715018a6146103b257806374478bb3146103c757610166565b806302d947ef1461016b57806306fdde03146101a657806310a8aecd146102305780632ea66401146102775780633c3a220d146102aa578063409e2205146102e6575b600080fd5b34801561017757600080fd5b506101a46004803603604081101561018e57600080fd5b50803590602001356001600160a01b0316610652565b005b3480156101b257600080fd5b506101bb61078c565b6040805160208082528351818301528351919283929083019185019080838360005b838110156101f55781810151838201526020016101dd565b50505050905090810190601f1680156102225780820380516001836020036101000a031916815260200191505b509250505060405180910390f35b34801561023c57600080fd5b506102636004803603602081101561025357600080fd5b50356001600160a01b031661081a565b604080519115158252519081900360200190f35b34801561028357600080fd5b506101a46004803603602081101561029a57600080fd5b50356001600160a01b0316610838565b3480156102b657600080fd5b506102d4600480360360208110156102cd57600080fd5b50356108be565b60408051918252519081900360200190f35b3480156102f257600080fd5b506102d46004803603602081101561030957600080fd5b50356108dc565b34801561031c57600080fd5b506101a46108e9565b34801561033157600080fd5b5061033a610926565b604080516001600160a01b0390941684526020840192909252151582820152519081900360600190f35b34801561037057600080fd5b5061026361094a565b34801561038557600080fd5b506101a46004803603604081101561039c57600080fd5b506001600160a01b038135169060200135610953565b3480156103be57600080fd5b506101a4610ab4565b3480156103d357600080fd5b506103dc610b0f565b6040805193151584529115156020840152151582820152519081900360600190f35b34801561040a57600080fd5b506104316004803603602081101561042157600080fd5b50356001600160a01b0316610b36565b6040805194151585529215156020850152838301919091526001600160a01b03166060830152519081900360800190f35b34801561046e57600080fd5b50610477610b6e565b604080516001600160a01b039092168252519081900360200190f35b34801561049f57600080fd5b50610263610b7d565b3480156104b457600080fd5b506101a4600480360360208110156104cb57600080fd5b5035610b8e565b3480156104de57600080fd5b506104e7610be6565b60408051602080825283518183015283519192839290830191858101910280838360005b8381101561052357818101518382015260200161050b565b505050509050019250505060405180910390f35b6101a46004803603602081101561054d57600080fd5b50356001600160a01b0316610c3e565b34801561056957600080fd5b506102d4610df3565b34801561057e57600080fd5b506102d4610df7565b34801561059357600080fd5b506101a4600480360360408110156105aa57600080fd5b506001600160a01b0381358116916020013516610dfd565b3480156105ce57600080fd5b506104e7610f0c565b3480156105e357600080fd5b506101a4610f62565b3480156105f857600080fd5b506101a46004803603602081101561060f57600080fd5b50356001600160a01b0316610fc5565b34801561062b57600080fd5b506101a46004803603602081101561064257600080fd5b50356001600160a01b0316611044565b6001600160a01b038116600090815260066020526040902054819060ff161561067a57600080fd5b6001600160a01b038083166000908152600660205260409020600201548391161580156106af57506001600160a01b03811633145b806106d657506001600160a01b038181166000908152600660205260409020600201541633145b6106df57600080fd5b60075460ff16156106ef57600080fd5b600584815481106106fc57fe5b60009182526020808320909101805460019081019091556001600160a01b038616835260069091526040909120805460ff191690911790556004805433917fc0f8946b28ac7993b4dd24b05482b70709d3394c92247236929d86a50b24d0ab918790811061076657fe5b90600052602060002001546040518082815260200191505060405180910390a250505050565b6003805460408051602060026001851615610100026000190190941693909304601f810184900484028201840190925281815292918301828280156108125780601f106107e757610100808354040283529160200191610812565b820191906000526020600020905b8154815290600101906020018083116107f557829003601f168201915b505050505081565b6001600160a01b031660009081526001602052604090205460ff1690565b610840610b7d565b61084957600080fd5b6001600160a01b03811660009081526001602052604090205460ff161561086f57600080fd5b6001600160a01b0381166000818152600160208190526040808320805460ff1916909217909155517fff9a8f4e0a39755c20c899b46171e470382709479fce2aa1e388f95edfe017399190a250565b600581815481106108cb57fe5b600091825260209091200154905081565b600481815481106108cb57fe5b6108f23361081a565b6108fb57600080fd5b600254421161090957600080fd5b610911610b7d565b1561091b57600080fd5b61092433611061565b565b6000806000610933610b6e565b60025461093f3361081a565b925092509250909192565b60075460ff1681565b6001600160a01b038216600090815260066020526040902054829060ff161561097b57600080fd5b6001600160a01b038084166000908152600660205260409020600201548491161580156109b057506001600160a01b03811633145b806109d757506001600160a01b038181166000908152600660205260409020600201541633145b6109e057600080fd5b60075460ff16156109f057600080fd5b60008311610a45576040805162461bcd60e51b815260206004820152601b60248201527f5072696365206d75737420626520686967686572207468616e20300000000000604482015290519081900360640190fd5b6001600160a01b03841660008181526006602090815260409182902060018101879055805461ff0019166101001781558251938452908301869052815190927f68a2e03410e90f36e390d071d135e4acd2e4e0279eb70c9aa5d62d4115b7223892908290030190a15050505050565b610abc610b7d565b610ac557600080fd5b600080546040516001600160a01b03909116907f8be0079c531659141344cd1fd0a4f28419497f9722a3daafe3b4186f6b6457e0908390a3600080546001600160a01b0319169055565b6000806000610b1d3361081a565b6002544211610b2a610b7d565b15925092509250909192565b6001600160a01b0390811660009081526006602052604090208054600182015460029092015460ff8083169561010090930416931690565b6000546001600160a01b031690565b6000546001600160a01b0316331490565b610b96610b7d565b610b9f57600080fd5b6002805490829055604080518281526020810184905281517f48bd2ad49200e0ca36b95736b1b720e3a4db1eb87715905a0242d11e90fcf176929181900390910190a15050565b60606004805480602002602001604051908101604052809291908181526020018280548015610c3457602002820191906000526020600020905b815481526020019060010190808311610c20575b5050505050905090565b6001600160a01b038116600090815260066020526040902054819060ff1615610c6657600080fd5b6001600160a01b0382166000908152600660205260409020548290610100900460ff16610c9257600080fd5b60075460ff1615610ca257600080fd5b6001600160a01b03831660009081526006602052604090206001810154341015610d13576040805162461bcd60e51b815260206004820152601c60248201527f4e6f7420656e6f7567682066756e6473207472616e7366657272656400000000604482015290519081900360640190fd5b600181015460405134829003916001600160a01b0387169181156108fc0291906000818181858888f19350505050158015610d52573d6000803e3d6000fd5b508015610d8857604051339082156108fc029083906000818181858888f19350505050158015610d86573d6000803e3d6000fd5b505b815461ff00191682556002820180546001600160a01b03191633908117909155604080516001600160a01b0388168152602081019290925280517f3bc4f409beaf4fdda6a2d537717b5131aecea79aecfdd3d885488ddaa5a14c329281900390910190a15050505050565b4290565b60025490565b6001600160a01b038216600090815260066020526040902054829060ff1615610e2557600080fd5b6001600160a01b03808416600090815260066020526040902060020154849116158015610e5a57506001600160a01b03811633145b80610e8157506001600160a01b038181166000908152600660205260409020600201541633145b610e8a57600080fd5b60075460ff1615610e9a57600080fd5b6001600160a01b0384811660008181526006602090815260409182902060020180546001600160a01b0319169488169485179055815192835282019290925281517f3bc4f409beaf4fdda6a2d537717b5131aecea79aecfdd3d885488ddaa5a14c32929181900390910190a150505050565b60606005805480602002602001604051908101604052809291908181526020018280548015610c345760200282019190600052602060002090815481526020019060010190808311610c20575050505050905090565b60075460ff1615610f7257600080fd5b610f7a610b7d565b610f8357600080fd5b6007805460ff191660011790556040805130815290517f231ba46a9796cfff3206eb206f870c5e4f68248af093e30cf9e3dd48857a6e669181900360200190a1565b610fcd610b7d565b610fd657600080fd5b6001600160a01b03811660009081526001602052604090205460ff16610ffb57600080fd5b6001600160a01b038116600081815260016020526040808220805460ff19169055517f30acaa541089592567cd4ce36437c68778a43e66dc1a9e7031e4496faf4593259190a250565b61104c610b7d565b61105557600080fd5b61105e81611061565b50565b6001600160a01b03811661107457600080fd5b600080546040516001600160a01b03808516939216917f8be0079c531659141344cd1fd0a4f28419497f9722a3daafe3b4186f6b6457e091a3600080546001600160a01b0319166001600160a01b039290921691909117905556fea265627a7a723158205ddf218bad2eea7debcaef8407c411c227fa8e3056d472e5959ee2d363e64a6964736f6c63430005100032",
    "sourcePath": "c:/Users/Guilherme Mussi/git/solidity-voting/contracts/Poll.sol",
    "compiler": {
        "name": "solc",
        "version": "0.5.16+commit.9c3226ce"
    },
    "functionHashes": {
        "addClaimer(address)": "2ea66401",
        "buysVote(address)": "df1edbe8",
        "claim()": "4e71d92d",
        "closePoll()": "ed8c2aed",
        "closed()": "597e1fb5",
        "debugnow()": "e1aa071c",
        "delegateVote(address,address)": "e5ed5b1e",
        "getExpirationTime()": "e23a845a",
        "getOptions()": "cc2ee196",
        "getVote(address)": "8d337b81",
        "getVoteCount()": "e7b3387c",
        "isClaimable()": "74478bb3",
        "isClaimer(address)": "10a8aecd",
        "isOwner()": "8f32d59b",
        "name()": "06fdde03",
        "options(uint256)": "409e2205",
        "owner()": "8da5cb5b",
        "read()": "57de26a4",
        "removeClaimer(address)": "f0490b8a",
        "renounceOwnership()": "715018a6",
        "sellVote(address,uint256)": "709c9276",
        "setExpirationTime(uint256)": "c0cc365d",
        "transferOwnership(address)": "f2fde38b",
        "vote(uint256,address)": "02d947ef",
        "voteCounts(uint256)": "3c3a220d"
    },
    "gasEstimates": {
        "creation": {
            "codeDepositCost": "871200",
            "executionCost": "infinite",
            "totalCost": "infinite"
        },
        "external": {
            "addClaimer(address)": "24139",
            "buysVote(address)": "infinite",
            "claim()": "26079",
            "closePoll()": "23786",
            "closed()": "1077",
            "debugnow()": "242",
            "delegateVote(address,address)": "26262",
            "getExpirationTime()": "1065",
            "getOptions()": "infinite",
            "getVote(address)": "2920",
            "getVoteCount()": "infinite",
            "isClaimable()": "2995",
            "isClaimer(address)": "1222",
            "isOwner()": "1094",
            "name()": "infinite",
            "options(uint256)": "2065",
            "owner()": "1082",
            "read()": "2909",
            "removeClaimer(address)": "24116",
            "renounceOwnership()": "24303",
            "sellVote(address,uint256)": "46263",
            "setExpirationTime(uint256)": "23304",
            "transferOwnership(address)": "24468",
            "vote(uint256,address)": "49661",
            "voteCounts(uint256)": "2043"
        }
    }
}