{
    "contractName": "Poll",
    "abi": [
        {
            "inputs": [
                {
                    "internalType": "string",
                    "name": "_name",
                    "type": "string"
                },
                {
                    "internalType": "bytes32[]",
                    "name": "_options",
                    "type": "bytes32[]"
                }
            ],
            "stateMutability": "nonpayable",
            "type": "constructor"
        },
        {
            "anonymous": false,
            "inputs": [
                {
                    "indexed": true,
                    "internalType": "address",
                    "name": "claimer",
                    "type": "address"
                }
            ],
            "name": "ClaimerAdded",
            "type": "event"
        },
        {
            "anonymous": false,
            "inputs": [
                {
                    "indexed": true,
                    "internalType": "address",
                    "name": "claimer",
                    "type": "address"
                }
            ],
            "name": "ClaimerRemoved",
            "type": "event"
        },
        {
            "anonymous": false,
            "inputs": [
                {
                    "indexed": false,
                    "internalType": "uint256",
                    "name": "oldExpiration",
                    "type": "uint256"
                },
                {
                    "indexed": false,
                    "internalType": "uint256",
                    "name": "newExpiration",
                    "type": "uint256"
                }
            ],
            "name": "ExpirationUpdated",
            "type": "event"
        },
        {
            "anonymous": false,
            "inputs": [
                {
                    "indexed": false,
                    "internalType": "bytes32",
                    "name": "option",
                    "type": "bytes32"
                },
                {
                    "indexed": true,
                    "internalType": "address",
                    "name": "voter",
                    "type": "address"
                }
            ],
            "name": "NewVote",
            "type": "event"
        },
        {
            "anonymous": false,
            "inputs": [
                {
                    "indexed": true,
                    "internalType": "address",
                    "name": "previousOwner",
                    "type": "address"
                },
                {
                    "indexed": true,
                    "internalType": "address",
                    "name": "newOwner",
                    "type": "address"
                }
            ],
            "name": "OwnershipTransferred",
            "type": "event"
        },
        {
            "anonymous": false,
            "inputs": [
                {
                    "indexed": false,
                    "internalType": "address",
                    "name": "pollAddr",
                    "type": "address"
                }
            ],
            "name": "PollClosed",
            "type": "event"
        },
        {
            "anonymous": false,
            "inputs": [
                {
                    "indexed": false,
                    "internalType": "address",
                    "name": "voteAddr",
                    "type": "address"
                },
                {
                    "indexed": false,
                    "internalType": "uint256",
                    "name": "price",
                    "type": "uint256"
                }
            ],
            "name": "VoteForSale",
            "type": "event"
        },
        {
            "anonymous": false,
            "inputs": [
                {
                    "indexed": false,
                    "internalType": "address",
                    "name": "voteAddr",
                    "type": "address"
                }
            ],
            "name": "VoteNotForSale",
            "type": "event"
        },
        {
            "anonymous": false,
            "inputs": [
                {
                    "indexed": false,
                    "internalType": "address",
                    "name": "voteAddr",
                    "type": "address"
                },
                {
                    "indexed": false,
                    "internalType": "address",
                    "name": "buyer",
                    "type": "address"
                }
            ],
            "name": "VoteOwnershipChanged",
            "type": "event"
        },
        {
            "inputs": [
                {
                    "internalType": "address",
                    "name": "_claimer",
                    "type": "address"
                }
            ],
            "name": "addClaimer",
            "outputs": [],
            "stateMutability": "nonpayable",
            "type": "function"
        },
        {
            "inputs": [
                {
                    "internalType": "address payable",
                    "name": "_voteAddr",
                    "type": "address"
                }
            ],
            "name": "buysVote",
            "outputs": [],
            "stateMutability": "payable",
            "type": "function"
        },
        {
            "inputs": [],
            "name": "claim",
            "outputs": [],
            "stateMutability": "nonpayable",
            "type": "function"
        },
        {
            "inputs": [],
            "name": "closePoll",
            "outputs": [],
            "stateMutability": "nonpayable",
            "type": "function"
        },
        {
            "inputs": [],
            "name": "closed",
            "outputs": [
                {
                    "internalType": "bool",
                    "name": "",
                    "type": "bool"
                }
            ],
            "stateMutability": "view",
            "type": "function"
        },
        {
            "inputs": [],
            "name": "debugnow",
            "outputs": [
                {
                    "internalType": "uint256",
                    "name": "",
                    "type": "uint256"
                }
            ],
            "stateMutability": "view",
            "type": "function"
        },
        {
            "inputs": [
                {
                    "internalType": "address",
                    "name": "_voter",
                    "type": "address"
                },
                {
                    "internalType": "address payable",
                    "name": "_newOwner",
                    "type": "address"
                }
            ],
            "name": "delegateVote",
            "outputs": [],
            "stateMutability": "nonpayable",
            "type": "function"
        },
        {
            "inputs": [],
            "name": "getExpirationTime",
            "outputs": [
                {
                    "internalType": "uint256",
                    "name": "",
                    "type": "uint256"
                }
            ],
            "stateMutability": "view",
            "type": "function"
        },
        {
            "inputs": [],
            "name": "getOptions",
            "outputs": [
                {
                    "internalType": "bytes32[]",
                    "name": "",
                    "type": "bytes32[]"
                }
            ],
            "stateMutability": "view",
            "type": "function"
        },
        {
            "inputs": [
                {
                    "internalType": "address",
                    "name": "_voter",
                    "type": "address"
                }
            ],
            "name": "getVote",
            "outputs": [
                {
                    "internalType": "bool",
                    "name": "",
                    "type": "bool"
                },
                {
                    "internalType": "bool",
                    "name": "",
                    "type": "bool"
                },
                {
                    "internalType": "uint256",
                    "name": "",
                    "type": "uint256"
                },
                {
                    "internalType": "address",
                    "name": "",
                    "type": "address"
                }
            ],
            "stateMutability": "view",
            "type": "function"
        },
        {
            "inputs": [],
            "name": "getVoteCount",
            "outputs": [
                {
                    "internalType": "uint256[]",
                    "name": "",
                    "type": "uint256[]"
                }
            ],
            "stateMutability": "view",
            "type": "function"
        },
        {
            "inputs": [],
            "name": "isClaimable",
            "outputs": [
                {
                    "internalType": "bool",
                    "name": "",
                    "type": "bool"
                },
                {
                    "internalType": "bool",
                    "name": "",
                    "type": "bool"
                },
                {
                    "internalType": "bool",
                    "name": "",
                    "type": "bool"
                }
            ],
            "stateMutability": "view",
            "type": "function"
        },
        {
            "inputs": [
                {
                    "internalType": "address",
                    "name": "_claimer",
                    "type": "address"
                }
            ],
            "name": "isClaimer",
            "outputs": [
                {
                    "internalType": "bool",
                    "name": "",
                    "type": "bool"
                }
            ],
            "stateMutability": "view",
            "type": "function"
        },
        {
            "inputs": [],
            "name": "isOwner",
            "outputs": [
                {
                    "internalType": "bool",
                    "name": "",
                    "type": "bool"
                }
            ],
            "stateMutability": "view",
            "type": "function"
        },
        {
            "inputs": [],
            "name": "name",
            "outputs": [
                {
                    "internalType": "string",
                    "name": "",
                    "type": "string"
                }
            ],
            "stateMutability": "view",
            "type": "function"
        },
        {
            "inputs": [
                {
                    "internalType": "uint256",
                    "name": "",
                    "type": "uint256"
                }
            ],
            "name": "options",
            "outputs": [
                {
                    "internalType": "bytes32",
                    "name": "",
                    "type": "bytes32"
                }
            ],
            "stateMutability": "view",
            "type": "function"
        },
        {
            "inputs": [],
            "name": "owner",
            "outputs": [
                {
                    "internalType": "address",
                    "name": "",
                    "type": "address"
                }
            ],
            "stateMutability": "view",
            "type": "function"
        },
        {
            "inputs": [],
            "name": "read",
            "outputs": [
                {
                    "internalType": "address",
                    "name": "",
                    "type": "address"
                },
                {
                    "internalType": "uint256",
                    "name": "",
                    "type": "uint256"
                },
                {
                    "internalType": "bool",
                    "name": "",
                    "type": "bool"
                }
            ],
            "stateMutability": "view",
            "type": "function"
        },
        {
            "inputs": [
                {
                    "internalType": "address",
                    "name": "_claimer",
                    "type": "address"
                }
            ],
            "name": "removeClaimer",
            "outputs": [],
            "stateMutability": "nonpayable",
            "type": "function"
        },
        {
            "inputs": [],
            "name": "renounceOwnership",
            "outputs": [],
            "stateMutability": "nonpayable",
            "type": "function"
        },
        {
            "inputs": [
                {
                    "internalType": "address",
                    "name": "_voteAddr",
                    "type": "address"
                },
                {
                    "internalType": "uint256",
                    "name": "price",
                    "type": "uint256"
                }
            ],
            "name": "sellVote",
            "outputs": [],
            "stateMutability": "nonpayable",
            "type": "function"
        },
        {
            "inputs": [
                {
                    "internalType": "uint256",
                    "name": "_expirationTime",
                    "type": "uint256"
                }
            ],
            "name": "setExpirationTime",
            "outputs": [],
            "stateMutability": "nonpayable",
            "type": "function"
        },
        {
            "inputs": [
                {
                    "internalType": "address",
                    "name": "_voteAddr",
                    "type": "address"
                }
            ],
            "name": "stopSelling",
            "outputs": [],
            "stateMutability": "nonpayable",
            "type": "function"
        },
        {
            "inputs": [
                {
                    "internalType": "address",
                    "name": "newOwner",
                    "type": "address"
                }
            ],
            "name": "transferOwnership",
            "outputs": [],
            "stateMutability": "nonpayable",
            "type": "function"
        },
        {
            "inputs": [
                {
                    "internalType": "uint256",
                    "name": "_optionIndex",
                    "type": "uint256"
                },
                {
                    "internalType": "address",
                    "name": "_voter",
                    "type": "address"
                }
            ],
            "name": "vote",
            "outputs": [],
            "stateMutability": "nonpayable",
            "type": "function"
        },
        {
            "inputs": [
                {
                    "internalType": "uint256",
                    "name": "",
                    "type": "uint256"
                }
            ],
            "name": "voteCounts",
            "outputs": [
                {
                    "internalType": "uint256",
                    "name": "",
                    "type": "uint256"
                }
            ],
            "stateMutability": "view",
            "type": "function"
        }
    ],
    "bytecode": "60806040523480156200001157600080fd5b50604051620017313803806200173183398101604081905262000034916200025b565b600080546001600160a01b0319163390811782556040519091907f8be0079c531659141344cd1fd0a4f28419497f9722a3daafe3b4186f6b6457e0908290a360008151116200008257600080fd5b81516200009790600390602085019062000127565b5060005b81518110156200011e576004828281518110620000bc57620000bc620003da565b6020908102919091018101518254600181810185556000948552928420015560058054918201815582527f036b6384b5eca791c62761152d0c79bb0604c104a5fb6f4eb0703f3154bb3db00155806200011581620003b0565b9150506200009b565b50505062000406565b828054620001359062000373565b90600052602060002090601f016020900481019282620001595760008555620001a4565b82601f106200017457805160ff1916838001178555620001a4565b82800160010185558215620001a4579182015b82811115620001a457825182559160200191906001019062000187565b50620001b2929150620001b6565b5090565b5b80821115620001b25760008155600101620001b7565b600082601f830112620001df57600080fd5b815160206001600160401b03821115620001fd57620001fd620003f0565b8160051b6200020e82820162000340565b8381528281019086840183880185018910156200022a57600080fd5b600093505b858410156200024f5780518352600193909301929184019184016200022f565b50979650505050505050565b600080604083850312156200026f57600080fd5b82516001600160401b03808211156200028757600080fd5b818501915085601f8301126200029c57600080fd5b815181811115620002b157620002b1620003f0565b6020620002c7601f8301601f1916820162000340565b8281528882848701011115620002dc57600080fd5b60005b83811015620002fc578581018301518282018401528201620002df565b838111156200030e5760008385840101525b5090870151909550925050808211156200032757600080fd5b506200033685828601620001cd565b9150509250929050565b604051601f8201601f191681016001600160401b03811182821017156200036b576200036b620003f0565b604052919050565b600181811c908216806200038857607f821691505b60208210811415620003aa57634e487b7160e01b600052602260045260246000fd5b50919050565b6000600019821415620003d357634e487b7160e01b600052601160045260246000fd5b5060010190565b634e487b7160e01b600052603260045260246000fd5b634e487b7160e01b600052604160045260246000fd5b61131b80620004166000396000f3fe6080604052600436106101815760003560e01c80638da5cb5b116100d1578063e1aa071c1161008a578063e7b3387c11610064578063e7b3387c146104e1578063ed8c2aed146104f6578063f0490b8a1461050b578063f2fde38b1461052b57600080fd5b8063e1aa071c14610499578063e23a845a146104ac578063e5ed5b1e146104c157600080fd5b80638da5cb5b146103dc5780638f32d59b14610404578063b4545a8714610424578063c0cc365d14610444578063cc2ee19614610464578063df1edbe81461048657600080fd5b80634e71d92d1161013e578063709c927611610118578063709c9276146102f5578063715018a61461031557806374478bb31461032a5780638d337b811461035e57600080fd5b80634e71d92d1461028a57806357de26a41461029f578063597e1fb5146102db57600080fd5b806302d947ef1461018657806306fdde03146101a857806310a8aecd146101d35780632ea664011461021c5780633c3a220d1461023c578063409e22051461026a575b600080fd5b34801561019257600080fd5b506101a66101a1366004611179565b61054b565b005b3480156101b457600080fd5b506101bd610699565b6040516101ca91906111e2565b60405180910390f35b3480156101df57600080fd5b5061020c6101ee3660046110d7565b6001600160a01b031660009081526001602052604090205460ff1690565b60405190151581526020016101ca565b34801561022857600080fd5b506101a66102373660046110d7565b610727565b34801561024857600080fd5b5061025c610257366004611160565b6107b3565b6040519081526020016101ca565b34801561027657600080fd5b5061025c610285366004611160565b6107d4565b34801561029657600080fd5b506101a66107e4565b3480156102ab57600080fd5b506102b4610831565b604080516001600160a01b03909416845260208401929092521515908201526060016101ca565b3480156102e757600080fd5b5060075461020c9060ff1681565b34801561030157600080fd5b506101a6610310366004611134565b610869565b34801561032157600080fd5b506101a66109ca565b34801561033657600080fd5b5061033f610a2b565b60408051931515845291151560208401521515908201526060016101ca565b34801561036a57600080fd5b506103b16103793660046110d7565b6001600160a01b0390811660009081526006602052604090208054600182015460029092015460ff8083169561010090930416931690565b6040805194151585529215156020850152918301526001600160a01b031660608201526080016101ca565b3480156103e857600080fd5b506000546040516001600160a01b0390911681526020016101ca565b34801561041057600080fd5b506000546001600160a01b0316331461020c565b34801561043057600080fd5b506101a661043f3660046110d7565b610a69565b34801561045057600080fd5b506101a661045f366004611160565b610b8c565b34801561047057600080fd5b50610479610be8565b6040516101ca919061119e565b6101a66104943660046110d7565b610c40565b3480156104a557600080fd5b504261025c565b3480156104b857600080fd5b5060025461025c565b3480156104cd57600080fd5b506101a66104dc3660046110fb565b610df5565b3480156104ed57600080fd5b50610479610f02565b34801561050257600080fd5b506101a6610f58565b34801561051757600080fd5b506101a66105263660046110d7565b610fc1565b34801561053757600080fd5b506101a66105463660046110d7565b611046565b6001600160a01b038116600090815260066020526040902054819060ff161561057357600080fd5b6001600160a01b038083166000908152600660205260409020600201548391161580156105a857506001600160a01b03811633145b806105cf57506001600160a01b038181166000908152600660205260409020600201541633145b6105d857600080fd5b60075460ff16156105e857600080fd5b600584815481106105fb576105fb6112ba565b6000918252602082200180549161061183611289565b90915550506001600160a01b0383166000908152600660205260409020805460ff191660011790556004805433917fc0f8946b28ac7993b4dd24b05482b70709d3394c92247236929d86a50b24d0ab9187908110610671576106716112ba565b906000526020600020015460405161068b91815260200190565b60405180910390a250505050565b600380546106a69061124e565b80601f01602080910402602001604051908101604052809291908181526020018280546106d29061124e565b801561071f5780601f106106f45761010080835404028352916020019161071f565b820191906000526020600020905b81548152906001019060200180831161070257829003601f168201915b505050505081565b6000546001600160a01b0316331461073e57600080fd5b6001600160a01b03811660009081526001602052604090205460ff161561076457600080fd5b6001600160a01b0381166000818152600160208190526040808320805460ff1916909217909155517fff9a8f4e0a39755c20c899b46171e470382709479fce2aa1e388f95edfe017399190a250565b600581815481106107c357600080fd5b600091825260209091200154905081565b600481815481106107c357600080fd5b3360009081526001602052604090205460ff1661080057600080fd5b600254421161080e57600080fd5b6000546001600160a01b031633141561082657600080fd5b61082f33611069565b565b60008060006108486000546001600160a01b031690565b6002543360009081526001602052604090205460ff16925092509250909192565b6001600160a01b038216600090815260066020526040902054829060ff161561089157600080fd5b6001600160a01b038084166000908152600660205260409020600201548491161580156108c657506001600160a01b03811633145b806108ed57506001600160a01b038181166000908152600660205260409020600201541633145b6108f657600080fd5b60075460ff161561090657600080fd5b6000831161095b5760405162461bcd60e51b815260206004820152601b60248201527f5072696365206d75737420626520686967686572207468616e2030000000000060448201526064015b60405180910390fd5b6001600160a01b03841660008181526006602090815260409182902060018101879055805461ff0019166101001781558251938452908301869052917f68a2e03410e90f36e390d071d135e4acd2e4e0279eb70c9aa5d62d4115b7223891015b60405180910390a15050505050565b6000546001600160a01b031633146109e157600080fd5b600080546040516001600160a01b03909116907f8be0079c531659141344cd1fd0a4f28419497f9722a3daafe3b4186f6b6457e0908390a3600080546001600160a01b0319169055565b336000908152600160205260408120548190819060ff166002544211610a5d600054336001600160a01b039091161490565b15925092509250909192565b6001600160a01b038116600090815260066020526040902054819060ff1615610a9157600080fd5b6001600160a01b03808316600090815260066020526040902060020154839116158015610ac657506001600160a01b03811633145b80610aed57506001600160a01b038181166000908152600660205260409020600201541633145b610af657600080fd5b6001600160a01b0383166000908152600660205260409020548390610100900460ff16610b2257600080fd5b60075460ff1615610b3257600080fd5b6001600160a01b03841660008181526006602090815260408083206001810193909355825461ff00191683555192835290917f329e87e3053622f84b36569c9edd0412f8355d8c0f190a0d303a1b6b5a8d92c591016109bb565b6000546001600160a01b03163314610ba357600080fd5b600280549082905560408051828152602081018490527f48bd2ad49200e0ca36b95736b1b720e3a4db1eb87715905a0242d11e90fcf176910160405180910390a15050565b60606004805480602002602001604051908101604052809291908181526020018280548015610c3657602002820191906000526020600020905b815481526020019060010190808311610c22575b5050505050905090565b6001600160a01b038116600090815260066020526040902054819060ff1615610c6857600080fd5b6001600160a01b0382166000908152600660205260409020548290610100900460ff16610c9457600080fd5b60075460ff1615610ca457600080fd5b6001600160a01b03831660009081526006602052604090206001810154341015610d105760405162461bcd60e51b815260206004820152601c60248201527f4e6f7420656e6f7567682066756e6473207472616e73666572726564000000006044820152606401610952565b6000816001015434610d229190611237565b60018301546040519192506001600160a01b0387169181156108fc0291906000818181858888f19350505050158015610d5f573d6000803e3d6000fd5b508015610d9557604051339082156108fc029083906000818181858888f19350505050158015610d93573d6000803e3d6000fd5b505b815461ff00191682556002820180546001600160a01b03191633908117909155604080516001600160a01b038816815260208101929092527f3bc4f409beaf4fdda6a2d537717b5131aecea79aecfdd3d885488ddaa5a14c3291016109bb565b6001600160a01b038216600090815260066020526040902054829060ff1615610e1d57600080fd5b6001600160a01b03808416600090815260066020526040902060020154849116158015610e5257506001600160a01b03811633145b80610e7957506001600160a01b038181166000908152600660205260409020600201541633145b610e8257600080fd5b60075460ff1615610e9257600080fd5b6001600160a01b0384811660008181526006602090815260409182902060020180546001600160a01b031916948816948517905581519283528201929092527f3bc4f409beaf4fdda6a2d537717b5131aecea79aecfdd3d885488ddaa5a14c32910160405180910390a150505050565b60606005805480602002602001604051908101604052809291908181526020018280548015610c365760200282019190600052602060002090815481526020019060010190808311610c22575050505050905090565b60075460ff1615610f6857600080fd5b6000546001600160a01b03163314610f7f57600080fd5b6007805460ff191660011790556040513081527f231ba46a9796cfff3206eb206f870c5e4f68248af093e30cf9e3dd48857a6e669060200160405180910390a1565b6000546001600160a01b03163314610fd857600080fd5b6001600160a01b03811660009081526001602052604090205460ff16610ffd57600080fd5b6001600160a01b038116600081815260016020526040808220805460ff19169055517f30acaa541089592567cd4ce36437c68778a43e66dc1a9e7031e4496faf4593259190a250565b6000546001600160a01b0316331461105d57600080fd5b61106681611069565b50565b6001600160a01b03811661107c57600080fd5b600080546040516001600160a01b03808516939216917f8be0079c531659141344cd1fd0a4f28419497f9722a3daafe3b4186f6b6457e091a3600080546001600160a01b0319166001600160a01b0392909216919091179055565b6000602082840312156110e957600080fd5b81356110f4816112d0565b9392505050565b6000806040838503121561110e57600080fd5b8235611119816112d0565b91506020830135611129816112d0565b809150509250929050565b6000806040838503121561114757600080fd5b8235611152816112d0565b946020939093013593505050565b60006020828403121561117257600080fd5b5035919050565b6000806040838503121561118c57600080fd5b823591506020830135611129816112d0565b6020808252825182820181905260009190848201906040850190845b818110156111d6578351835292840192918401916001016111ba565b50909695505050505050565b600060208083528351808285015260005b8181101561120f578581018301518582016040015282016111f3565b81811115611221576000604083870101525b50601f01601f1916929092016040019392505050565b600082821015611249576112496112a4565b500390565b600181811c9082168061126257607f821691505b6020821081141561128357634e487b7160e01b600052602260045260246000fd5b50919050565b600060001982141561129d5761129d6112a4565b5060010190565b634e487b7160e01b600052601160045260246000fd5b634e487b7160e01b600052603260045260246000fd5b6001600160a01b038116811461106657600080fdfea26469706673582212209f5cc767eee67a9e6975bf8a35f6f3108ad23871d546b8454cf0f5cfa75c5f2b64736f6c63430008060033",
    "sourcePath": "/Users/gmussi/git/solidity-voting/contracts/Poll.sol",
    "compiler": {
        "name": "solc",
        "version": "0.8.6+commit.11564f7e"
    },
    "functionHashes": {
        "addClaimer(address)": "2ea66401",
        "buysVote(address)": "df1edbe8",
        "claim()": "4e71d92d",
        "closePoll()": "ed8c2aed",
        "closed()": "597e1fb5",
        "debugnow()": "e1aa071c",
        "delegateVote(address,address)": "e5ed5b1e",
        "getExpirationTime()": "e23a845a",
        "getOptions()": "cc2ee196",
        "getVote(address)": "8d337b81",
        "getVoteCount()": "e7b3387c",
        "isClaimable()": "74478bb3",
        "isClaimer(address)": "10a8aecd",
        "isOwner()": "8f32d59b",
        "name()": "06fdde03",
        "options(uint256)": "409e2205",
        "owner()": "8da5cb5b",
        "read()": "57de26a4",
        "removeClaimer(address)": "f0490b8a",
        "renounceOwnership()": "715018a6",
        "sellVote(address,uint256)": "709c9276",
        "setExpirationTime(uint256)": "c0cc365d",
        "stopSelling(address)": "b4545a87",
        "transferOwnership(address)": "f2fde38b",
        "vote(uint256,address)": "02d947ef",
        "voteCounts(uint256)": "3c3a220d"
    },
    "gasEstimates": {
        "creation": {
            "codeDepositCost": "978200",
            "executionCost": "infinite",
            "totalCost": "infinite"
        },
        "external": {
            "addClaimer(address)": "30204",
            "buysVote(address)": "infinite",
            "claim()": "34630",
            "closePoll()": "29756",
            "closed()": "2400",
            "debugnow()": "236",
            "delegateVote(address,address)": "infinite",
            "getExpirationTime()": "2359",
            "getOptions()": "infinite",
            "getVote(address)": "6991",
            "getVoteCount()": "infinite",
            "isClaimable()": "6756",
            "isClaimer(address)": "2611",
            "isOwner()": "2366",
            "name()": "infinite",
            "options(uint256)": "4709",
            "owner()": "2324",
            "read()": "6712",
            "removeClaimer(address)": "30181",
            "renounceOwnership()": "30232",
            "sellVote(address,uint256)": "57012",
            "setExpirationTime(uint256)": "28003",
            "stopSelling(address)": "41845",
            "transferOwnership(address)": "infinite",
            "vote(uint256,address)": "65724",
            "voteCounts(uint256)": "4687"
        }
    }
}