{
  "contractName": "Poll",
  "abi": [
    {
      "inputs": [
        {
          "internalType": "string",
          "name": "_name",
          "type": "string"
        },
        {
          "internalType": "bytes32[]",
          "name": "_options",
          "type": "bytes32[]"
        }
      ],
      "payable": false,
      "stateMutability": "nonpayable",
      "type": "constructor"
    },
    {
      "anonymous": false,
      "inputs": [
        {
          "indexed": true,
          "internalType": "address",
          "name": "claimer",
          "type": "address"
        }
      ],
      "name": "ClaimerAdded",
      "type": "event"
    },
    {
      "anonymous": false,
      "inputs": [
        {
          "indexed": true,
          "internalType": "address",
          "name": "claimer",
          "type": "address"
        }
      ],
      "name": "ClaimerRemoved",
      "type": "event"
    },
    {
      "anonymous": false,
      "inputs": [
        {
          "indexed": false,
          "internalType": "uint256",
          "name": "oldExpiration",
          "type": "uint256"
        },
        {
          "indexed": false,
          "internalType": "uint256",
          "name": "newExpiration",
          "type": "uint256"
        }
      ],
      "name": "ExpirationUpdated",
      "type": "event"
    },
    {
      "anonymous": false,
      "inputs": [
        {
          "indexed": false,
          "internalType": "bytes32",
          "name": "option",
          "type": "bytes32"
        },
        {
          "indexed": true,
          "internalType": "address",
          "name": "voter",
          "type": "address"
        }
      ],
      "name": "NewVote",
      "type": "event"
    },
    {
      "anonymous": false,
      "inputs": [
        {
          "indexed": true,
          "internalType": "address",
          "name": "previousOwner",
          "type": "address"
        },
        {
          "indexed": true,
          "internalType": "address",
          "name": "newOwner",
          "type": "address"
        }
      ],
      "name": "OwnershipTransferred",
      "type": "event"
    },
    {
      "anonymous": false,
      "inputs": [
        {
          "indexed": false,
          "internalType": "address",
          "name": "pollAddr",
          "type": "address"
        }
      ],
      "name": "PollClosed",
      "type": "event"
    },
    {
      "anonymous": false,
      "inputs": [
        {
          "indexed": false,
          "internalType": "address",
          "name": "seller",
          "type": "address"
        },
        {
          "indexed": false,
          "internalType": "uint256",
          "name": "price",
          "type": "uint256"
        }
      ],
      "name": "VoteForSale",
      "type": "event"
    },
    {
      "anonymous": false,
      "inputs": [
        {
          "indexed": false,
          "internalType": "address",
          "name": "seller",
          "type": "address"
        },
        {
          "indexed": false,
          "internalType": "address",
          "name": "buyer",
          "type": "address"
        }
      ],
      "name": "VoteOwnershipChanged",
      "type": "event"
    },
    {
      "constant": false,
      "inputs": [
        {
          "internalType": "address",
          "name": "_claimer",
          "type": "address"
        }
      ],
      "name": "addClaimer",
      "outputs": [],
      "payable": false,
      "stateMutability": "nonpayable",
      "type": "function"
    },
    {
      "constant": false,
      "inputs": [],
      "name": "claim",
      "outputs": [],
      "payable": false,
      "stateMutability": "nonpayable",
      "type": "function"
    },
    {
      "constant": true,
      "inputs": [],
      "name": "closed",
      "outputs": [
        {
          "internalType": "bool",
          "name": "",
          "type": "bool"
        }
      ],
      "payable": false,
      "stateMutability": "view",
      "type": "function"
    },
    {
      "constant": true,
      "inputs": [],
      "name": "debugnow",
      "outputs": [
        {
          "internalType": "uint256",
          "name": "",
          "type": "uint256"
        }
      ],
      "payable": false,
      "stateMutability": "view",
      "type": "function"
    },
    {
      "constant": true,
      "inputs": [],
      "name": "getExpirationTime",
      "outputs": [
        {
          "internalType": "uint256",
          "name": "",
          "type": "uint256"
        }
      ],
      "payable": false,
      "stateMutability": "view",
      "type": "function"
    },
    {
      "constant": true,
      "inputs": [],
      "name": "isClaimable",
      "outputs": [
        {
          "internalType": "bool",
          "name": "",
          "type": "bool"
        },
        {
          "internalType": "bool",
          "name": "",
          "type": "bool"
        },
        {
          "internalType": "bool",
          "name": "",
          "type": "bool"
        }
      ],
      "payable": false,
      "stateMutability": "view",
      "type": "function"
    },
    {
      "constant": true,
      "inputs": [
        {
          "internalType": "address",
          "name": "_claimer",
          "type": "address"
        }
      ],
      "name": "isClaimer",
      "outputs": [
        {
          "internalType": "bool",
          "name": "",
          "type": "bool"
        }
      ],
      "payable": false,
      "stateMutability": "view",
      "type": "function"
    },
    {
      "constant": true,
      "inputs": [],
      "name": "isOwner",
      "outputs": [
        {
          "internalType": "bool",
          "name": "",
          "type": "bool"
        }
      ],
      "payable": false,
      "stateMutability": "view",
      "type": "function"
    },
    {
      "constant": true,
      "inputs": [],
      "name": "name",
      "outputs": [
        {
          "internalType": "string",
          "name": "",
          "type": "string"
        }
      ],
      "payable": false,
      "stateMutability": "view",
      "type": "function"
    },
    {
      "constant": true,
      "inputs": [
        {
          "internalType": "uint256",
          "name": "",
          "type": "uint256"
        }
      ],
      "name": "options",
      "outputs": [
        {
          "internalType": "bytes32",
          "name": "",
          "type": "bytes32"
        }
      ],
      "payable": false,
      "stateMutability": "view",
      "type": "function"
    },
    {
      "constant": true,
      "inputs": [],
      "name": "owner",
      "outputs": [
        {
          "internalType": "address",
          "name": "",
          "type": "address"
        }
      ],
      "payable": false,
      "stateMutability": "view",
      "type": "function"
    },
    {
      "constant": true,
      "inputs": [],
      "name": "read",
      "outputs": [
        {
          "internalType": "address",
          "name": "",
          "type": "address"
        },
        {
          "internalType": "uint256",
          "name": "",
          "type": "uint256"
        },
        {
          "internalType": "bool",
          "name": "",
          "type": "bool"
        }
      ],
      "payable": false,
      "stateMutability": "view",
      "type": "function"
    },
    {
      "constant": false,
      "inputs": [
        {
          "internalType": "address",
          "name": "_claimer",
          "type": "address"
        }
      ],
      "name": "removeClaimer",
      "outputs": [],
      "payable": false,
      "stateMutability": "nonpayable",
      "type": "function"
    },
    {
      "constant": false,
      "inputs": [],
      "name": "renounceOwnership",
      "outputs": [],
      "payable": false,
      "stateMutability": "nonpayable",
      "type": "function"
    },
    {
      "constant": false,
      "inputs": [
        {
          "internalType": "uint256",
          "name": "_expirationTime",
          "type": "uint256"
        }
      ],
      "name": "setExpirationTime",
      "outputs": [],
      "payable": false,
      "stateMutability": "nonpayable",
      "type": "function"
    },
    {
      "constant": false,
      "inputs": [
        {
          "internalType": "address",
          "name": "newOwner",
          "type": "address"
        }
      ],
      "name": "transferOwnership",
      "outputs": [],
      "payable": false,
      "stateMutability": "nonpayable",
      "type": "function"
    },
    {
      "constant": true,
      "inputs": [
        {
          "internalType": "bytes32",
          "name": "",
          "type": "bytes32"
        }
      ],
      "name": "voteCounts",
      "outputs": [
        {
          "internalType": "uint256",
          "name": "",
          "type": "uint256"
        }
      ],
      "payable": false,
      "stateMutability": "view",
      "type": "function"
    },
    {
      "constant": false,
      "inputs": [
        {
          "internalType": "bytes32",
          "name": "_option",
          "type": "bytes32"
        },
        {
          "internalType": "address",
          "name": "_voter",
          "type": "address"
        }
      ],
      "name": "vote",
      "outputs": [],
      "payable": false,
      "stateMutability": "nonpayable",
      "type": "function"
    },
    {
      "constant": false,
      "inputs": [
        {
          "internalType": "address",
          "name": "_voteAddr",
          "type": "address"
        },
        {
          "internalType": "uint256",
          "name": "price",
          "type": "uint256"
        }
      ],
      "name": "sellVote",
      "outputs": [],
      "payable": false,
      "stateMutability": "nonpayable",
      "type": "function"
    },
    {
      "constant": false,
      "inputs": [
        {
          "internalType": "address payable",
          "name": "_voteAddr",
          "type": "address"
        }
      ],
      "name": "buysVote",
      "outputs": [],
      "payable": true,
      "stateMutability": "payable",
      "type": "function"
    },
    {
      "constant": false,
      "inputs": [
        {
          "internalType": "address",
          "name": "_voter",
          "type": "address"
        },
        {
          "internalType": "address payable",
          "name": "_newOwner",
          "type": "address"
        }
      ],
      "name": "delegateVote",
      "outputs": [],
      "payable": false,
      "stateMutability": "nonpayable",
      "type": "function"
    },
    {
      "constant": false,
      "inputs": [],
      "name": "closePoll",
      "outputs": [],
      "payable": false,
      "stateMutability": "nonpayable",
      "type": "function"
    },
    {
      "constant": true,
      "inputs": [],
      "name": "countVotes",
      "outputs": [
        {
          "internalType": "uint256[]",
          "name": "",
          "type": "uint256[]"
        }
      ],
      "payable": false,
      "stateMutability": "view",
      "type": "function"
    },
    {
      "constant": true,
      "inputs": [],
      "name": "getOptions",
      "outputs": [
        {
          "internalType": "bytes32[]",
          "name": "",
          "type": "bytes32[]"
        }
      ],
      "payable": false,
      "stateMutability": "view",
      "type": "function"
    }
  ],
  "bytecode": "0x60806040523480156200001157600080fd5b506040516200208038038062002080833981810160405260408110156200003757600080fd5b81019080805160405193929190846401000000008211156200005857600080fd5b838201915060208201858111156200006f57600080fd5b82518660018202830111640100000000821117156200008d57600080fd5b8083526020830192505050908051906020019080838360005b83811015620000c3578082015181840152602081019050620000a6565b50505050905090810190601f168015620000f15780820380516001836020036101000a031916815260200191505b50604052602001805160405193929190846401000000008211156200011557600080fd5b838201915060208201858111156200012c57600080fd5b82518660208202830111640100000000821117156200014a57600080fd5b8083526020830192505050908051906020019060200280838360005b838110156200018357808201518184015260208101905062000166565b50505050905001604052505050336000806101000a81548173ffffffffffffffffffffffffffffffffffffffff021916908373ffffffffffffffffffffffffffffffffffffffff1602179055506000809054906101000a900473ffffffffffffffffffffffffffffffffffffffff1673ffffffffffffffffffffffffffffffffffffffff16600073ffffffffffffffffffffffffffffffffffffffff167f8be0079c531659141344cd1fd0a4f28419497f9722a3daafe3b4186f6b6457e060405160405180910390a360008151116200025b57600080fd5b81600390805190602001906200027392919062000308565b5060008090505b8151811015620002ff5760048282815181106200029357fe5b60200260200101519080600181540180825580915050906001820390600052602060002001600090919290919091505550600060056000848481518110620002d757fe5b602002602001015181526020019081526020016000208190555080806001019150506200027a565b505050620003b7565b828054600181600116156101000203166002900490600052602060002090601f016020900481019282601f106200034b57805160ff19168380011785556200037c565b828001600101855582156200037c579182015b828111156200037b5782518255916020019190600101906200035e565b5b5090506200038b91906200038f565b5090565b620003b491905b80821115620003b057600081600090555060010162000396565b5090565b90565b611cb980620003c76000396000f3fe60806040526004361061014b5760003560e01c80638da5cb5b116100b6578063e1aa071c1161006f578063e1aa071c146106d6578063e23a845a14610701578063e5ed5b1e1461072c578063ed8c2aed1461079d578063f0490b8a146107b4578063f2fde38b146108055761014b565b80638da5cb5b146104f95780638f32d59b14610550578063b647990a1461057f578063c0cc365d146105eb578063cc2ee19614610626578063df1edbe8146106925761014b565b8063597e1fb511610108578063597e1fb514610369578063709c927614610398578063715018a6146103f357806374478bb31461040a57806381d0e37b1461044f5780638d8afd3d1461049e5761014b565b806306fdde031461015057806310a8aecd146101e05780632ea6640114610249578063409e22051461029a5780634e71d92d146102e957806357de26a414610300575b600080fd5b34801561015c57600080fd5b50610165610856565b6040518080602001828103825283818151815260200191508051906020019080838360005b838110156101a557808201518184015260208101905061018a565b50505050905090810190601f1680156101d25780820380516001836020036101000a031916815260200191505b509250505060405180910390f35b3480156101ec57600080fd5b5061022f6004803603602081101561020357600080fd5b81019080803573ffffffffffffffffffffffffffffffffffffffff1690602001909291905050506108f4565b604051808215151515815260200191505060405180910390f35b34801561025557600080fd5b506102986004803603602081101561026c57600080fd5b81019080803573ffffffffffffffffffffffffffffffffffffffff16906020019092919050505061094a565b005b3480156102a657600080fd5b506102d3600480360360208110156102bd57600080fd5b8101908080359060200190929190505050610a4f565b6040518082815260200191505060405180910390f35b3480156102f557600080fd5b506102fe610a70565b005b34801561030c57600080fd5b50610315610aad565b604051808473ffffffffffffffffffffffffffffffffffffffff1673ffffffffffffffffffffffffffffffffffffffff16815260200183815260200182151515158152602001935050505060405180910390f35b34801561037557600080fd5b5061037e610ad1565b604051808215151515815260200191505060405180910390f35b3480156103a457600080fd5b506103f1600480360360408110156103bb57600080fd5b81019080803573ffffffffffffffffffffffffffffffffffffffff16906020019092919080359060200190929190505050610ae4565b005b3480156103ff57600080fd5b50610408610e15565b005b34801561041657600080fd5b5061041f610ee5565b60405180841515151581526020018315151515815260200182151515158152602001935050505060405180910390f35b34801561045b57600080fd5b506104886004803603602081101561047257600080fd5b8101908080359060200190929190505050610f0c565b6040518082815260200191505060405180910390f35b3480156104aa57600080fd5b506104f7600480360360408110156104c157600080fd5b8101908080359060200190929190803573ffffffffffffffffffffffffffffffffffffffff169060200190929190505050610f24565b005b34801561050557600080fd5b5061050e6111d6565b604051808273ffffffffffffffffffffffffffffffffffffffff1673ffffffffffffffffffffffffffffffffffffffff16815260200191505060405180910390f35b34801561055c57600080fd5b506105656111ff565b604051808215151515815260200191505060405180910390f35b34801561058b57600080fd5b50610594611256565b6040518080602001828103825283818151815260200191508051906020019060200280838360005b838110156105d75780820151818401526020810190506105bc565b505050509050019250505060405180910390f35b3480156105f757600080fd5b506106246004803603602081101561060e57600080fd5b81019080803590602001909291905050506112c4565b005b34801561063257600080fd5b5061063b611326565b6040518080602001828103825283818151815260200191508051906020019060200280838360005b8381101561067e578082015181840152602081019050610663565b505050509050019250505060405180910390f35b6106d4600480360360208110156106a857600080fd5b81019080803573ffffffffffffffffffffffffffffffffffffffff16906020019092919050505061137e565b005b3480156106e257600080fd5b506106eb6116af565b6040518082815260200191505060405180910390f35b34801561070d57600080fd5b506107166116b7565b6040518082815260200191505060405180910390f35b34801561073857600080fd5b5061079b6004803603604081101561074f57600080fd5b81019080803573ffffffffffffffffffffffffffffffffffffffff169060200190929190803573ffffffffffffffffffffffffffffffffffffffff1690602001909291905050506116c1565b005b3480156107a957600080fd5b506107b26119bf565b005b3480156107c057600080fd5b50610803600480360360208110156107d757600080fd5b81019080803573ffffffffffffffffffffffffffffffffffffffff169060200190929190505050611a6a565b005b34801561081157600080fd5b506108546004803603602081101561082857600080fd5b81019080803573ffffffffffffffffffffffffffffffffffffffff169060200190929190505050611b6f565b005b60038054600181600116156101000203166002900480601f0160208091040260200160405190810160405280929190818152602001828054600181600116156101000203166002900480156108ec5780601f106108c1576101008083540402835291602001916108ec565b820191906000526020600020905b8154815290600101906020018083116108cf57829003601f168201915b505050505081565b6000600160008373ffffffffffffffffffffffffffffffffffffffff1673ffffffffffffffffffffffffffffffffffffffff16815260200190815260200160002060009054906101000a900460ff169050919050565b6109526111ff565b61095b57600080fd5b600160008273ffffffffffffffffffffffffffffffffffffffff1673ffffffffffffffffffffffffffffffffffffffff16815260200190815260200160002060009054906101000a900460ff16156109b257600080fd5b60018060008373ffffffffffffffffffffffffffffffffffffffff1673ffffffffffffffffffffffffffffffffffffffff16815260200190815260200160002060006101000a81548160ff0219169083151502179055508073ffffffffffffffffffffffffffffffffffffffff167fff9a8f4e0a39755c20c899b46171e470382709479fce2aa1e388f95edfe0173960405160405180910390a250565b60048181548110610a5c57fe5b906000526020600020016000915090505481565b610a79336108f4565b610a8257600080fd5b6002544211610a9057600080fd5b610a986111ff565b15610aa257600080fd5b610aab33611b8c565b565b6000806000610aba6111d6565b600254610ac6336108f4565b925092509250909192565b600760009054906101000a900460ff1681565b81600660008273ffffffffffffffffffffffffffffffffffffffff1673ffffffffffffffffffffffffffffffffffffffff16815260200190815260200160002060000160009054906101000a900460ff1615610b3f57600080fd5b82600073ffffffffffffffffffffffffffffffffffffffff16600660008373ffffffffffffffffffffffffffffffffffffffff1673ffffffffffffffffffffffffffffffffffffffff16815260200190815260200160002060020160009054906101000a900473ffffffffffffffffffffffffffffffffffffffff1673ffffffffffffffffffffffffffffffffffffffff16148015610c0957503373ffffffffffffffffffffffffffffffffffffffff168173ffffffffffffffffffffffffffffffffffffffff16145b80610ca157503373ffffffffffffffffffffffffffffffffffffffff16600660008373ffffffffffffffffffffffffffffffffffffffff1673ffffffffffffffffffffffffffffffffffffffff16815260200190815260200160002060020160009054906101000a900473ffffffffffffffffffffffffffffffffffffffff1673ffffffffffffffffffffffffffffffffffffffff16145b610caa57600080fd5b600760009054906101000a900460ff1615610cc457600080fd5b60008311610d3a576040517f08c379a000000000000000000000000000000000000000000000000000000000815260040180806020018281038252601b8152602001807f5072696365206d75737420626520686967686572207468616e2030000000000081525060200191505060405180910390fd5b6000600660008673ffffffffffffffffffffffffffffffffffffffff1673ffffffffffffffffffffffffffffffffffffffff168152602001908152602001600020905083816001018190555060018160000160016101000a81548160ff0219169083151502179055507f68a2e03410e90f36e390d071d135e4acd2e4e0279eb70c9aa5d62d4115b722388585604051808373ffffffffffffffffffffffffffffffffffffffff1673ffffffffffffffffffffffffffffffffffffffff1681526020018281526020019250505060405180910390a15050505050565b610e1d6111ff565b610e2657600080fd5b600073ffffffffffffffffffffffffffffffffffffffff166000809054906101000a900473ffffffffffffffffffffffffffffffffffffffff1673ffffffffffffffffffffffffffffffffffffffff167f8be0079c531659141344cd1fd0a4f28419497f9722a3daafe3b4186f6b6457e060405160405180910390a360008060006101000a81548173ffffffffffffffffffffffffffffffffffffffff021916908373ffffffffffffffffffffffffffffffffffffffff160217905550565b6000806000610ef3336108f4565b6002544211610f006111ff565b15925092509250909192565b60056020528060005260406000206000915090505481565b80600660008273ffffffffffffffffffffffffffffffffffffffff1673ffffffffffffffffffffffffffffffffffffffff16815260200190815260200160002060000160009054906101000a900460ff1615610f7f57600080fd5b81600073ffffffffffffffffffffffffffffffffffffffff16600660008373ffffffffffffffffffffffffffffffffffffffff1673ffffffffffffffffffffffffffffffffffffffff16815260200190815260200160002060020160009054906101000a900473ffffffffffffffffffffffffffffffffffffffff1673ffffffffffffffffffffffffffffffffffffffff1614801561104957503373ffffffffffffffffffffffffffffffffffffffff168173ffffffffffffffffffffffffffffffffffffffff16145b806110e157503373ffffffffffffffffffffffffffffffffffffffff16600660008373ffffffffffffffffffffffffffffffffffffffff1673ffffffffffffffffffffffffffffffffffffffff16815260200190815260200160002060020160009054906101000a900473ffffffffffffffffffffffffffffffffffffffff1673ffffffffffffffffffffffffffffffffffffffff16145b6110ea57600080fd5b600760009054906101000a900460ff161561110457600080fd5b60056000858152602001908152602001600020600081548092919060010191905055506001600660008573ffffffffffffffffffffffffffffffffffffffff1673ffffffffffffffffffffffffffffffffffffffff16815260200190815260200160002060000160006101000a81548160ff0219169083151502179055503373ffffffffffffffffffffffffffffffffffffffff167fc0f8946b28ac7993b4dd24b05482b70709d3394c92247236929d86a50b24d0ab856040518082815260200191505060405180910390a250505050565b60008060009054906101000a900473ffffffffffffffffffffffffffffffffffffffff16905090565b60008060009054906101000a900473ffffffffffffffffffffffffffffffffffffffff1673ffffffffffffffffffffffffffffffffffffffff163373ffffffffffffffffffffffffffffffffffffffff1614905090565b60608060008090505b6004805490508110156112bc57600560006004838154811061127d57fe5b90600052602060002001548152602001908152602001600020548282815181106112a357fe5b602002602001018181525050808060010191505061125f565b508091505090565b6112cc6111ff565b6112d557600080fd5b60006002549050816002819055507f48bd2ad49200e0ca36b95736b1b720e3a4db1eb87715905a0242d11e90fcf1768183604051808381526020018281526020019250505060405180910390a15050565b6060600480548060200260200160405190810160405280929190818152602001828054801561137457602002820191906000526020600020905b815481526020019060010190808311611360575b5050505050905090565b80600660008273ffffffffffffffffffffffffffffffffffffffff1673ffffffffffffffffffffffffffffffffffffffff16815260200190815260200160002060000160009054906101000a900460ff16156113d957600080fd5b81600660008273ffffffffffffffffffffffffffffffffffffffff1673ffffffffffffffffffffffffffffffffffffffff16815260200190815260200160002060000160019054906101000a900460ff1661143357600080fd5b600760009054906101000a900460ff161561144d57600080fd5b6000600660008573ffffffffffffffffffffffffffffffffffffffff1673ffffffffffffffffffffffffffffffffffffffff1681526020019081526020016000209050806001015434101561150a576040517f08c379a000000000000000000000000000000000000000000000000000000000815260040180806020018281038252601c8152602001807f4e6f7420656e6f7567682066756e6473207472616e736665727265640000000081525060200191505060405180910390fd5b60008160010154340390508473ffffffffffffffffffffffffffffffffffffffff166108fc83600101549081150290604051600060405180830381858888f1935050505015801561155f573d6000803e3d6000fd5b5060008111156115b1573373ffffffffffffffffffffffffffffffffffffffff166108fc829081150290604051600060405180830381858888f193505050501580156115af573d6000803e3d6000fd5b505b60008260000160016101000a81548160ff021916908315150217905550338260020160006101000a81548173ffffffffffffffffffffffffffffffffffffffff021916908373ffffffffffffffffffffffffffffffffffffffff1602179055507f3bc4f409beaf4fdda6a2d537717b5131aecea79aecfdd3d885488ddaa5a14c328533604051808373ffffffffffffffffffffffffffffffffffffffff1673ffffffffffffffffffffffffffffffffffffffff1681526020018273ffffffffffffffffffffffffffffffffffffffff1673ffffffffffffffffffffffffffffffffffffffff1681526020019250505060405180910390a15050505050565b600042905090565b6000600254905090565b81600660008273ffffffffffffffffffffffffffffffffffffffff1673ffffffffffffffffffffffffffffffffffffffff16815260200190815260200160002060000160009054906101000a900460ff161561171c57600080fd5b82600073ffffffffffffffffffffffffffffffffffffffff16600660008373ffffffffffffffffffffffffffffffffffffffff1673ffffffffffffffffffffffffffffffffffffffff16815260200190815260200160002060020160009054906101000a900473ffffffffffffffffffffffffffffffffffffffff1673ffffffffffffffffffffffffffffffffffffffff161480156117e657503373ffffffffffffffffffffffffffffffffffffffff168173ffffffffffffffffffffffffffffffffffffffff16145b8061187e57503373ffffffffffffffffffffffffffffffffffffffff16600660008373ffffffffffffffffffffffffffffffffffffffff1673ffffffffffffffffffffffffffffffffffffffff16815260200190815260200160002060020160009054906101000a900473ffffffffffffffffffffffffffffffffffffffff1673ffffffffffffffffffffffffffffffffffffffff16145b61188757600080fd5b600760009054906101000a900460ff16156118a157600080fd5b82600660008673ffffffffffffffffffffffffffffffffffffffff1673ffffffffffffffffffffffffffffffffffffffff16815260200190815260200160002060020160006101000a81548173ffffffffffffffffffffffffffffffffffffffff021916908373ffffffffffffffffffffffffffffffffffffffff1602179055507f3bc4f409beaf4fdda6a2d537717b5131aecea79aecfdd3d885488ddaa5a14c328484604051808373ffffffffffffffffffffffffffffffffffffffff1673ffffffffffffffffffffffffffffffffffffffff1681526020018273ffffffffffffffffffffffffffffffffffffffff1673ffffffffffffffffffffffffffffffffffffffff1681526020019250505060405180910390a150505050565b600760009054906101000a900460ff16156119d957600080fd5b6119e16111ff565b6119ea57600080fd5b6001600760006101000a81548160ff0219169083151502179055507f231ba46a9796cfff3206eb206f870c5e4f68248af093e30cf9e3dd48857a6e6630604051808273ffffffffffffffffffffffffffffffffffffffff1673ffffffffffffffffffffffffffffffffffffffff16815260200191505060405180910390a1565b611a726111ff565b611a7b57600080fd5b600160008273ffffffffffffffffffffffffffffffffffffffff1673ffffffffffffffffffffffffffffffffffffffff16815260200190815260200160002060009054906101000a900460ff16611ad157600080fd5b6000600160008373ffffffffffffffffffffffffffffffffffffffff1673ffffffffffffffffffffffffffffffffffffffff16815260200190815260200160002060006101000a81548160ff0219169083151502179055508073ffffffffffffffffffffffffffffffffffffffff167f30acaa541089592567cd4ce36437c68778a43e66dc1a9e7031e4496faf45932560405160405180910390a250565b611b776111ff565b611b8057600080fd5b611b8981611b8c565b50565b600073ffffffffffffffffffffffffffffffffffffffff168173ffffffffffffffffffffffffffffffffffffffff161415611bc657600080fd5b8073ffffffffffffffffffffffffffffffffffffffff166000809054906101000a900473ffffffffffffffffffffffffffffffffffffffff1673ffffffffffffffffffffffffffffffffffffffff167f8be0079c531659141344cd1fd0a4f28419497f9722a3daafe3b4186f6b6457e060405160405180910390a3806000806101000a81548173ffffffffffffffffffffffffffffffffffffffff021916908373ffffffffffffffffffffffffffffffffffffffff1602179055505056fea265627a7a72315820bed3a04bd5126d27846f298a7f86a95235df17ce201d0168a3a64e8ef6ea3afe64736f6c63430005100032",
  "source": "pragma solidity >=0.5.16;\r\n\r\nimport \"@gmussi-contracts/gmussi-claimable/contracts/Claimable.sol\";\r\n\r\n/**\r\n * A poll is a contract that stores potential options to vote on, as well as which addresses have voted already.\r\n * Addresses can vote on the poll until the poll owner closes the contract.\r\n * Addresses can also put their votes for sale as long as they have not voted yet.\r\n */\r\ncontract Poll is Claimable {\r\n    struct Vote {\r\n        bool used;\r\n        bool forSale;\r\n        uint price;\r\n        address payable owner;\r\n    }\r\n\r\n    string public name; // name of this poll - is this necessary?\r\n\r\n    bytes32[] public options; // options that can be voted on\r\n    mapping(bytes32 => uint) public voteCounts; // number of votes for each option\r\n\r\n    mapping(address => Vote) private votes; // stores the votes of everyone\r\n\r\n    bool public closed; // stores if the polling is still accepting votes\r\n\r\n    /**\r\n     * Event triggered every time a new vote is given in this poll\r\n     */\r\n    event NewVote (bytes32 option, address indexed voter);\r\n\r\n    /**\r\n     * Event triggered when a vote is put for sale\r\n     */\r\n    event VoteForSale(address seller, uint price);\r\n\r\n    /**\r\n     * Event triggered when a vote is sold \r\n     */\r\n    event VoteOwnershipChanged(address seller, address buyer);\r\n\r\n    /**\r\n     * Event triggered when the poll is closed\r\n     */\r\n    event PollClosed (address pollAddr);\r\n\r\n    /**\r\n     * A poll requires a name and a bytes32 for each option.\r\n     */\r\n    constructor(string memory _name, bytes32[] memory _options) public {\r\n        require(_options.length > 0);\r\n\r\n        name = _name;\r\n        for (uint i = 0; i < _options.length; i++) {\r\n            options.push(_options[i]);\r\n            voteCounts[_options[i]] = 0;\r\n        }\r\n    }\r\n\r\n    /**\r\n     * Stores a vote from the message sender. \r\n     * Each address can vote only once and only as long as the poll is not closed.\r\n     * Each address can also sell their voting rights for others, which allows the buyer to vote.\r\n     * @param _option a bytes32 representing the option to vote.\r\n     * @dev Refer to `options` property  \r\n     * @param _voter address of the voter this vote refers to. Message sender must own that right\r\n     */\r\n    function vote(bytes32 _option, address _voter) public notVoted(_voter) ownsVote(_voter) pollOpen {\r\n        voteCounts[_option]++;\r\n        votes[_voter].used = true;\r\n\r\n        emit NewVote(_option, msg.sender);\r\n    } \r\n\r\n    /**\r\n     * Puts a vote for sale for a specified price.\r\n     * @param _voteAddr The vote to be put for sale. Msg.owner must own this vote.\r\n     * \r\n     */\r\n    function sellVote(address _voteAddr, uint price) public notVoted(_voteAddr) ownsVote(_voteAddr) pollOpen {\r\n        require(price > 0, \"Price must be higher than 0\");\r\n\r\n        Vote storage _vote = votes[_voteAddr];\r\n        _vote.price = price;\r\n        _vote.forSale = true;\r\n\r\n        emit VoteForSale(_voteAddr, price);\r\n    }\r\n\r\n    /**\r\n     * Buys a vote for sale. Enough funds must be transferred to this method. \r\n     * More funds than necessary will be refunded.\r\n     * @dev This method only works if the vote has not been used AND is for sale \r\n     * @param _voteAddr the address of the seller whose vote is intended to buy\r\n     */\r\n    function buysVote(address payable _voteAddr) public payable notVoted(_voteAddr) forSale(_voteAddr) pollOpen {\r\n        Vote storage _vote = votes[_voteAddr];\r\n\r\n        require(msg.value >= _vote.price, \"Not enough funds transferred\");\r\n        \r\n        uint change = msg.value - _vote.price;\r\n\r\n        _voteAddr.transfer(_vote.price); // sends the price value to the seller\r\n\r\n        if (change > 0) {\r\n            msg.sender.transfer(change); // send the change back to the buyer\r\n        }\r\n\r\n        _vote.forSale = false;\r\n        _vote.owner = msg.sender;\r\n        emit VoteOwnershipChanged(_voteAddr, msg.sender);\r\n    }\r\n\r\n    /**\r\n     * Delegates a vote to someone else.\r\n     * @param _voter the vote to be delegated, usually same as msg.sender\r\n     * @param _newOwner address of the new owner of this vote\r\n     */\r\n    function delegateVote(address _voter, address payable _newOwner) public notVoted(_voter) ownsVote(_voter) pollOpen {\r\n        votes[_voter].owner = _newOwner;\r\n\r\n        emit VoteOwnershipChanged(_voter, _newOwner);\r\n    }\r\n\r\n    /**\r\n     * Closes the poll. This action is irreversible and can only be performed once.\r\n     */\r\n    function closePoll() public pollOpen onlyOwner {\r\n        closed = true;\r\n\r\n        emit PollClosed(address(this));\r\n    }\r\n\r\n    /**\r\n     * Returns the count for each votes\r\n     */\r\n    function countVotes() public view returns (uint[] memory) {\r\n        uint[] memory results;\r\n        for (uint i = 0; i < options.length; i++) {\r\n            results[i] = voteCounts[options[i]];\r\n        }\r\n        return results;\r\n    }\r\n\r\n    /**\r\n     * Function modifier that checks if the poll is still opened.\r\n     */\r\n    modifier pollOpen () {\r\n        require(!closed);\r\n        _;\r\n    }\r\n\r\n    /**\r\n     * Function modifier that checks if the message sender has already voted in this poll\r\n     */\r\n    modifier notVoted(address _voter) {\r\n        require(!votes[_voter].used);\r\n        _;\r\n    }\r\n\r\n    /**\r\n     * Function modifier that checks if the address trying to vote owns that vote \r\n     */\r\n    modifier ownsVote(address _voter) {\r\n        require((votes[_voter].owner == address(0) && _voter == msg.sender) || votes[_voter].owner == msg.sender);\r\n        _;\r\n    } \r\n\r\n    /**\r\n     * Function modifier that checks if a vote is for sale\r\n     */\r\n    modifier forSale(address _vote) {\r\n        require(votes[_vote].forSale);\r\n        _;\r\n    }\r\n\r\n    function getOptions() public view returns (bytes32[] memory) {\r\n        return options;\r\n    }\r\n }",
  "sourcePath": "C:\\Users\\Guilherme Mussi\\git\\solidity-voting\\contracts\\Poll.sol",
  "compiler": {
    "name": "solc",
    "version": "0.5.16+commit.9c3226ce.Emscripten.clang"
  },
  "schemaVersion": "3.4.0",
  "updatedAt": "2021-06-29T14:30:33.595Z",
  "devdoc": {
    "methods": {
      "addClaimer(address)": {
        "params": {
          "_claimer": "address of the claimer to be added"
        }
      },
      "buysVote(address)": {
        "details": "This method only works if the vote has not been used AND is for sale ",
        "params": {
          "_voteAddr": "the address of the seller whose vote is intended to buy"
        }
      },
      "delegateVote(address,address)": {
        "params": {
          "_newOwner": "address of the new owner of this vote",
          "_voter": "the vote to be delegated, usually same as msg.sender"
        }
      },
      "getExpirationTime()": {
        "return": "uint with the expiration time"
      },
      "isClaimable()": {
        "details": "The contract is claimable when the 3 results are true.",
        "return": "bool: is a claimer, bool: is expired, bool: is not owner"
      },
      "isClaimer(address)": {
        "params": {
          "_claimer": "address to verify"
        },
        "return": "true if the caller has been added as claimer, false, otherwise"
      },
      "isOwner()": {
        "return": "true if `msg.sender` is the owner of the contract."
      },
      "owner()": {
        "return": "the address of the owner."
      },
      "read()": {
        "return": "(address: owner of this contract, uint: the expiration date, bool: is caller a claimers?)"
      },
      "removeClaimer(address)": {
        "params": {
          "_claimer": "address of the claimer to be removed"
        }
      },
      "renounceOwnership()": {
        "details": "Allows the current owner to relinquish control of the contract."
      },
      "sellVote(address,uint256)": {
        "params": {
          "_voteAddr": "The vote to be put for sale. Msg.owner must own this vote. \r"
        }
      },
      "setExpirationTime(uint256)": {
        "params": {
          "_expirationTime": "the new expiration time for this contract"
        }
      },
      "transferOwnership(address)": {
        "details": "Allows the current owner to transfer control of the contract to a newOwner.",
        "params": {
          "newOwner": "The address to transfer ownership to."
        }
      },
      "vote(bytes32,address)": {
        "details": "Refer to `options` property  ",
        "params": {
          "_option": "a bytes32 representing the option to vote.",
          "_voter": "address of the voter this vote refers to. Message sender must own that right"
        }
      }
    }
  },
  "userdoc": {
    "methods": {
      "addClaimer(address)": {
        "notice": "Adds a new claimer to the contract"
      },
      "buysVote(address)": {
        "notice": "Buys a vote for sale. Enough funds must be transferred to this method.  More funds than necessary will be refunded."
      },
      "claim()": {
        "notice": "Claim ownership of the contract, once the max inactive time is reached.  Only addresses in claimers can claim, unless the array is empty."
      },
      "closePoll()": {
        "notice": "Closes the poll. This action is irreversible and can only be performed once."
      },
      "constructor": "A poll requires a name and a bytes32 for each option.",
      "countVotes()": {
        "notice": "Returns the count for each votes"
      },
      "delegateVote(address,address)": {
        "notice": "Delegates a vote to someone else."
      },
      "getExpirationTime()": {
        "notice": "Gets the current expiration time set in this contract"
      },
      "isClaimable()": {
        "notice": "Checks if the expiration date is passed and contract can be claimed."
      },
      "isClaimer(address)": {
        "notice": "returns true if the caller has been added as claimer on this contract"
      },
      "read()": {
        "notice": "returns the owner of this contract, the expiration date and if the caller is one of the claimers"
      },
      "removeClaimer(address)": {
        "notice": "Removes a claimer from the contract"
      },
      "renounceOwnership()": {
        "notice": "Renouncing to ownership will leave the contract without an owner. It will not be possible to call the functions with the `onlyOwner` modifier anymore."
      },
      "sellVote(address,uint256)": {
        "notice": "Puts a vote for sale for a specified price."
      },
      "setExpirationTime(uint256)": {
        "notice": "allows the owner to set a new expiration time to extend the ownership of this contract"
      },
      "vote(bytes32,address)": {
        "notice": "Stores a vote from the message sender.  Each address can vote only once and only as long as the poll is not closed. Each address can also sell their voting rights for others, which allows the buyer to vote."
      }
    },
    "notice": "A poll is a contract that stores potential options to vote on, as well as which addresses have voted already. Addresses can vote on the poll until the poll owner closes the contract. Addresses can also put their votes for sale as long as they have not voted yet."
  }
}