{
  "contractName": "PollingStation",
  "abi": [
    {
      "anonymous": false,
      "inputs": [
        {
          "indexed": true,
          "internalType": "address",
          "name": "claimer",
          "type": "address"
        }
      ],
      "name": "ClaimerAdded",
      "type": "event"
    },
    {
      "anonymous": false,
      "inputs": [
        {
          "indexed": true,
          "internalType": "address",
          "name": "claimer",
          "type": "address"
        }
      ],
      "name": "ClaimerRemoved",
      "type": "event"
    },
    {
      "anonymous": false,
      "inputs": [
        {
          "indexed": false,
          "internalType": "uint256",
          "name": "oldExpiration",
          "type": "uint256"
        },
        {
          "indexed": false,
          "internalType": "uint256",
          "name": "newExpiration",
          "type": "uint256"
        }
      ],
      "name": "ExpirationUpdated",
      "type": "event"
    },
    {
      "anonymous": false,
      "inputs": [
        {
          "indexed": true,
          "internalType": "address",
          "name": "previousOwner",
          "type": "address"
        },
        {
          "indexed": true,
          "internalType": "address",
          "name": "newOwner",
          "type": "address"
        }
      ],
      "name": "OwnershipTransferred",
      "type": "event"
    },
    {
      "anonymous": false,
      "inputs": [
        {
          "indexed": true,
          "internalType": "address",
          "name": "creator",
          "type": "address"
        },
        {
          "indexed": true,
          "internalType": "uint256",
          "name": "pollId",
          "type": "uint256"
        },
        {
          "indexed": true,
          "internalType": "address",
          "name": "pollAddr",
          "type": "address"
        },
        {
          "indexed": false,
          "internalType": "string",
          "name": "name",
          "type": "string"
        }
      ],
      "name": "PollCreated",
      "type": "event"
    },
    {
      "constant": false,
      "inputs": [
        {
          "internalType": "address",
          "name": "_claimer",
          "type": "address"
        }
      ],
      "name": "addClaimer",
      "outputs": [],
      "payable": false,
      "stateMutability": "nonpayable",
      "type": "function"
    },
    {
      "constant": false,
      "inputs": [],
      "name": "claim",
      "outputs": [],
      "payable": false,
      "stateMutability": "nonpayable",
      "type": "function"
    },
    {
      "constant": true,
      "inputs": [],
      "name": "debugnow",
      "outputs": [
        {
          "internalType": "uint256",
          "name": "",
          "type": "uint256"
        }
      ],
      "payable": false,
      "stateMutability": "view",
      "type": "function"
    },
    {
      "constant": true,
      "inputs": [],
      "name": "getExpirationTime",
      "outputs": [
        {
          "internalType": "uint256",
          "name": "",
          "type": "uint256"
        }
      ],
      "payable": false,
      "stateMutability": "view",
      "type": "function"
    },
    {
      "constant": true,
      "inputs": [],
      "name": "isClaimable",
      "outputs": [
        {
          "internalType": "bool",
          "name": "",
          "type": "bool"
        },
        {
          "internalType": "bool",
          "name": "",
          "type": "bool"
        },
        {
          "internalType": "bool",
          "name": "",
          "type": "bool"
        }
      ],
      "payable": false,
      "stateMutability": "view",
      "type": "function"
    },
    {
      "constant": true,
      "inputs": [
        {
          "internalType": "address",
          "name": "_claimer",
          "type": "address"
        }
      ],
      "name": "isClaimer",
      "outputs": [
        {
          "internalType": "bool",
          "name": "",
          "type": "bool"
        }
      ],
      "payable": false,
      "stateMutability": "view",
      "type": "function"
    },
    {
      "constant": true,
      "inputs": [],
      "name": "isOwner",
      "outputs": [
        {
          "internalType": "bool",
          "name": "",
          "type": "bool"
        }
      ],
      "payable": false,
      "stateMutability": "view",
      "type": "function"
    },
    {
      "constant": true,
      "inputs": [],
      "name": "owner",
      "outputs": [
        {
          "internalType": "address",
          "name": "",
          "type": "address"
        }
      ],
      "payable": false,
      "stateMutability": "view",
      "type": "function"
    },
    {
      "constant": true,
      "inputs": [
        {
          "internalType": "uint256",
          "name": "",
          "type": "uint256"
        }
      ],
      "name": "polls",
      "outputs": [
        {
          "internalType": "contract Poll",
          "name": "",
          "type": "address"
        }
      ],
      "payable": false,
      "stateMutability": "view",
      "type": "function"
    },
    {
      "constant": true,
      "inputs": [],
      "name": "read",
      "outputs": [
        {
          "internalType": "address",
          "name": "",
          "type": "address"
        },
        {
          "internalType": "uint256",
          "name": "",
          "type": "uint256"
        },
        {
          "internalType": "bool",
          "name": "",
          "type": "bool"
        }
      ],
      "payable": false,
      "stateMutability": "view",
      "type": "function"
    },
    {
      "constant": false,
      "inputs": [
        {
          "internalType": "address",
          "name": "_claimer",
          "type": "address"
        }
      ],
      "name": "removeClaimer",
      "outputs": [],
      "payable": false,
      "stateMutability": "nonpayable",
      "type": "function"
    },
    {
      "constant": false,
      "inputs": [],
      "name": "renounceOwnership",
      "outputs": [],
      "payable": false,
      "stateMutability": "nonpayable",
      "type": "function"
    },
    {
      "constant": false,
      "inputs": [
        {
          "internalType": "uint256",
          "name": "_expirationTime",
          "type": "uint256"
        }
      ],
      "name": "setExpirationTime",
      "outputs": [],
      "payable": false,
      "stateMutability": "nonpayable",
      "type": "function"
    },
    {
      "constant": false,
      "inputs": [
        {
          "internalType": "address",
          "name": "newOwner",
          "type": "address"
        }
      ],
      "name": "transferOwnership",
      "outputs": [],
      "payable": false,
      "stateMutability": "nonpayable",
      "type": "function"
    },
    {
      "constant": false,
      "inputs": [
        {
          "internalType": "string",
          "name": "_name",
          "type": "string"
        },
        {
          "internalType": "bytes32[]",
          "name": "_options",
          "type": "bytes32[]"
        }
      ],
      "name": "createPoll",
      "outputs": [
        {
          "internalType": "uint256",
          "name": "",
          "type": "uint256"
        },
        {
          "internalType": "address",
          "name": "",
          "type": "address"
        }
      ],
      "payable": false,
      "stateMutability": "nonpayable",
      "type": "function"
    },
    {
      "constant": false,
      "inputs": [
        {
          "internalType": "uint256",
          "name": "pollId",
          "type": "uint256"
        }
      ],
      "name": "closePoll",
      "outputs": [],
      "payable": false,
      "stateMutability": "nonpayable",
      "type": "function"
    },
    {
      "constant": true,
      "inputs": [],
      "name": "getMyPolls",
      "outputs": [
        {
          "internalType": "uint256[]",
          "name": "",
          "type": "uint256[]"
        }
      ],
      "payable": false,
      "stateMutability": "view",
      "type": "function"
    },
    {
      "constant": true,
      "inputs": [],
      "name": "getCount",
      "outputs": [
        {
          "internalType": "uint256",
          "name": "count",
          "type": "uint256"
        }
      ],
      "payable": false,
      "stateMutability": "view",
      "type": "function"
    }
  ],
  "bytecode": "0x6080604052336000806101000a81548173ffffffffffffffffffffffffffffffffffffffff021916908373ffffffffffffffffffffffffffffffffffffffff1602179055506000809054906101000a900473ffffffffffffffffffffffffffffffffffffffff1673ffffffffffffffffffffffffffffffffffffffff16600073ffffffffffffffffffffffffffffffffffffffff167f8be0079c531659141344cd1fd0a4f28419497f9722a3daafe3b4186f6b6457e060405160405180910390a36137d0806100cf6000396000f3fe60806040523480156200001157600080fd5b50600436106200012f5760003560e01c80638f32d59b11620000b1578063c0cc365d116200007b578063c0cc365d14620005be578063e1aa071c14620005ef578063e23a845a146200060f578063f0490b8a146200062f578063f2fde38b1462000676576200012f565b80638f32d59b14620004d85780639534e63714620004fc578063a87d942c146200052d578063ac2f0074146200054d576200012f565b80634e71d92d11620000ff5780634e71d92d14620003dc57806357de26a414620003e8578063715018a6146200044657806374478bb314620004525780638da5cb5b146200048c576200012f565b8062f63722146200013457806310a8aecd14620002d3578063170b5add14620003325780632ea664011462000395575b600080fd5b6200028a600480360360408110156200014c57600080fd5b81019080803590602001906401000000008111156200016a57600080fd5b8201836020820111156200017d57600080fd5b80359060200191846001830284011164010000000083111715620001a057600080fd5b91908080601f016020809104026020016040519081016040528093929190818152602001838380828437600081840152601f19601f820116905080830192505050505050509192919290803590602001906401000000008111156200020457600080fd5b8201836020820111156200021757600080fd5b803590602001918460208302840111640100000000831117156200023a57600080fd5b919080806020026020016040519081016040528093929190818152602001838360200280828437600081840152601f19601f820116905080830192505050505050509192919290505050620006bd565b604051808381526020018273ffffffffffffffffffffffffffffffffffffffff1673ffffffffffffffffffffffffffffffffffffffff1681526020019250505060405180910390f35b6200031860048036036020811015620002eb57600080fd5b81019080803573ffffffffffffffffffffffffffffffffffffffff16906020019092919050505062000a00565b604051808215151515815260200191505060405180910390f35b6200033c62000a56565b6040518080602001828103825283818151815260200191508051906020019060200280838360005b838110156200038157808201518184015260208101905062000364565b505050509050019250505060405180910390f35b620003da60048036036020811015620003ad57600080fd5b81019080803573ffffffffffffffffffffffffffffffffffffffff16906020019092919050505062000aed565b005b620003e662000bf6565b005b620003f262000c3c565b604051808473ffffffffffffffffffffffffffffffffffffffff1673ffffffffffffffffffffffffffffffffffffffff16815260200183815260200182151515158152602001935050505060405180910390f35b6200045062000c64565b005b6200045c62000d37565b60405180841515151581526020018315151515815260200182151515158152602001935050505060405180910390f35b6200049662000d62565b604051808273ffffffffffffffffffffffffffffffffffffffff1673ffffffffffffffffffffffffffffffffffffffff16815260200191505060405180910390f35b620004e262000d8b565b604051808215151515815260200191505060405180910390f35b6200052b600480360360208110156200051457600080fd5b810190808035906020019092919050505062000de2565b005b6200053762000f7b565b6040518082815260200191505060405180910390f35b6200057c600480360360208110156200056557600080fd5b810190808035906020019092919050505062000f88565b604051808273ffffffffffffffffffffffffffffffffffffffff1673ffffffffffffffffffffffffffffffffffffffff16815260200191505060405180910390f35b620005ed60048036036020811015620005d657600080fd5b810190808035906020019092919050505062000fc5565b005b620005f96200102a565b6040518082815260200191505060405180910390f35b6200061962001032565b6040518082815260200191505060405180910390f35b62000674600480360360208110156200064757600080fd5b81019080803573ffffffffffffffffffffffffffffffffffffffff1690602001909291905050506200103c565b005b620006bb600480360360208110156200068e57600080fd5b81019080803573ffffffffffffffffffffffffffffffffffffffff16906020019092919050505062001145565b005b60008060008484604051620006d29062001260565b808060200180602001838103835285818151815260200191508051906020019080838360005b8381101562000715578082015181840152602081019050620006f8565b50505050905090810190601f168015620007435780820380516001836020036101000a031916815260200191505b50838103825284818151815260200191508051906020019060200280838360005b838110156200078157808201518184015260208101905062000764565b50505050905001945050505050604051809103906000f080158015620007ab573d6000803e3d6000fd5b50905060038190806001815401808255809150509060018203906000526020600020016000909192909190916101000a81548173ffffffffffffffffffffffffffffffffffffffff021916908373ffffffffffffffffffffffffffffffffffffffff1602179055505060006001600380549050039050600460003373ffffffffffffffffffffffffffffffffffffffff1673ffffffffffffffffffffffffffffffffffffffff1681526020019081526020016000208190806001815401808255809150509060018203906000526020600020016000909192909190915055508173ffffffffffffffffffffffffffffffffffffffff16813373ffffffffffffffffffffffffffffffffffffffff167f7ea57775055a1d04b0e99841ebddb0a6bf8ca4d1b0474329fdd201c5d3ac6c57896040518080602001828103825283818151815260200191508051906020019080838360005b838110156200091d57808201518184015260208101905062000900565b50505050905090810190601f1680156200094b5780820380516001836020036101000a031916815260200191505b509250505060405180910390a48173ffffffffffffffffffffffffffffffffffffffff1663f2fde38b336040518263ffffffff1660e01b8152600401808273ffffffffffffffffffffffffffffffffffffffff1673ffffffffffffffffffffffffffffffffffffffff168152602001915050600060405180830381600087803b158015620009d857600080fd5b505af1158015620009ed573d6000803e3d6000fd5b5050505080829350935050509250929050565b6000600160008373ffffffffffffffffffffffffffffffffffffffff1673ffffffffffffffffffffffffffffffffffffffff16815260200190815260200160002060009054906101000a900460ff169050919050565b6060600460003373ffffffffffffffffffffffffffffffffffffffff1673ffffffffffffffffffffffffffffffffffffffff16815260200190815260200160002080548060200260200160405190810160405280929190818152602001828054801562000ae357602002820191906000526020600020905b81548152602001906001019080831162000ace575b5050505050905090565b62000af762000d8b565b62000b0157600080fd5b600160008273ffffffffffffffffffffffffffffffffffffffff1673ffffffffffffffffffffffffffffffffffffffff16815260200190815260200160002060009054906101000a900460ff161562000b5957600080fd5b60018060008373ffffffffffffffffffffffffffffffffffffffff1673ffffffffffffffffffffffffffffffffffffffff16815260200190815260200160002060006101000a81548160ff0219169083151502179055508073ffffffffffffffffffffffffffffffffffffffff167fff9a8f4e0a39755c20c899b46171e470382709479fce2aa1e388f95edfe0173960405160405180910390a250565b62000c013362000a00565b62000c0b57600080fd5b600254421162000c1a57600080fd5b62000c2462000d8b565b1562000c2f57600080fd5b62000c3a3362001167565b565b600080600062000c4b62000d62565b60025462000c593362000a00565b925092509250909192565b62000c6e62000d8b565b62000c7857600080fd5b600073ffffffffffffffffffffffffffffffffffffffff166000809054906101000a900473ffffffffffffffffffffffffffffffffffffffff1673ffffffffffffffffffffffffffffffffffffffff167f8be0079c531659141344cd1fd0a4f28419497f9722a3daafe3b4186f6b6457e060405160405180910390a360008060006101000a81548173ffffffffffffffffffffffffffffffffffffffff021916908373ffffffffffffffffffffffffffffffffffffffff160217905550565b600080600062000d473362000a00565b600254421162000d5662000d8b565b15925092509250909192565b60008060009054906101000a900473ffffffffffffffffffffffffffffffffffffffff16905090565b60008060009054906101000a900473ffffffffffffffffffffffffffffffffffffffff1673ffffffffffffffffffffffffffffffffffffffff163373ffffffffffffffffffffffffffffffffffffffff1614905090565b803373ffffffffffffffffffffffffffffffffffffffff166003828154811062000e0857fe5b9060005260206000200160009054906101000a900473ffffffffffffffffffffffffffffffffffffffff1673ffffffffffffffffffffffffffffffffffffffff16638da5cb5b6040518163ffffffff1660e01b815260040160206040518083038186803b15801562000e7957600080fd5b505afa15801562000e8e573d6000803e3d6000fd5b505050506040513d602081101562000ea557600080fd5b810190808051906020019092919050505073ffffffffffffffffffffffffffffffffffffffff161462000ed757600080fd5b60006003838154811062000ee757fe5b9060005260206000200160009054906101000a900473ffffffffffffffffffffffffffffffffffffffff1690508073ffffffffffffffffffffffffffffffffffffffff1663ed8c2aed6040518163ffffffff1660e01b8152600401600060405180830381600087803b15801562000f5d57600080fd5b505af115801562000f72573d6000803e3d6000fd5b50505050505050565b6000600380549050905090565b6003818154811062000f9657fe5b906000526020600020016000915054906101000a900473ffffffffffffffffffffffffffffffffffffffff1681565b62000fcf62000d8b565b62000fd957600080fd5b60006002549050816002819055507f48bd2ad49200e0ca36b95736b1b720e3a4db1eb87715905a0242d11e90fcf1768183604051808381526020018281526020019250505060405180910390a15050565b600042905090565b6000600254905090565b6200104662000d8b565b6200105057600080fd5b600160008273ffffffffffffffffffffffffffffffffffffffff1673ffffffffffffffffffffffffffffffffffffffff16815260200190815260200160002060009054906101000a900460ff16620010a757600080fd5b6000600160008373ffffffffffffffffffffffffffffffffffffffff1673ffffffffffffffffffffffffffffffffffffffff16815260200190815260200160002060006101000a81548160ff0219169083151502179055508073ffffffffffffffffffffffffffffffffffffffff167f30acaa541089592567cd4ce36437c68778a43e66dc1a9e7031e4496faf45932560405160405180910390a250565b6200114f62000d8b565b6200115957600080fd5b620011648162001167565b50565b600073ffffffffffffffffffffffffffffffffffffffff168173ffffffffffffffffffffffffffffffffffffffff161415620011a257600080fd5b8073ffffffffffffffffffffffffffffffffffffffff166000809054906101000a900473ffffffffffffffffffffffffffffffffffffffff1673ffffffffffffffffffffffffffffffffffffffff167f8be0079c531659141344cd1fd0a4f28419497f9722a3daafe3b4186f6b6457e060405160405180910390a3806000806101000a81548173ffffffffffffffffffffffffffffffffffffffff021916908373ffffffffffffffffffffffffffffffffffffffff16021790555050565b61252d806200126f8339019056fe60806040523480156200001157600080fd5b506040516200252d3803806200252d833981810160405260408110156200003757600080fd5b81019080805160405193929190846401000000008211156200005857600080fd5b838201915060208201858111156200006f57600080fd5b82518660018202830111640100000000821117156200008d57600080fd5b8083526020830192505050908051906020019080838360005b83811015620000c3578082015181840152602081019050620000a6565b50505050905090810190601f168015620000f15780820380516001836020036101000a031916815260200191505b50604052602001805160405193929190846401000000008211156200011557600080fd5b838201915060208201858111156200012c57600080fd5b82518660208202830111640100000000821117156200014a57600080fd5b8083526020830192505050908051906020019060200280838360005b838110156200018357808201518184015260208101905062000166565b50505050905001604052505050336000806101000a81548173ffffffffffffffffffffffffffffffffffffffff021916908373ffffffffffffffffffffffffffffffffffffffff1602179055506000809054906101000a900473ffffffffffffffffffffffffffffffffffffffff1673ffffffffffffffffffffffffffffffffffffffff16600073ffffffffffffffffffffffffffffffffffffffff167f8be0079c531659141344cd1fd0a4f28419497f9722a3daafe3b4186f6b6457e060405160405180910390a360008151116200025b57600080fd5b81600390805190602001906200027392919062000308565b5060008090505b8151811015620002ff5760048282815181106200029357fe5b6020026020010151908060018154018082558091505090600182039060005260206000200160009091929091909150555060056000908060018154018082558091505090600182039060005260206000200160009091929091909150555080806001019150506200027a565b505050620003b7565b828054600181600116156101000203166002900490600052602060002090601f016020900481019282601f106200034b57805160ff19168380011785556200037c565b828001600101855582156200037c579182015b828111156200037b5782518255916020019190600101906200035e565b5b5090506200038b91906200038f565b5090565b620003b491905b80821115620003b057600081600090555060010162000396565b5090565b90565b61216680620003c76000396000f3fe6080604052600436106101815760003560e01c80638da5cb5b116100d1578063e1aa071c1161008a578063e7b3387c11610064578063e7b3387c14610866578063ed8c2aed146108d2578063f0490b8a146108e9578063f2fde38b1461093a57610181565b8063e1aa071c1461079f578063e23a845a146107ca578063e5ed5b1e146107f557610181565b80638da5cb5b146105dd5780638f32d59b14610634578063b4545a8714610663578063c0cc365d146106b4578063cc2ee196146106ef578063df1edbe81461075b57610181565b80634e71d92d1161013e578063709c927611610118578063709c927614610478578063715018a6146104d357806374478bb3146104ea5780638d337b811461052f57610181565b80634e71d92d146103c957806357de26a4146103e0578063597e1fb51461044957610181565b806302d947ef1461018657806306fdde03146101e157806310a8aecd146102715780632ea66401146102da5780633c3a220d1461032b578063409e22051461037a575b600080fd5b34801561019257600080fd5b506101df600480360360408110156101a957600080fd5b8101908080359060200190929190803573ffffffffffffffffffffffffffffffffffffffff16906020019092919050505061098b565b005b3480156101ed57600080fd5b506101f6610c65565b6040518080602001828103825283818151815260200191508051906020019080838360005b8381101561023657808201518184015260208101905061021b565b50505050905090810190601f1680156102635780820380516001836020036101000a031916815260200191505b509250505060405180910390f35b34801561027d57600080fd5b506102c06004803603602081101561029457600080fd5b81019080803573ffffffffffffffffffffffffffffffffffffffff169060200190929190505050610d03565b604051808215151515815260200191505060405180910390f35b3480156102e657600080fd5b50610329600480360360208110156102fd57600080fd5b81019080803573ffffffffffffffffffffffffffffffffffffffff169060200190929190505050610d59565b005b34801561033757600080fd5b506103646004803603602081101561034e57600080fd5b8101908080359060200190929190505050610e5e565b6040518082815260200191505060405180910390f35b34801561038657600080fd5b506103b36004803603602081101561039d57600080fd5b8101908080359060200190929190505050610e7f565b6040518082815260200191505060405180910390f35b3480156103d557600080fd5b506103de610ea0565b005b3480156103ec57600080fd5b506103f5610edd565b604051808473ffffffffffffffffffffffffffffffffffffffff1673ffffffffffffffffffffffffffffffffffffffff16815260200183815260200182151515158152602001935050505060405180910390f35b34801561045557600080fd5b5061045e610f01565b604051808215151515815260200191505060405180910390f35b34801561048457600080fd5b506104d16004803603604081101561049b57600080fd5b81019080803573ffffffffffffffffffffffffffffffffffffffff16906020019092919080359060200190929190505050610f14565b005b3480156104df57600080fd5b506104e8611235565b005b3480156104f657600080fd5b506104ff611305565b60405180841515151581526020018315151515815260200182151515158152602001935050505060405180910390f35b34801561053b57600080fd5b5061057e6004803603602081101561055257600080fd5b81019080803573ffffffffffffffffffffffffffffffffffffffff16906020019092919050505061132c565b6040518085151515158152602001841515151581526020018381526020018273ffffffffffffffffffffffffffffffffffffffff1673ffffffffffffffffffffffffffffffffffffffff16815260200194505050505060405180910390f35b3480156105e957600080fd5b506105f26113d6565b604051808273ffffffffffffffffffffffffffffffffffffffff1673ffffffffffffffffffffffffffffffffffffffff16815260200191505060405180910390f35b34801561064057600080fd5b506106496113ff565b604051808215151515815260200191505060405180910390f35b34801561066f57600080fd5b506106b26004803603602081101561068657600080fd5b81019080803573ffffffffffffffffffffffffffffffffffffffff169060200190929190505050611456565b005b3480156106c057600080fd5b506106ed600480360360208110156106d757600080fd5b810190808035906020019092919050505061175b565b005b3480156106fb57600080fd5b506107046117bd565b6040518080602001828103825283818151815260200191508051906020019060200280838360005b8381101561074757808201518184015260208101905061072c565b505050509050019250505060405180910390f35b61079d6004803603602081101561077157600080fd5b81019080803573ffffffffffffffffffffffffffffffffffffffff169060200190929190505050611815565b005b3480156107ab57600080fd5b506107b4611b4a565b6040518082815260200191505060405180910390f35b3480156107d657600080fd5b506107df611b52565b6040518082815260200191505060405180910390f35b34801561080157600080fd5b506108646004803603604081101561081857600080fd5b81019080803573ffffffffffffffffffffffffffffffffffffffff169060200190929190803573ffffffffffffffffffffffffffffffffffffffff169060200190929190505050611b5c565b005b34801561087257600080fd5b5061087b611e34565b6040518080602001828103825283818151815260200191508051906020019060200280838360005b838110156108be5780820151818401526020810190506108a3565b505050509050019250505060405180910390f35b3480156108de57600080fd5b506108e7611e8c565b005b3480156108f557600080fd5b506109386004803603602081101561090c57600080fd5b81019080803573ffffffffffffffffffffffffffffffffffffffff169060200190929190505050611f17565b005b34801561094657600080fd5b506109896004803603602081101561095d57600080fd5b81019080803573ffffffffffffffffffffffffffffffffffffffff16906020019092919050505061201c565b005b80600660008273ffffffffffffffffffffffffffffffffffffffff1673ffffffffffffffffffffffffffffffffffffffff16815260200190815260200160002060000160009054906101000a900460ff16156109e657600080fd5b81600073ffffffffffffffffffffffffffffffffffffffff16600660008373ffffffffffffffffffffffffffffffffffffffff1673ffffffffffffffffffffffffffffffffffffffff16815260200190815260200160002060020160009054906101000a900473ffffffffffffffffffffffffffffffffffffffff1673ffffffffffffffffffffffffffffffffffffffff16148015610ab057503373ffffffffffffffffffffffffffffffffffffffff168173ffffffffffffffffffffffffffffffffffffffff16145b80610b4857503373ffffffffffffffffffffffffffffffffffffffff16600660008373ffffffffffffffffffffffffffffffffffffffff1673ffffffffffffffffffffffffffffffffffffffff16815260200190815260200160002060020160009054906101000a900473ffffffffffffffffffffffffffffffffffffffff1673ffffffffffffffffffffffffffffffffffffffff16145b610b5157600080fd5b600760009054906101000a900460ff1615610b6b57600080fd5b60058481548110610b7857fe5b90600052602060002001600081548092919060010191905055506001600660008573ffffffffffffffffffffffffffffffffffffffff1673ffffffffffffffffffffffffffffffffffffffff16815260200190815260200160002060000160006101000a81548160ff0219169083151502179055503373ffffffffffffffffffffffffffffffffffffffff168373ffffffffffffffffffffffffffffffffffffffff1660048681548110610c2857fe5b90600052602060002001547f49800724769cfeab686bbed287515c62b0780b3ca377ad4dc33a74a2b84ea8a560405160405180910390a450505050565b60038054600181600116156101000203166002900480601f016020809104026020016040519081016040528092919081815260200182805460018160011615610100020316600290048015610cfb5780601f10610cd057610100808354040283529160200191610cfb565b820191906000526020600020905b815481529060010190602001808311610cde57829003601f168201915b505050505081565b6000600160008373ffffffffffffffffffffffffffffffffffffffff1673ffffffffffffffffffffffffffffffffffffffff16815260200190815260200160002060009054906101000a900460ff169050919050565b610d616113ff565b610d6a57600080fd5b600160008273ffffffffffffffffffffffffffffffffffffffff1673ffffffffffffffffffffffffffffffffffffffff16815260200190815260200160002060009054906101000a900460ff1615610dc157600080fd5b60018060008373ffffffffffffffffffffffffffffffffffffffff1673ffffffffffffffffffffffffffffffffffffffff16815260200190815260200160002060006101000a81548160ff0219169083151502179055508073ffffffffffffffffffffffffffffffffffffffff167fff9a8f4e0a39755c20c899b46171e470382709479fce2aa1e388f95edfe0173960405160405180910390a250565b60058181548110610e6b57fe5b906000526020600020016000915090505481565b60048181548110610e8c57fe5b906000526020600020016000915090505481565b610ea933610d03565b610eb257600080fd5b6002544211610ec057600080fd5b610ec86113ff565b15610ed257600080fd5b610edb33612039565b565b6000806000610eea6113d6565b600254610ef633610d03565b925092509250909192565b600760009054906101000a900460ff1681565b81600660008273ffffffffffffffffffffffffffffffffffffffff1673ffffffffffffffffffffffffffffffffffffffff16815260200190815260200160002060000160009054906101000a900460ff1615610f6f57600080fd5b82600073ffffffffffffffffffffffffffffffffffffffff16600660008373ffffffffffffffffffffffffffffffffffffffff1673ffffffffffffffffffffffffffffffffffffffff16815260200190815260200160002060020160009054906101000a900473ffffffffffffffffffffffffffffffffffffffff1673ffffffffffffffffffffffffffffffffffffffff1614801561103957503373ffffffffffffffffffffffffffffffffffffffff168173ffffffffffffffffffffffffffffffffffffffff16145b806110d157503373ffffffffffffffffffffffffffffffffffffffff16600660008373ffffffffffffffffffffffffffffffffffffffff1673ffffffffffffffffffffffffffffffffffffffff16815260200190815260200160002060020160009054906101000a900473ffffffffffffffffffffffffffffffffffffffff1673ffffffffffffffffffffffffffffffffffffffff16145b6110da57600080fd5b600760009054906101000a900460ff16156110f457600080fd5b6000831161116a576040517f08c379a000000000000000000000000000000000000000000000000000000000815260040180806020018281038252601b8152602001807f5072696365206d75737420626520686967686572207468616e2030000000000081525060200191505060405180910390fd5b6000600660008673ffffffffffffffffffffffffffffffffffffffff1673ffffffffffffffffffffffffffffffffffffffff168152602001908152602001600020905083816001018190555060018160000160016101000a81548160ff0219169083151502179055503373ffffffffffffffffffffffffffffffffffffffff16848673ffffffffffffffffffffffffffffffffffffffff167f5bd9c8cd0416570878f22361aa825b83e275af1f5ad3af2e353e1f498405b00860405160405180910390a45050505050565b61123d6113ff565b61124657600080fd5b600073ffffffffffffffffffffffffffffffffffffffff166000809054906101000a900473ffffffffffffffffffffffffffffffffffffffff1673ffffffffffffffffffffffffffffffffffffffff167f8be0079c531659141344cd1fd0a4f28419497f9722a3daafe3b4186f6b6457e060405160405180910390a360008060006101000a81548173ffffffffffffffffffffffffffffffffffffffff021916908373ffffffffffffffffffffffffffffffffffffffff160217905550565b600080600061131333610d03565b60025442116113206113ff565b15925092509250909192565b6000806000806000600660008773ffffffffffffffffffffffffffffffffffffffff1673ffffffffffffffffffffffffffffffffffffffff16815260200190815260200160002090508060000160009054906101000a900460ff168160000160019054906101000a900460ff1682600101548360020160009054906101000a900473ffffffffffffffffffffffffffffffffffffffff168090509450945094509450509193509193565b60008060009054906101000a900473ffffffffffffffffffffffffffffffffffffffff16905090565b60008060009054906101000a900473ffffffffffffffffffffffffffffffffffffffff1673ffffffffffffffffffffffffffffffffffffffff163373ffffffffffffffffffffffffffffffffffffffff1614905090565b80600660008273ffffffffffffffffffffffffffffffffffffffff1673ffffffffffffffffffffffffffffffffffffffff16815260200190815260200160002060000160009054906101000a900460ff16156114b157600080fd5b81600073ffffffffffffffffffffffffffffffffffffffff16600660008373ffffffffffffffffffffffffffffffffffffffff1673ffffffffffffffffffffffffffffffffffffffff16815260200190815260200160002060020160009054906101000a900473ffffffffffffffffffffffffffffffffffffffff1673ffffffffffffffffffffffffffffffffffffffff1614801561157b57503373ffffffffffffffffffffffffffffffffffffffff168173ffffffffffffffffffffffffffffffffffffffff16145b8061161357503373ffffffffffffffffffffffffffffffffffffffff16600660008373ffffffffffffffffffffffffffffffffffffffff1673ffffffffffffffffffffffffffffffffffffffff16815260200190815260200160002060020160009054906101000a900473ffffffffffffffffffffffffffffffffffffffff1673ffffffffffffffffffffffffffffffffffffffff16145b61161c57600080fd5b82600660008273ffffffffffffffffffffffffffffffffffffffff1673ffffffffffffffffffffffffffffffffffffffff16815260200190815260200160002060000160019054906101000a900460ff1661167657600080fd5b600760009054906101000a900460ff161561169057600080fd5b6000600660008673ffffffffffffffffffffffffffffffffffffffff1673ffffffffffffffffffffffffffffffffffffffff16815260200190815260200160002090506000816001018190555060008160000160016101000a81548160ff0219169083151502179055503373ffffffffffffffffffffffffffffffffffffffff168573ffffffffffffffffffffffffffffffffffffffff167f65b12a532dda3308398d0ea60c768a0bf2509db55bf7f257c1087b14cfd3cfef60405160405180910390a35050505050565b6117636113ff565b61176c57600080fd5b60006002549050816002819055507f48bd2ad49200e0ca36b95736b1b720e3a4db1eb87715905a0242d11e90fcf1768183604051808381526020018281526020019250505060405180910390a15050565b6060600480548060200260200160405190810160405280929190818152602001828054801561180b57602002820191906000526020600020905b8154815260200190600101908083116117f7575b5050505050905090565b80600660008273ffffffffffffffffffffffffffffffffffffffff1673ffffffffffffffffffffffffffffffffffffffff16815260200190815260200160002060000160009054906101000a900460ff161561187057600080fd5b81600660008273ffffffffffffffffffffffffffffffffffffffff1673ffffffffffffffffffffffffffffffffffffffff16815260200190815260200160002060000160019054906101000a900460ff166118ca57600080fd5b600760009054906101000a900460ff16156118e457600080fd5b6000600660008573ffffffffffffffffffffffffffffffffffffffff1673ffffffffffffffffffffffffffffffffffffffff168152602001908152602001600020905060008160020160009054906101000a900473ffffffffffffffffffffffffffffffffffffffff16905081600101543410156119ca576040517f08c379a000000000000000000000000000000000000000000000000000000000815260040180806020018281038252601c8152602001807f4e6f7420656e6f7567682066756e6473207472616e736665727265640000000081525060200191505060405180910390fd5b60008260010154340390508173ffffffffffffffffffffffffffffffffffffffff166108fc84600101549081150290604051600060405180830381858888f19350505050158015611a1f573d6000803e3d6000fd5b506000811115611a71573373ffffffffffffffffffffffffffffffffffffffff166108fc829081150290604051600060405180830381858888f19350505050158015611a6f573d6000803e3d6000fd5b505b60008360000160016101000a81548160ff021916908315150217905550338360020160006101000a81548173ffffffffffffffffffffffffffffffffffffffff021916908373ffffffffffffffffffffffffffffffffffffffff1602179055503373ffffffffffffffffffffffffffffffffffffffff168273ffffffffffffffffffffffffffffffffffffffff168773ffffffffffffffffffffffffffffffffffffffff167fb294c26ec0b075ccd4d6ae733f6661019eab6c771ba5eec5ce6ac6513ab0388660405160405180910390a4505050505050565b600042905090565b6000600254905090565b81600660008273ffffffffffffffffffffffffffffffffffffffff1673ffffffffffffffffffffffffffffffffffffffff16815260200190815260200160002060000160009054906101000a900460ff1615611bb757600080fd5b82600073ffffffffffffffffffffffffffffffffffffffff16600660008373ffffffffffffffffffffffffffffffffffffffff1673ffffffffffffffffffffffffffffffffffffffff16815260200190815260200160002060020160009054906101000a900473ffffffffffffffffffffffffffffffffffffffff1673ffffffffffffffffffffffffffffffffffffffff16148015611c8157503373ffffffffffffffffffffffffffffffffffffffff168173ffffffffffffffffffffffffffffffffffffffff16145b80611d1957503373ffffffffffffffffffffffffffffffffffffffff16600660008373ffffffffffffffffffffffffffffffffffffffff1673ffffffffffffffffffffffffffffffffffffffff16815260200190815260200160002060020160009054906101000a900473ffffffffffffffffffffffffffffffffffffffff1673ffffffffffffffffffffffffffffffffffffffff16145b611d2257600080fd5b600760009054906101000a900460ff1615611d3c57600080fd5b82600660008673ffffffffffffffffffffffffffffffffffffffff1673ffffffffffffffffffffffffffffffffffffffff16815260200190815260200160002060020160006101000a81548173ffffffffffffffffffffffffffffffffffffffff021916908373ffffffffffffffffffffffffffffffffffffffff1602179055508273ffffffffffffffffffffffffffffffffffffffff163373ffffffffffffffffffffffffffffffffffffffff168573ffffffffffffffffffffffffffffffffffffffff167fb294c26ec0b075ccd4d6ae733f6661019eab6c771ba5eec5ce6ac6513ab0388660405160405180910390a450505050565b60606005805480602002602001604051908101604052809291908181526020018280548015611e8257602002820191906000526020600020905b815481526020019060010190808311611e6e575b5050505050905090565b600760009054906101000a900460ff1615611ea657600080fd5b611eae6113ff565b611eb757600080fd5b6001600760006101000a81548160ff0219169083151502179055503073ffffffffffffffffffffffffffffffffffffffff167f231ba46a9796cfff3206eb206f870c5e4f68248af093e30cf9e3dd48857a6e6660405160405180910390a2565b611f1f6113ff565b611f2857600080fd5b600160008273ffffffffffffffffffffffffffffffffffffffff1673ffffffffffffffffffffffffffffffffffffffff16815260200190815260200160002060009054906101000a900460ff16611f7e57600080fd5b6000600160008373ffffffffffffffffffffffffffffffffffffffff1673ffffffffffffffffffffffffffffffffffffffff16815260200190815260200160002060006101000a81548160ff0219169083151502179055508073ffffffffffffffffffffffffffffffffffffffff167f30acaa541089592567cd4ce36437c68778a43e66dc1a9e7031e4496faf45932560405160405180910390a250565b6120246113ff565b61202d57600080fd5b61203681612039565b50565b600073ffffffffffffffffffffffffffffffffffffffff168173ffffffffffffffffffffffffffffffffffffffff16141561207357600080fd5b8073ffffffffffffffffffffffffffffffffffffffff166000809054906101000a900473ffffffffffffffffffffffffffffffffffffffff1673ffffffffffffffffffffffffffffffffffffffff167f8be0079c531659141344cd1fd0a4f28419497f9722a3daafe3b4186f6b6457e060405160405180910390a3806000806101000a81548173ffffffffffffffffffffffffffffffffffffffff021916908373ffffffffffffffffffffffffffffffffffffffff1602179055505056fea265627a7a723158208212d5c14cf6ca10a60b9aca3da56315c4ae81d83c955eff0fbe8cf4b4a2b75c64736f6c63430005100032a265627a7a72315820d212a6ba6e3c2b280cb8b71bfac3d87a78d4172a22f485212452b05dd55c7cc364736f6c63430005100032",
  "source": "pragma solidity >=0.5.16;\n\nimport \"@gmussi-contracts/gmussi-claimable/contracts/Claimable.sol\";\nimport \"./Poll.sol\";\n\n/**\n * This contract allows for the creation and management of Polls\n */\ncontract PollingStation is Claimable {\n    Poll[] public polls;\n    mapping (address => uint[]) pollByOwners;\n\n    event PollCreated (address indexed creator, uint indexed pollId, address indexed pollAddr, string name);\n\n    function createPoll(string memory _name, bytes32[] memory _options) public returns(uint, address) {\n        Poll _poll = new Poll(_name, _options);\n                \n        polls.push(_poll);\n        uint pollId = polls.length - 1;\n        pollByOwners[msg.sender].push(pollId);\n\n        emit PollCreated(msg.sender, pollId, address(_poll), _name);\n\n        _poll.transferOwnership(msg.sender); // why does this fail if i place right after \"new\"?\n\n        return (pollId, address(_poll));\n    }\n\n    function closePoll(uint pollId) public onlyCreator(pollId) {\n        Poll poll = polls[pollId];\n        poll.closePoll();\n    }\n\n    function getMyPolls() public view returns(uint[] memory) {\n        return pollByOwners[msg.sender];\n    }\n\n    modifier onlyCreator (uint pollId) {\n        require(polls[pollId].owner() == msg.sender);\n        _;\n    }\n\n    function getCount() public view returns(uint count) {\n        return polls.length;\n    }\n}",
  "sourcePath": "/Users/gmussi/git/solidity-voting/contracts/PollingStation.sol",
  "compiler": {
    "name": "solc",
    "version": "0.5.16+commit.9c3226ce.Emscripten.clang"
  },
  "schemaVersion": "3.4.1",
  "updatedAt": "2021-07-06T13:48:21.335Z",
  "devdoc": {
    "methods": {
      "addClaimer(address)": {
        "params": {
          "_claimer": "address of the claimer to be added"
        }
      },
      "getExpirationTime()": {
        "return": "uint with the expiration time"
      },
      "isClaimable()": {
        "details": "The contract is claimable when the 3 results are true.",
        "return": "bool: is a claimer, bool: is expired, bool: is not owner"
      },
      "isClaimer(address)": {
        "params": {
          "_claimer": "address to verify"
        },
        "return": "true if the caller has been added as claimer, false, otherwise"
      },
      "isOwner()": {
        "return": "true if `msg.sender` is the owner of the contract."
      },
      "owner()": {
        "return": "the address of the owner."
      },
      "read()": {
        "return": "(address: owner of this contract, uint: the expiration date, bool: is caller a claimers?)"
      },
      "removeClaimer(address)": {
        "params": {
          "_claimer": "address of the claimer to be removed"
        }
      },
      "renounceOwnership()": {
        "details": "Allows the current owner to relinquish control of the contract."
      },
      "setExpirationTime(uint256)": {
        "params": {
          "_expirationTime": "the new expiration time for this contract"
        }
      },
      "transferOwnership(address)": {
        "details": "Allows the current owner to transfer control of the contract to a newOwner.",
        "params": {
          "newOwner": "The address to transfer ownership to."
        }
      }
    }
  },
  "userdoc": {
    "methods": {
      "addClaimer(address)": {
        "notice": "Adds a new claimer to the contract"
      },
      "claim()": {
        "notice": "Claim ownership of the contract, once the max inactive time is reached.  Only addresses in claimers can claim, unless the array is empty."
      },
      "getExpirationTime()": {
        "notice": "Gets the current expiration time set in this contract"
      },
      "isClaimable()": {
        "notice": "Checks if the expiration date is passed and contract can be claimed."
      },
      "isClaimer(address)": {
        "notice": "returns true if the caller has been added as claimer on this contract"
      },
      "read()": {
        "notice": "returns the owner of this contract, the expiration date and if the caller is one of the claimers"
      },
      "removeClaimer(address)": {
        "notice": "Removes a claimer from the contract"
      },
      "renounceOwnership()": {
        "notice": "Renouncing to ownership will leave the contract without an owner. It will not be possible to call the functions with the `onlyOwner` modifier anymore."
      },
      "setExpirationTime(uint256)": {
        "notice": "allows the owner to set a new expiration time to extend the ownership of this contract"
      }
    },
    "notice": "This contract allows for the creation and management of Polls"
  }
}