{
  "contractName": "PollingStation",
  "abi": [
    {
      "anonymous": false,
      "inputs": [
        {
          "indexed": true,
          "internalType": "address",
          "name": "claimer",
          "type": "address"
        }
      ],
      "name": "ClaimerAdded",
      "type": "event"
    },
    {
      "anonymous": false,
      "inputs": [
        {
          "indexed": true,
          "internalType": "address",
          "name": "claimer",
          "type": "address"
        }
      ],
      "name": "ClaimerRemoved",
      "type": "event"
    },
    {
      "anonymous": false,
      "inputs": [
        {
          "indexed": false,
          "internalType": "uint256",
          "name": "oldExpiration",
          "type": "uint256"
        },
        {
          "indexed": false,
          "internalType": "uint256",
          "name": "newExpiration",
          "type": "uint256"
        }
      ],
      "name": "ExpirationUpdated",
      "type": "event"
    },
    {
      "anonymous": false,
      "inputs": [
        {
          "indexed": true,
          "internalType": "address",
          "name": "previousOwner",
          "type": "address"
        },
        {
          "indexed": true,
          "internalType": "address",
          "name": "newOwner",
          "type": "address"
        }
      ],
      "name": "OwnershipTransferred",
      "type": "event"
    },
    {
      "anonymous": false,
      "inputs": [
        {
          "indexed": true,
          "internalType": "address",
          "name": "pollAddr",
          "type": "address"
        }
      ],
      "name": "PollClosed",
      "type": "event"
    },
    {
      "anonymous": false,
      "inputs": [
        {
          "indexed": true,
          "internalType": "address",
          "name": "creator",
          "type": "address"
        },
        {
          "indexed": true,
          "internalType": "uint256",
          "name": "pollId",
          "type": "uint256"
        },
        {
          "indexed": true,
          "internalType": "address",
          "name": "pollAddr",
          "type": "address"
        },
        {
          "indexed": false,
          "internalType": "string",
          "name": "name",
          "type": "string"
        }
      ],
      "name": "PollCreated",
      "type": "event"
    },
    {
      "constant": false,
      "inputs": [
        {
          "internalType": "address",
          "name": "_claimer",
          "type": "address"
        }
      ],
      "name": "addClaimer",
      "outputs": [],
      "payable": false,
      "stateMutability": "nonpayable",
      "type": "function"
    },
    {
      "constant": false,
      "inputs": [],
      "name": "claim",
      "outputs": [],
      "payable": false,
      "stateMutability": "nonpayable",
      "type": "function"
    },
    {
      "constant": true,
      "inputs": [],
      "name": "debugnow",
      "outputs": [
        {
          "internalType": "uint256",
          "name": "",
          "type": "uint256"
        }
      ],
      "payable": false,
      "stateMutability": "view",
      "type": "function"
    },
    {
      "constant": true,
      "inputs": [],
      "name": "getExpirationTime",
      "outputs": [
        {
          "internalType": "uint256",
          "name": "",
          "type": "uint256"
        }
      ],
      "payable": false,
      "stateMutability": "view",
      "type": "function"
    },
    {
      "constant": true,
      "inputs": [],
      "name": "isClaimable",
      "outputs": [
        {
          "internalType": "bool",
          "name": "",
          "type": "bool"
        },
        {
          "internalType": "bool",
          "name": "",
          "type": "bool"
        },
        {
          "internalType": "bool",
          "name": "",
          "type": "bool"
        }
      ],
      "payable": false,
      "stateMutability": "view",
      "type": "function"
    },
    {
      "constant": true,
      "inputs": [
        {
          "internalType": "address",
          "name": "_claimer",
          "type": "address"
        }
      ],
      "name": "isClaimer",
      "outputs": [
        {
          "internalType": "bool",
          "name": "",
          "type": "bool"
        }
      ],
      "payable": false,
      "stateMutability": "view",
      "type": "function"
    },
    {
      "constant": true,
      "inputs": [],
      "name": "isOwner",
      "outputs": [
        {
          "internalType": "bool",
          "name": "",
          "type": "bool"
        }
      ],
      "payable": false,
      "stateMutability": "view",
      "type": "function"
    },
    {
      "constant": true,
      "inputs": [],
      "name": "owner",
      "outputs": [
        {
          "internalType": "address",
          "name": "",
          "type": "address"
        }
      ],
      "payable": false,
      "stateMutability": "view",
      "type": "function"
    },
    {
      "constant": true,
      "inputs": [
        {
          "internalType": "uint256",
          "name": "",
          "type": "uint256"
        }
      ],
      "name": "polls",
      "outputs": [
        {
          "internalType": "contract Poll",
          "name": "",
          "type": "address"
        }
      ],
      "payable": false,
      "stateMutability": "view",
      "type": "function"
    },
    {
      "constant": true,
      "inputs": [],
      "name": "read",
      "outputs": [
        {
          "internalType": "address",
          "name": "",
          "type": "address"
        },
        {
          "internalType": "uint256",
          "name": "",
          "type": "uint256"
        },
        {
          "internalType": "bool",
          "name": "",
          "type": "bool"
        }
      ],
      "payable": false,
      "stateMutability": "view",
      "type": "function"
    },
    {
      "constant": false,
      "inputs": [
        {
          "internalType": "address",
          "name": "_claimer",
          "type": "address"
        }
      ],
      "name": "removeClaimer",
      "outputs": [],
      "payable": false,
      "stateMutability": "nonpayable",
      "type": "function"
    },
    {
      "constant": false,
      "inputs": [],
      "name": "renounceOwnership",
      "outputs": [],
      "payable": false,
      "stateMutability": "nonpayable",
      "type": "function"
    },
    {
      "constant": false,
      "inputs": [
        {
          "internalType": "uint256",
          "name": "_expirationTime",
          "type": "uint256"
        }
      ],
      "name": "setExpirationTime",
      "outputs": [],
      "payable": false,
      "stateMutability": "nonpayable",
      "type": "function"
    },
    {
      "constant": false,
      "inputs": [
        {
          "internalType": "address",
          "name": "newOwner",
          "type": "address"
        }
      ],
      "name": "transferOwnership",
      "outputs": [],
      "payable": false,
      "stateMutability": "nonpayable",
      "type": "function"
    },
    {
      "constant": false,
      "inputs": [
        {
          "internalType": "string",
          "name": "_name",
          "type": "string"
        },
        {
          "internalType": "bytes32[]",
          "name": "_options",
          "type": "bytes32[]"
        }
      ],
      "name": "createPoll",
      "outputs": [
        {
          "internalType": "uint256",
          "name": "",
          "type": "uint256"
        },
        {
          "internalType": "address",
          "name": "",
          "type": "address"
        }
      ],
      "payable": false,
      "stateMutability": "nonpayable",
      "type": "function"
    },
    {
      "constant": false,
      "inputs": [
        {
          "internalType": "contract Poll",
          "name": "poll",
          "type": "address"
        }
      ],
      "name": "pollClosed",
      "outputs": [],
      "payable": false,
      "stateMutability": "nonpayable",
      "type": "function"
    },
    {
      "constant": true,
      "inputs": [],
      "name": "getMyPolls",
      "outputs": [
        {
          "internalType": "uint256[]",
          "name": "",
          "type": "uint256[]"
        }
      ],
      "payable": false,
      "stateMutability": "view",
      "type": "function"
    },
    {
      "constant": true,
      "inputs": [],
      "name": "getCount",
      "outputs": [
        {
          "internalType": "uint256",
          "name": "count",
          "type": "uint256"
        }
      ],
      "payable": false,
      "stateMutability": "view",
      "type": "function"
    }
  ],
  "bytecode": "0x6080604052336000806101000a81548173ffffffffffffffffffffffffffffffffffffffff021916908373ffffffffffffffffffffffffffffffffffffffff1602179055506000809054906101000a900473ffffffffffffffffffffffffffffffffffffffff1673ffffffffffffffffffffffffffffffffffffffff16600073ffffffffffffffffffffffffffffffffffffffff167f8be0079c531659141344cd1fd0a4f28419497f9722a3daafe3b4186f6b6457e060405160405180910390a3613805806100cf6000396000f3fe60806040523480156200001157600080fd5b50600436106200012f5760003560e01c80638f32d59b11620000b1578063c0cc365d116200007b578063c0cc365d14620005d4578063e1aa071c1462000605578063e23a845a1462000625578063f0490b8a1462000645578063f2fde38b146200068c576200012f565b80638f32d59b14620004d8578063a87d942c14620004fc578063ac2f0074146200051c578063af9da81f146200058d576200012f565b80634e71d92d11620000ff5780634e71d92d14620003dc57806357de26a414620003e8578063715018a6146200044657806374478bb314620004525780638da5cb5b146200048c576200012f565b8062f63722146200013457806310a8aecd14620002d3578063170b5add14620003325780632ea664011462000395575b600080fd5b6200028a600480360360408110156200014c57600080fd5b81019080803590602001906401000000008111156200016a57600080fd5b8201836020820111156200017d57600080fd5b80359060200191846001830284011164010000000083111715620001a057600080fd5b91908080601f016020809104026020016040519081016040528093929190818152602001838380828437600081840152601f19601f820116905080830192505050505050509192919290803590602001906401000000008111156200020457600080fd5b8201836020820111156200021757600080fd5b803590602001918460208302840111640100000000831117156200023a57600080fd5b919080806020026020016040519081016040528093929190818152602001838360200280828437600081840152601f19601f820116905080830192505050505050509192919290505050620006d3565b604051808381526020018273ffffffffffffffffffffffffffffffffffffffff1673ffffffffffffffffffffffffffffffffffffffff1681526020019250505060405180910390f35b6200031860048036036020811015620002eb57600080fd5b81019080803573ffffffffffffffffffffffffffffffffffffffff16906020019092919050505062000a4a565b604051808215151515815260200191505060405180910390f35b6200033c62000aa0565b6040518080602001828103825283818151815260200191508051906020019060200280838360005b838110156200038157808201518184015260208101905062000364565b505050509050019250505060405180910390f35b620003da60048036036020811015620003ad57600080fd5b81019080803573ffffffffffffffffffffffffffffffffffffffff16906020019092919050505062000b37565b005b620003e662000c40565b005b620003f262000c86565b604051808473ffffffffffffffffffffffffffffffffffffffff1673ffffffffffffffffffffffffffffffffffffffff16815260200183815260200182151515158152602001935050505060405180910390f35b6200045062000cae565b005b6200045c62000d81565b60405180841515151581526020018315151515815260200182151515158152602001935050505060405180910390f35b6200049662000dac565b604051808273ffffffffffffffffffffffffffffffffffffffff1673ffffffffffffffffffffffffffffffffffffffff16815260200191505060405180910390f35b620004e262000dd5565b604051808215151515815260200191505060405180910390f35b6200050662000e2c565b6040518082815260200191505060405180910390f35b6200054b600480360360208110156200053457600080fd5b810190808035906020019092919050505062000e39565b604051808273ffffffffffffffffffffffffffffffffffffffff1673ffffffffffffffffffffffffffffffffffffffff16815260200191505060405180910390f35b620005d260048036036020811015620005a557600080fd5b81019080803573ffffffffffffffffffffffffffffffffffffffff16906020019092919050505062000e76565b005b6200060360048036036020811015620005ec57600080fd5b810190808035906020019092919050505062000ef5565b005b6200060f62000f5a565b6040518082815260200191505060405180910390f35b6200062f62000f62565b6040518082815260200191505060405180910390f35b6200068a600480360360208110156200065d57600080fd5b81019080803573ffffffffffffffffffffffffffffffffffffffff16906020019092919050505062000f6c565b005b620006d160048036036020811015620006a457600080fd5b81019080803573ffffffffffffffffffffffffffffffffffffffff16906020019092919050505062001075565b005b6000806000308585604051620006e99062001190565b808473ffffffffffffffffffffffffffffffffffffffff1673ffffffffffffffffffffffffffffffffffffffff1681526020018060200180602001838103835285818151815260200191508051906020019080838360005b838110156200075e57808201518184015260208101905062000741565b50505050905090810190601f1680156200078c5780820380516001836020036101000a031916815260200191505b50838103825284818151815260200191508051906020019060200280838360005b83811015620007ca578082015181840152602081019050620007ad565b5050505090500195505050505050604051809103906000f080158015620007f5573d6000803e3d6000fd5b50905060038190806001815401808255809150509060018203906000526020600020016000909192909190916101000a81548173ffffffffffffffffffffffffffffffffffffffff021916908373ffffffffffffffffffffffffffffffffffffffff1602179055505060006001600380549050039050600460003373ffffffffffffffffffffffffffffffffffffffff1673ffffffffffffffffffffffffffffffffffffffff1681526020019081526020016000208190806001815401808255809150509060018203906000526020600020016000909192909190915055508173ffffffffffffffffffffffffffffffffffffffff16813373ffffffffffffffffffffffffffffffffffffffff167f7ea57775055a1d04b0e99841ebddb0a6bf8ca4d1b0474329fdd201c5d3ac6c57896040518080602001828103825283818151815260200191508051906020019080838360005b83811015620009675780820151818401526020810190506200094a565b50505050905090810190601f168015620009955780820380516001836020036101000a031916815260200191505b509250505060405180910390a48173ffffffffffffffffffffffffffffffffffffffff1663f2fde38b336040518263ffffffff1660e01b8152600401808273ffffffffffffffffffffffffffffffffffffffff1673ffffffffffffffffffffffffffffffffffffffff168152602001915050600060405180830381600087803b15801562000a2257600080fd5b505af115801562000a37573d6000803e3d6000fd5b5050505080829350935050509250929050565b6000600160008373ffffffffffffffffffffffffffffffffffffffff1673ffffffffffffffffffffffffffffffffffffffff16815260200190815260200160002060009054906101000a900460ff169050919050565b6060600460003373ffffffffffffffffffffffffffffffffffffffff1673ffffffffffffffffffffffffffffffffffffffff16815260200190815260200160002080548060200260200160405190810160405280929190818152602001828054801562000b2d57602002820191906000526020600020905b81548152602001906001019080831162000b18575b5050505050905090565b62000b4162000dd5565b62000b4b57600080fd5b600160008273ffffffffffffffffffffffffffffffffffffffff1673ffffffffffffffffffffffffffffffffffffffff16815260200190815260200160002060009054906101000a900460ff161562000ba357600080fd5b60018060008373ffffffffffffffffffffffffffffffffffffffff1673ffffffffffffffffffffffffffffffffffffffff16815260200190815260200160002060006101000a81548160ff0219169083151502179055508073ffffffffffffffffffffffffffffffffffffffff167fff9a8f4e0a39755c20c899b46171e470382709479fce2aa1e388f95edfe0173960405160405180910390a250565b62000c4b3362000a4a565b62000c5557600080fd5b600254421162000c6457600080fd5b62000c6e62000dd5565b1562000c7957600080fd5b62000c843362001097565b565b600080600062000c9562000dac565b60025462000ca33362000a4a565b925092509250909192565b62000cb862000dd5565b62000cc257600080fd5b600073ffffffffffffffffffffffffffffffffffffffff166000809054906101000a900473ffffffffffffffffffffffffffffffffffffffff1673ffffffffffffffffffffffffffffffffffffffff167f8be0079c531659141344cd1fd0a4f28419497f9722a3daafe3b4186f6b6457e060405160405180910390a360008060006101000a81548173ffffffffffffffffffffffffffffffffffffffff021916908373ffffffffffffffffffffffffffffffffffffffff160217905550565b600080600062000d913362000a4a565b600254421162000da062000dd5565b15925092509250909192565b60008060009054906101000a900473ffffffffffffffffffffffffffffffffffffffff16905090565b60008060009054906101000a900473ffffffffffffffffffffffffffffffffffffffff1673ffffffffffffffffffffffffffffffffffffffff163373ffffffffffffffffffffffffffffffffffffffff1614905090565b6000600380549050905090565b6003818154811062000e4757fe5b906000526020600020016000915054906101000a900473ffffffffffffffffffffffffffffffffffffffff1681565b8073ffffffffffffffffffffffffffffffffffffffff163373ffffffffffffffffffffffffffffffffffffffff161462000eaf57600080fd5b8073ffffffffffffffffffffffffffffffffffffffff167f231ba46a9796cfff3206eb206f870c5e4f68248af093e30cf9e3dd48857a6e6660405160405180910390a250565b62000eff62000dd5565b62000f0957600080fd5b60006002549050816002819055507f48bd2ad49200e0ca36b95736b1b720e3a4db1eb87715905a0242d11e90fcf1768183604051808381526020018281526020019250505060405180910390a15050565b600042905090565b6000600254905090565b62000f7662000dd5565b62000f8057600080fd5b600160008273ffffffffffffffffffffffffffffffffffffffff1673ffffffffffffffffffffffffffffffffffffffff16815260200190815260200160002060009054906101000a900460ff1662000fd757600080fd5b6000600160008373ffffffffffffffffffffffffffffffffffffffff1673ffffffffffffffffffffffffffffffffffffffff16815260200190815260200160002060006101000a81548160ff0219169083151502179055508073ffffffffffffffffffffffffffffffffffffffff167f30acaa541089592567cd4ce36437c68778a43e66dc1a9e7031e4496faf45932560405160405180910390a250565b6200107f62000dd5565b6200108957600080fd5b620010948162001097565b50565b600073ffffffffffffffffffffffffffffffffffffffff168173ffffffffffffffffffffffffffffffffffffffff161415620010d257600080fd5b8073ffffffffffffffffffffffffffffffffffffffff166000809054906101000a900473ffffffffffffffffffffffffffffffffffffffff1673ffffffffffffffffffffffffffffffffffffffff167f8be0079c531659141344cd1fd0a4f28419497f9722a3daafe3b4186f6b6457e060405160405180910390a3806000806101000a81548173ffffffffffffffffffffffffffffffffffffffff021916908373ffffffffffffffffffffffffffffffffffffffff16021790555050565b612632806200119f8339019056fe60806040523480156200001157600080fd5b506040516200263238038062002632833981810160405260608110156200003757600080fd5b8101908080519060200190929190805160405193929190846401000000008211156200006257600080fd5b838201915060208201858111156200007957600080fd5b82518660018202830111640100000000821117156200009757600080fd5b8083526020830192505050908051906020019080838360005b83811015620000cd578082015181840152602081019050620000b0565b50505050905090810190601f168015620000fb5780820380516001836020036101000a031916815260200191505b50604052602001805160405193929190846401000000008211156200011f57600080fd5b838201915060208201858111156200013657600080fd5b82518660208202830111640100000000821117156200015457600080fd5b8083526020830192505050908051906020019060200280838360005b838110156200018d57808201518184015260208101905062000170565b50505050905001604052505050336000806101000a81548173ffffffffffffffffffffffffffffffffffffffff021916908373ffffffffffffffffffffffffffffffffffffffff1602179055506000809054906101000a900473ffffffffffffffffffffffffffffffffffffffff1673ffffffffffffffffffffffffffffffffffffffff16600073ffffffffffffffffffffffffffffffffffffffff167f8be0079c531659141344cd1fd0a4f28419497f9722a3daafe3b4186f6b6457e060405160405180910390a360008151116200026557600080fd5b82600360006101000a81548173ffffffffffffffffffffffffffffffffffffffff021916908373ffffffffffffffffffffffffffffffffffffffff1602179055508160049080519060200190620002be92919062000354565b5060008090505b81518110156200034a576005828281518110620002de57fe5b602002602001015190806001815401808255809150509060018203906000526020600020016000909192909190915055506006600090806001815401808255809150509060018203906000526020600020016000909192909190915055508080600101915050620002c5565b5050505062000403565b828054600181600116156101000203166002900490600052602060002090601f016020900481019282601f106200039757805160ff1916838001178555620003c8565b82800160010185558215620003c8579182015b82811115620003c7578251825591602001919060010190620003aa565b5b509050620003d79190620003db565b5090565b6200040091905b80821115620003fc576000816000905550600101620003e2565b5090565b90565b61221f80620004136000396000f3fe6080604052600436106101815760003560e01c80638da5cb5b116100d1578063e1aa071c1161008a578063e7b3387c11610064578063e7b3387c14610866578063ed8c2aed146108d2578063f0490b8a146108e9578063f2fde38b1461093a57610181565b8063e1aa071c1461079f578063e23a845a146107ca578063e5ed5b1e146107f557610181565b80638da5cb5b146105dd5780638f32d59b14610634578063b4545a8714610663578063c0cc365d146106b4578063cc2ee196146106ef578063df1edbe81461075b57610181565b80634e71d92d1161013e578063709c927611610118578063709c927614610478578063715018a6146104d357806374478bb3146104ea5780638d337b811461052f57610181565b80634e71d92d146103c957806357de26a4146103e0578063597e1fb51461044957610181565b806302d947ef1461018657806306fdde03146101e157806310a8aecd146102715780632ea66401146102da5780633c3a220d1461032b578063409e22051461037a575b600080fd5b34801561019257600080fd5b506101df600480360360408110156101a957600080fd5b8101908080359060200190929190803573ffffffffffffffffffffffffffffffffffffffff16906020019092919050505061098b565b005b3480156101ed57600080fd5b506101f6610c65565b6040518080602001828103825283818151815260200191508051906020019080838360005b8381101561023657808201518184015260208101905061021b565b50505050905090810190601f1680156102635780820380516001836020036101000a031916815260200191505b509250505060405180910390f35b34801561027d57600080fd5b506102c06004803603602081101561029457600080fd5b81019080803573ffffffffffffffffffffffffffffffffffffffff169060200190929190505050610d03565b604051808215151515815260200191505060405180910390f35b3480156102e657600080fd5b50610329600480360360208110156102fd57600080fd5b81019080803573ffffffffffffffffffffffffffffffffffffffff169060200190929190505050610d59565b005b34801561033757600080fd5b506103646004803603602081101561034e57600080fd5b8101908080359060200190929190505050610e5e565b6040518082815260200191505060405180910390f35b34801561038657600080fd5b506103b36004803603602081101561039d57600080fd5b8101908080359060200190929190505050610e7f565b6040518082815260200191505060405180910390f35b3480156103d557600080fd5b506103de610ea0565b005b3480156103ec57600080fd5b506103f5610edd565b604051808473ffffffffffffffffffffffffffffffffffffffff1673ffffffffffffffffffffffffffffffffffffffff16815260200183815260200182151515158152602001935050505060405180910390f35b34801561045557600080fd5b5061045e610f01565b604051808215151515815260200191505060405180910390f35b34801561048457600080fd5b506104d16004803603604081101561049b57600080fd5b81019080803573ffffffffffffffffffffffffffffffffffffffff16906020019092919080359060200190929190505050610f14565b005b3480156104df57600080fd5b506104e8611235565b005b3480156104f657600080fd5b506104ff611305565b60405180841515151581526020018315151515815260200182151515158152602001935050505060405180910390f35b34801561053b57600080fd5b5061057e6004803603602081101561055257600080fd5b81019080803573ffffffffffffffffffffffffffffffffffffffff16906020019092919050505061132c565b6040518085151515158152602001841515151581526020018381526020018273ffffffffffffffffffffffffffffffffffffffff1673ffffffffffffffffffffffffffffffffffffffff16815260200194505050505060405180910390f35b3480156105e957600080fd5b506105f26113d6565b604051808273ffffffffffffffffffffffffffffffffffffffff1673ffffffffffffffffffffffffffffffffffffffff16815260200191505060405180910390f35b34801561064057600080fd5b506106496113ff565b604051808215151515815260200191505060405180910390f35b34801561066f57600080fd5b506106b26004803603602081101561068657600080fd5b81019080803573ffffffffffffffffffffffffffffffffffffffff169060200190929190505050611456565b005b3480156106c057600080fd5b506106ed600480360360208110156106d757600080fd5b810190808035906020019092919050505061175b565b005b3480156106fb57600080fd5b506107046117bd565b6040518080602001828103825283818151815260200191508051906020019060200280838360005b8381101561074757808201518184015260208101905061072c565b505050509050019250505060405180910390f35b61079d6004803603602081101561077157600080fd5b81019080803573ffffffffffffffffffffffffffffffffffffffff169060200190929190505050611815565b005b3480156107ab57600080fd5b506107b4611b4a565b6040518082815260200191505060405180910390f35b3480156107d657600080fd5b506107df611b52565b6040518082815260200191505060405180910390f35b34801561080157600080fd5b506108646004803603604081101561081857600080fd5b81019080803573ffffffffffffffffffffffffffffffffffffffff169060200190929190803573ffffffffffffffffffffffffffffffffffffffff169060200190929190505050611b5c565b005b34801561087257600080fd5b5061087b611e34565b6040518080602001828103825283818151815260200191508051906020019060200280838360005b838110156108be5780820151818401526020810190506108a3565b505050509050019250505060405180910390f35b3480156108de57600080fd5b506108e7611e8c565b005b3480156108f557600080fd5b506109386004803603602081101561090c57600080fd5b81019080803573ffffffffffffffffffffffffffffffffffffffff169060200190929190505050611fd0565b005b34801561094657600080fd5b506109896004803603602081101561095d57600080fd5b81019080803573ffffffffffffffffffffffffffffffffffffffff1690602001909291905050506120d5565b005b80600760008273ffffffffffffffffffffffffffffffffffffffff1673ffffffffffffffffffffffffffffffffffffffff16815260200190815260200160002060000160009054906101000a900460ff16156109e657600080fd5b81600073ffffffffffffffffffffffffffffffffffffffff16600760008373ffffffffffffffffffffffffffffffffffffffff1673ffffffffffffffffffffffffffffffffffffffff16815260200190815260200160002060020160009054906101000a900473ffffffffffffffffffffffffffffffffffffffff1673ffffffffffffffffffffffffffffffffffffffff16148015610ab057503373ffffffffffffffffffffffffffffffffffffffff168173ffffffffffffffffffffffffffffffffffffffff16145b80610b4857503373ffffffffffffffffffffffffffffffffffffffff16600760008373ffffffffffffffffffffffffffffffffffffffff1673ffffffffffffffffffffffffffffffffffffffff16815260200190815260200160002060020160009054906101000a900473ffffffffffffffffffffffffffffffffffffffff1673ffffffffffffffffffffffffffffffffffffffff16145b610b5157600080fd5b600860009054906101000a900460ff1615610b6b57600080fd5b60068481548110610b7857fe5b90600052602060002001600081548092919060010191905055506001600760008573ffffffffffffffffffffffffffffffffffffffff1673ffffffffffffffffffffffffffffffffffffffff16815260200190815260200160002060000160006101000a81548160ff0219169083151502179055503373ffffffffffffffffffffffffffffffffffffffff168373ffffffffffffffffffffffffffffffffffffffff1660058681548110610c2857fe5b90600052602060002001547f49800724769cfeab686bbed287515c62b0780b3ca377ad4dc33a74a2b84ea8a560405160405180910390a450505050565b60048054600181600116156101000203166002900480601f016020809104026020016040519081016040528092919081815260200182805460018160011615610100020316600290048015610cfb5780601f10610cd057610100808354040283529160200191610cfb565b820191906000526020600020905b815481529060010190602001808311610cde57829003601f168201915b505050505081565b6000600160008373ffffffffffffffffffffffffffffffffffffffff1673ffffffffffffffffffffffffffffffffffffffff16815260200190815260200160002060009054906101000a900460ff169050919050565b610d616113ff565b610d6a57600080fd5b600160008273ffffffffffffffffffffffffffffffffffffffff1673ffffffffffffffffffffffffffffffffffffffff16815260200190815260200160002060009054906101000a900460ff1615610dc157600080fd5b60018060008373ffffffffffffffffffffffffffffffffffffffff1673ffffffffffffffffffffffffffffffffffffffff16815260200190815260200160002060006101000a81548160ff0219169083151502179055508073ffffffffffffffffffffffffffffffffffffffff167fff9a8f4e0a39755c20c899b46171e470382709479fce2aa1e388f95edfe0173960405160405180910390a250565b60068181548110610e6b57fe5b906000526020600020016000915090505481565b60058181548110610e8c57fe5b906000526020600020016000915090505481565b610ea933610d03565b610eb257600080fd5b6002544211610ec057600080fd5b610ec86113ff565b15610ed257600080fd5b610edb336120f2565b565b6000806000610eea6113d6565b600254610ef633610d03565b925092509250909192565b600860009054906101000a900460ff1681565b81600760008273ffffffffffffffffffffffffffffffffffffffff1673ffffffffffffffffffffffffffffffffffffffff16815260200190815260200160002060000160009054906101000a900460ff1615610f6f57600080fd5b82600073ffffffffffffffffffffffffffffffffffffffff16600760008373ffffffffffffffffffffffffffffffffffffffff1673ffffffffffffffffffffffffffffffffffffffff16815260200190815260200160002060020160009054906101000a900473ffffffffffffffffffffffffffffffffffffffff1673ffffffffffffffffffffffffffffffffffffffff1614801561103957503373ffffffffffffffffffffffffffffffffffffffff168173ffffffffffffffffffffffffffffffffffffffff16145b806110d157503373ffffffffffffffffffffffffffffffffffffffff16600760008373ffffffffffffffffffffffffffffffffffffffff1673ffffffffffffffffffffffffffffffffffffffff16815260200190815260200160002060020160009054906101000a900473ffffffffffffffffffffffffffffffffffffffff1673ffffffffffffffffffffffffffffffffffffffff16145b6110da57600080fd5b600860009054906101000a900460ff16156110f457600080fd5b6000831161116a576040517f08c379a000000000000000000000000000000000000000000000000000000000815260040180806020018281038252601b8152602001807f5072696365206d75737420626520686967686572207468616e2030000000000081525060200191505060405180910390fd5b6000600760008673ffffffffffffffffffffffffffffffffffffffff1673ffffffffffffffffffffffffffffffffffffffff168152602001908152602001600020905083816001018190555060018160000160016101000a81548160ff0219169083151502179055503373ffffffffffffffffffffffffffffffffffffffff16848673ffffffffffffffffffffffffffffffffffffffff167f5bd9c8cd0416570878f22361aa825b83e275af1f5ad3af2e353e1f498405b00860405160405180910390a45050505050565b61123d6113ff565b61124657600080fd5b600073ffffffffffffffffffffffffffffffffffffffff166000809054906101000a900473ffffffffffffffffffffffffffffffffffffffff1673ffffffffffffffffffffffffffffffffffffffff167f8be0079c531659141344cd1fd0a4f28419497f9722a3daafe3b4186f6b6457e060405160405180910390a360008060006101000a81548173ffffffffffffffffffffffffffffffffffffffff021916908373ffffffffffffffffffffffffffffffffffffffff160217905550565b600080600061131333610d03565b60025442116113206113ff565b15925092509250909192565b6000806000806000600760008773ffffffffffffffffffffffffffffffffffffffff1673ffffffffffffffffffffffffffffffffffffffff16815260200190815260200160002090508060000160009054906101000a900460ff168160000160019054906101000a900460ff1682600101548360020160009054906101000a900473ffffffffffffffffffffffffffffffffffffffff168090509450945094509450509193509193565b60008060009054906101000a900473ffffffffffffffffffffffffffffffffffffffff16905090565b60008060009054906101000a900473ffffffffffffffffffffffffffffffffffffffff1673ffffffffffffffffffffffffffffffffffffffff163373ffffffffffffffffffffffffffffffffffffffff1614905090565b80600760008273ffffffffffffffffffffffffffffffffffffffff1673ffffffffffffffffffffffffffffffffffffffff16815260200190815260200160002060000160009054906101000a900460ff16156114b157600080fd5b81600073ffffffffffffffffffffffffffffffffffffffff16600760008373ffffffffffffffffffffffffffffffffffffffff1673ffffffffffffffffffffffffffffffffffffffff16815260200190815260200160002060020160009054906101000a900473ffffffffffffffffffffffffffffffffffffffff1673ffffffffffffffffffffffffffffffffffffffff1614801561157b57503373ffffffffffffffffffffffffffffffffffffffff168173ffffffffffffffffffffffffffffffffffffffff16145b8061161357503373ffffffffffffffffffffffffffffffffffffffff16600760008373ffffffffffffffffffffffffffffffffffffffff1673ffffffffffffffffffffffffffffffffffffffff16815260200190815260200160002060020160009054906101000a900473ffffffffffffffffffffffffffffffffffffffff1673ffffffffffffffffffffffffffffffffffffffff16145b61161c57600080fd5b82600760008273ffffffffffffffffffffffffffffffffffffffff1673ffffffffffffffffffffffffffffffffffffffff16815260200190815260200160002060000160019054906101000a900460ff1661167657600080fd5b600860009054906101000a900460ff161561169057600080fd5b6000600760008673ffffffffffffffffffffffffffffffffffffffff1673ffffffffffffffffffffffffffffffffffffffff16815260200190815260200160002090506000816001018190555060008160000160016101000a81548160ff0219169083151502179055503373ffffffffffffffffffffffffffffffffffffffff168573ffffffffffffffffffffffffffffffffffffffff167f65b12a532dda3308398d0ea60c768a0bf2509db55bf7f257c1087b14cfd3cfef60405160405180910390a35050505050565b6117636113ff565b61176c57600080fd5b60006002549050816002819055507f48bd2ad49200e0ca36b95736b1b720e3a4db1eb87715905a0242d11e90fcf1768183604051808381526020018281526020019250505060405180910390a15050565b6060600580548060200260200160405190810160405280929190818152602001828054801561180b57602002820191906000526020600020905b8154815260200190600101908083116117f7575b5050505050905090565b80600760008273ffffffffffffffffffffffffffffffffffffffff1673ffffffffffffffffffffffffffffffffffffffff16815260200190815260200160002060000160009054906101000a900460ff161561187057600080fd5b81600760008273ffffffffffffffffffffffffffffffffffffffff1673ffffffffffffffffffffffffffffffffffffffff16815260200190815260200160002060000160019054906101000a900460ff166118ca57600080fd5b600860009054906101000a900460ff16156118e457600080fd5b6000600760008573ffffffffffffffffffffffffffffffffffffffff1673ffffffffffffffffffffffffffffffffffffffff168152602001908152602001600020905060008160020160009054906101000a900473ffffffffffffffffffffffffffffffffffffffff16905081600101543410156119ca576040517f08c379a000000000000000000000000000000000000000000000000000000000815260040180806020018281038252601c8152602001807f4e6f7420656e6f7567682066756e6473207472616e736665727265640000000081525060200191505060405180910390fd5b60008260010154340390508173ffffffffffffffffffffffffffffffffffffffff166108fc84600101549081150290604051600060405180830381858888f19350505050158015611a1f573d6000803e3d6000fd5b506000811115611a71573373ffffffffffffffffffffffffffffffffffffffff166108fc829081150290604051600060405180830381858888f19350505050158015611a6f573d6000803e3d6000fd5b505b60008360000160016101000a81548160ff021916908315150217905550338360020160006101000a81548173ffffffffffffffffffffffffffffffffffffffff021916908373ffffffffffffffffffffffffffffffffffffffff1602179055503373ffffffffffffffffffffffffffffffffffffffff168273ffffffffffffffffffffffffffffffffffffffff168773ffffffffffffffffffffffffffffffffffffffff167fb294c26ec0b075ccd4d6ae733f6661019eab6c771ba5eec5ce6ac6513ab0388660405160405180910390a4505050505050565b600042905090565b6000600254905090565b81600760008273ffffffffffffffffffffffffffffffffffffffff1673ffffffffffffffffffffffffffffffffffffffff16815260200190815260200160002060000160009054906101000a900460ff1615611bb757600080fd5b82600073ffffffffffffffffffffffffffffffffffffffff16600760008373ffffffffffffffffffffffffffffffffffffffff1673ffffffffffffffffffffffffffffffffffffffff16815260200190815260200160002060020160009054906101000a900473ffffffffffffffffffffffffffffffffffffffff1673ffffffffffffffffffffffffffffffffffffffff16148015611c8157503373ffffffffffffffffffffffffffffffffffffffff168173ffffffffffffffffffffffffffffffffffffffff16145b80611d1957503373ffffffffffffffffffffffffffffffffffffffff16600760008373ffffffffffffffffffffffffffffffffffffffff1673ffffffffffffffffffffffffffffffffffffffff16815260200190815260200160002060020160009054906101000a900473ffffffffffffffffffffffffffffffffffffffff1673ffffffffffffffffffffffffffffffffffffffff16145b611d2257600080fd5b600860009054906101000a900460ff1615611d3c57600080fd5b82600760008673ffffffffffffffffffffffffffffffffffffffff1673ffffffffffffffffffffffffffffffffffffffff16815260200190815260200160002060020160006101000a81548173ffffffffffffffffffffffffffffffffffffffff021916908373ffffffffffffffffffffffffffffffffffffffff1602179055508273ffffffffffffffffffffffffffffffffffffffff163373ffffffffffffffffffffffffffffffffffffffff168573ffffffffffffffffffffffffffffffffffffffff167fb294c26ec0b075ccd4d6ae733f6661019eab6c771ba5eec5ce6ac6513ab0388660405160405180910390a450505050565b60606006805480602002602001604051908101604052809291908181526020018280548015611e8257602002820191906000526020600020905b815481526020019060010190808311611e6e575b5050505050905090565b600860009054906101000a900460ff1615611ea657600080fd5b611eae6113ff565b611eb757600080fd5b6001600860006101000a81548160ff021916908315150217905550600360009054906101000a900473ffffffffffffffffffffffffffffffffffffffff1673ffffffffffffffffffffffffffffffffffffffff1663af9da81f306040518263ffffffff1660e01b8152600401808273ffffffffffffffffffffffffffffffffffffffff1673ffffffffffffffffffffffffffffffffffffffff168152602001915050600060405180830381600087803b158015611f7357600080fd5b505af1158015611f87573d6000803e3d6000fd5b505050503073ffffffffffffffffffffffffffffffffffffffff167f231ba46a9796cfff3206eb206f870c5e4f68248af093e30cf9e3dd48857a6e6660405160405180910390a2565b611fd86113ff565b611fe157600080fd5b600160008273ffffffffffffffffffffffffffffffffffffffff1673ffffffffffffffffffffffffffffffffffffffff16815260200190815260200160002060009054906101000a900460ff1661203757600080fd5b6000600160008373ffffffffffffffffffffffffffffffffffffffff1673ffffffffffffffffffffffffffffffffffffffff16815260200190815260200160002060006101000a81548160ff0219169083151502179055508073ffffffffffffffffffffffffffffffffffffffff167f30acaa541089592567cd4ce36437c68778a43e66dc1a9e7031e4496faf45932560405160405180910390a250565b6120dd6113ff565b6120e657600080fd5b6120ef816120f2565b50565b600073ffffffffffffffffffffffffffffffffffffffff168173ffffffffffffffffffffffffffffffffffffffff16141561212c57600080fd5b8073ffffffffffffffffffffffffffffffffffffffff166000809054906101000a900473ffffffffffffffffffffffffffffffffffffffff1673ffffffffffffffffffffffffffffffffffffffff167f8be0079c531659141344cd1fd0a4f28419497f9722a3daafe3b4186f6b6457e060405160405180910390a3806000806101000a81548173ffffffffffffffffffffffffffffffffffffffff021916908373ffffffffffffffffffffffffffffffffffffffff1602179055505056fea265627a7a723158201ce0187764fb9c37da2621d3ec02b4c8b64f0e84fe4b777acac1d94a3e5a4d6164736f6c63430005100032a265627a7a723158206f693f5fcfd2608c94a8cd63ab0dc4936489e3703412bf3b700f860efbbf81d264736f6c63430005100032",
  "source": "pragma solidity >=0.5.16;\n\nimport \"@gmussi-contracts/gmussi-claimable/contracts/Claimable.sol\";\nimport \"./Poll.sol\";\n\n/**\n * This contract allows for the creation and management of Polls\n */\ncontract PollingStation is Claimable {\n    Poll[] public polls;\n    mapping (address => uint[]) pollByOwners;\n\n    event PollCreated (address indexed creator, uint indexed pollId, address indexed pollAddr, string name);\n    event PollClosed (address indexed pollAddr);\n\n    function createPoll(string memory _name, bytes32[] memory _options) public returns(uint, address) {\n        Poll _poll = new Poll(this, _name, _options);\n                \n        polls.push(_poll);\n        uint pollId = polls.length - 1;\n        pollByOwners[msg.sender].push(pollId);\n\n        emit PollCreated(msg.sender, pollId, address(_poll), _name);\n\n        _poll.transferOwnership(msg.sender); // why does this fail if I place right after \"new\"?\n\n        return (pollId, address(_poll));\n    }\n\n    function pollClosed(Poll poll) public {\n        require(msg.sender == address(poll));\n\n        emit PollClosed(address(poll));\n    }\n\n    function getMyPolls() public view returns(uint[] memory) {\n        return pollByOwners[msg.sender];\n    }\n\n    modifier onlyCreator (uint pollId) {\n        require(polls[pollId].owner() == msg.sender);\n        _;\n    }\n\n    function getCount() public view returns(uint count) {\n        return polls.length;\n    }\n}",
  "sourcePath": "/Users/gmussi/git/solidity-voting/contracts/PollingStation.sol",
  "compiler": {
    "name": "solc",
    "version": "0.5.16+commit.9c3226ce.Emscripten.clang"
  },
  "schemaVersion": "3.4.1",
  "updatedAt": "2021-07-12T13:37:21.882Z",
  "networkType": "ethereum",
  "devdoc": {
    "methods": {
      "addClaimer(address)": {
        "params": {
          "_claimer": "address of the claimer to be added"
        }
      },
      "getExpirationTime()": {
        "return": "uint with the expiration time"
      },
      "isClaimable()": {
        "details": "The contract is claimable when the 3 results are true.",
        "return": "bool: is a claimer, bool: is expired, bool: is not owner"
      },
      "isClaimer(address)": {
        "params": {
          "_claimer": "address to verify"
        },
        "return": "true if the caller has been added as claimer, false, otherwise"
      },
      "isOwner()": {
        "return": "true if `msg.sender` is the owner of the contract."
      },
      "owner()": {
        "return": "the address of the owner."
      },
      "read()": {
        "return": "(address: owner of this contract, uint: the expiration date, bool: is caller a claimers?)"
      },
      "removeClaimer(address)": {
        "params": {
          "_claimer": "address of the claimer to be removed"
        }
      },
      "renounceOwnership()": {
        "details": "Allows the current owner to relinquish control of the contract."
      },
      "setExpirationTime(uint256)": {
        "params": {
          "_expirationTime": "the new expiration time for this contract"
        }
      },
      "transferOwnership(address)": {
        "details": "Allows the current owner to transfer control of the contract to a newOwner.",
        "params": {
          "newOwner": "The address to transfer ownership to."
        }
      }
    }
  },
  "userdoc": {
    "methods": {
      "addClaimer(address)": {
        "notice": "Adds a new claimer to the contract"
      },
      "claim()": {
        "notice": "Claim ownership of the contract, once the max inactive time is reached.  Only addresses in claimers can claim, unless the array is empty."
      },
      "getExpirationTime()": {
        "notice": "Gets the current expiration time set in this contract"
      },
      "isClaimable()": {
        "notice": "Checks if the expiration date is passed and contract can be claimed."
      },
      "isClaimer(address)": {
        "notice": "returns true if the caller has been added as claimer on this contract"
      },
      "read()": {
        "notice": "returns the owner of this contract, the expiration date and if the caller is one of the claimers"
      },
      "removeClaimer(address)": {
        "notice": "Removes a claimer from the contract"
      },
      "renounceOwnership()": {
        "notice": "Renouncing to ownership will leave the contract without an owner. It will not be possible to call the functions with the `onlyOwner` modifier anymore."
      },
      "setExpirationTime(uint256)": {
        "notice": "allows the owner to set a new expiration time to extend the ownership of this contract"
      }
    },
    "notice": "This contract allows for the creation and management of Polls"
  }
}