{
  "contractName": "Poll",
  "abi": [
    {
      "inputs": [
        {
          "internalType": "contract PollingStation",
          "name": "_pollingStation",
          "type": "address"
        },
        {
          "internalType": "string",
          "name": "_name",
          "type": "string"
        },
        {
          "internalType": "bytes32[]",
          "name": "_options",
          "type": "bytes32[]"
        }
      ],
      "stateMutability": "nonpayable",
      "type": "constructor"
    },
    {
      "anonymous": false,
      "inputs": [
        {
          "indexed": true,
          "internalType": "address",
          "name": "claimer",
          "type": "address"
        }
      ],
      "name": "ClaimerAdded",
      "type": "event"
    },
    {
      "anonymous": false,
      "inputs": [
        {
          "indexed": true,
          "internalType": "address",
          "name": "claimer",
          "type": "address"
        }
      ],
      "name": "ClaimerRemoved",
      "type": "event"
    },
    {
      "anonymous": false,
      "inputs": [
        {
          "indexed": false,
          "internalType": "uint256",
          "name": "oldExpiration",
          "type": "uint256"
        },
        {
          "indexed": false,
          "internalType": "uint256",
          "name": "newExpiration",
          "type": "uint256"
        }
      ],
      "name": "ExpirationUpdated",
      "type": "event"
    },
    {
      "anonymous": false,
      "inputs": [
        {
          "indexed": true,
          "internalType": "bytes32",
          "name": "option",
          "type": "bytes32"
        },
        {
          "indexed": true,
          "internalType": "address",
          "name": "voteAddr",
          "type": "address"
        },
        {
          "indexed": true,
          "internalType": "address",
          "name": "user",
          "type": "address"
        }
      ],
      "name": "NewVote",
      "type": "event"
    },
    {
      "anonymous": false,
      "inputs": [
        {
          "indexed": true,
          "internalType": "address",
          "name": "previousOwner",
          "type": "address"
        },
        {
          "indexed": true,
          "internalType": "address",
          "name": "newOwner",
          "type": "address"
        }
      ],
      "name": "OwnershipTransferred",
      "type": "event"
    },
    {
      "anonymous": false,
      "inputs": [
        {
          "indexed": true,
          "internalType": "address",
          "name": "pollAddr",
          "type": "address"
        }
      ],
      "name": "PollClosed",
      "type": "event"
    },
    {
      "anonymous": false,
      "inputs": [
        {
          "indexed": true,
          "internalType": "address",
          "name": "voteAddr",
          "type": "address"
        },
        {
          "indexed": true,
          "internalType": "uint256",
          "name": "price",
          "type": "uint256"
        },
        {
          "indexed": true,
          "internalType": "address",
          "name": "user",
          "type": "address"
        }
      ],
      "name": "VoteForSale",
      "type": "event"
    },
    {
      "anonymous": false,
      "inputs": [
        {
          "indexed": true,
          "internalType": "address",
          "name": "voteAddr",
          "type": "address"
        },
        {
          "indexed": true,
          "internalType": "address",
          "name": "user",
          "type": "address"
        }
      ],
      "name": "VoteNotForSale",
      "type": "event"
    },
    {
      "anonymous": false,
      "inputs": [
        {
          "indexed": true,
          "internalType": "address",
          "name": "voteAddr",
          "type": "address"
        },
        {
          "indexed": true,
          "internalType": "address",
          "name": "seller",
          "type": "address"
        },
        {
          "indexed": true,
          "internalType": "address",
          "name": "buyer",
          "type": "address"
        }
      ],
      "name": "VoteOwnershipChanged",
      "type": "event"
    },
    {
      "inputs": [
        {
          "internalType": "address",
          "name": "_claimer",
          "type": "address"
        }
      ],
      "name": "addClaimer",
      "outputs": [],
      "stateMutability": "nonpayable",
      "type": "function"
    },
    {
      "inputs": [],
      "name": "claim",
      "outputs": [],
      "stateMutability": "nonpayable",
      "type": "function"
    },
    {
      "inputs": [],
      "name": "closed",
      "outputs": [
        {
          "internalType": "bool",
          "name": "",
          "type": "bool"
        }
      ],
      "stateMutability": "view",
      "type": "function"
    },
    {
      "inputs": [],
      "name": "getExpirationTime",
      "outputs": [
        {
          "internalType": "uint256",
          "name": "",
          "type": "uint256"
        }
      ],
      "stateMutability": "view",
      "type": "function"
    },
    {
      "inputs": [],
      "name": "isClaimable",
      "outputs": [
        {
          "internalType": "bool",
          "name": "",
          "type": "bool"
        },
        {
          "internalType": "bool",
          "name": "",
          "type": "bool"
        },
        {
          "internalType": "bool",
          "name": "",
          "type": "bool"
        }
      ],
      "stateMutability": "view",
      "type": "function"
    },
    {
      "inputs": [
        {
          "internalType": "address",
          "name": "_claimer",
          "type": "address"
        }
      ],
      "name": "isClaimer",
      "outputs": [
        {
          "internalType": "bool",
          "name": "",
          "type": "bool"
        }
      ],
      "stateMutability": "view",
      "type": "function"
    },
    {
      "inputs": [],
      "name": "isOwner",
      "outputs": [
        {
          "internalType": "bool",
          "name": "",
          "type": "bool"
        }
      ],
      "stateMutability": "view",
      "type": "function"
    },
    {
      "inputs": [],
      "name": "name",
      "outputs": [
        {
          "internalType": "string",
          "name": "",
          "type": "string"
        }
      ],
      "stateMutability": "view",
      "type": "function"
    },
    {
      "inputs": [
        {
          "internalType": "uint256",
          "name": "",
          "type": "uint256"
        }
      ],
      "name": "options",
      "outputs": [
        {
          "internalType": "bytes32",
          "name": "",
          "type": "bytes32"
        }
      ],
      "stateMutability": "view",
      "type": "function"
    },
    {
      "inputs": [],
      "name": "owner",
      "outputs": [
        {
          "internalType": "address",
          "name": "",
          "type": "address"
        }
      ],
      "stateMutability": "view",
      "type": "function"
    },
    {
      "inputs": [],
      "name": "read",
      "outputs": [
        {
          "internalType": "address",
          "name": "",
          "type": "address"
        },
        {
          "internalType": "uint256",
          "name": "",
          "type": "uint256"
        },
        {
          "internalType": "bool",
          "name": "",
          "type": "bool"
        }
      ],
      "stateMutability": "view",
      "type": "function"
    },
    {
      "inputs": [
        {
          "internalType": "address",
          "name": "_claimer",
          "type": "address"
        }
      ],
      "name": "removeClaimer",
      "outputs": [],
      "stateMutability": "nonpayable",
      "type": "function"
    },
    {
      "inputs": [],
      "name": "renounceOwnership",
      "outputs": [],
      "stateMutability": "nonpayable",
      "type": "function"
    },
    {
      "inputs": [
        {
          "internalType": "uint256",
          "name": "_expirationTime",
          "type": "uint256"
        }
      ],
      "name": "setExpirationTime",
      "outputs": [],
      "stateMutability": "nonpayable",
      "type": "function"
    },
    {
      "inputs": [
        {
          "internalType": "address",
          "name": "newOwner",
          "type": "address"
        }
      ],
      "name": "transferOwnership",
      "outputs": [],
      "stateMutability": "nonpayable",
      "type": "function"
    },
    {
      "inputs": [
        {
          "internalType": "uint256",
          "name": "",
          "type": "uint256"
        }
      ],
      "name": "voteCounts",
      "outputs": [
        {
          "internalType": "uint256",
          "name": "",
          "type": "uint256"
        }
      ],
      "stateMutability": "view",
      "type": "function"
    },
    {
      "inputs": [
        {
          "internalType": "uint256",
          "name": "_optionIndex",
          "type": "uint256"
        },
        {
          "internalType": "address",
          "name": "_voteAddr",
          "type": "address"
        }
      ],
      "name": "vote",
      "outputs": [],
      "stateMutability": "nonpayable",
      "type": "function"
    },
    {
      "inputs": [
        {
          "internalType": "address",
          "name": "_voteAddr",
          "type": "address"
        },
        {
          "internalType": "uint256",
          "name": "price",
          "type": "uint256"
        }
      ],
      "name": "sellVote",
      "outputs": [],
      "stateMutability": "nonpayable",
      "type": "function"
    },
    {
      "inputs": [
        {
          "internalType": "address",
          "name": "_voteAddr",
          "type": "address"
        }
      ],
      "name": "stopSelling",
      "outputs": [],
      "stateMutability": "nonpayable",
      "type": "function"
    },
    {
      "inputs": [
        {
          "internalType": "address payable",
          "name": "_voteAddr",
          "type": "address"
        }
      ],
      "name": "buysVote",
      "outputs": [],
      "stateMutability": "payable",
      "type": "function"
    },
    {
      "inputs": [
        {
          "internalType": "address",
          "name": "_voteAddr",
          "type": "address"
        },
        {
          "internalType": "address payable",
          "name": "_newOwner",
          "type": "address"
        }
      ],
      "name": "delegateVote",
      "outputs": [],
      "stateMutability": "nonpayable",
      "type": "function"
    },
    {
      "inputs": [],
      "name": "closePoll",
      "outputs": [],
      "stateMutability": "nonpayable",
      "type": "function"
    },
    {
      "inputs": [],
      "name": "getOptions",
      "outputs": [
        {
          "internalType": "bytes32[]",
          "name": "",
          "type": "bytes32[]"
        }
      ],
      "stateMutability": "view",
      "type": "function"
    },
    {
      "inputs": [],
      "name": "getVoteCount",
      "outputs": [
        {
          "internalType": "uint256[]",
          "name": "",
          "type": "uint256[]"
        }
      ],
      "stateMutability": "view",
      "type": "function"
    },
    {
      "inputs": [
        {
          "internalType": "address",
          "name": "_voter",
          "type": "address"
        }
      ],
      "name": "getVote",
      "outputs": [
        {
          "internalType": "bool",
          "name": "",
          "type": "bool"
        },
        {
          "internalType": "bool",
          "name": "",
          "type": "bool"
        },
        {
          "internalType": "uint256",
          "name": "",
          "type": "uint256"
        },
        {
          "internalType": "address",
          "name": "",
          "type": "address"
        }
      ],
      "stateMutability": "view",
      "type": "function"
    }
  ],
  "bytecode": "0x60806040523480156200001157600080fd5b5060405162002dca38038062002dca833981810160405281019062000037919062000402565b336000806101000a81548173ffffffffffffffffffffffffffffffffffffffff021916908373ffffffffffffffffffffffffffffffffffffffff16021790555060008054906101000a900473ffffffffffffffffffffffffffffffffffffffff1673ffffffffffffffffffffffffffffffffffffffff16600073ffffffffffffffffffffffffffffffffffffffff167f8be0079c531659141344cd1fd0a4f28419497f9722a3daafe3b4186f6b6457e060405160405180910390a360008151116200010157600080fd5b82600360006101000a81548173ffffffffffffffffffffffffffffffffffffffff021916908373ffffffffffffffffffffffffffffffffffffffff16021790555081600490805190602001906200015a929190620001f8565b5060005b8151811015620001ee57600582828151811062000180576200017f620006d4565b5b602002602001015190806001815401808255809150506001900390600052602060002001600090919091909150556006600090806001815401808255809150506001900390600052602060002001600090919091909150558080620001e59062000628565b9150506200015e565b5050505062000790565b8280546200020690620005bc565b90600052602060002090601f0160209004810192826200022a576000855562000276565b82601f106200024557805160ff191683800117855562000276565b8280016001018555821562000276579182015b828111156200027557825182559160200191906001019062000258565b5b50905062000285919062000289565b5090565b5b80821115620002a45760008160009055506001016200028a565b5090565b6000620002bf620002b984620004c5565b6200049c565b90508083825260208201905082856020860282011115620002e557620002e462000737565b5b60005b85811015620003195781620002fe8882620003a1565b845260208401935060208301925050600181019050620002e8565b5050509392505050565b60006200033a6200033484620004f4565b6200049c565b9050828152602081018484840111156200035957620003586200073c565b5b6200036684828562000586565b509392505050565b600082601f83011262000386576200038562000732565b5b815162000398848260208601620002a8565b91505092915050565b600081519050620003b2816200075c565b92915050565b600081519050620003c98162000776565b92915050565b600082601f830112620003e757620003e662000732565b5b8151620003f984826020860162000323565b91505092915050565b6000806000606084860312156200041e576200041d62000746565b5b60006200042e86828701620003b8565b935050602084015167ffffffffffffffff81111562000452576200045162000741565b5b6200046086828701620003cf565b925050604084015167ffffffffffffffff81111562000484576200048362000741565b5b62000492868287016200036e565b9150509250925092565b6000620004a8620004bb565b9050620004b68282620005f2565b919050565b6000604051905090565b600067ffffffffffffffff821115620004e357620004e262000703565b5b602082029050602081019050919050565b600067ffffffffffffffff82111562000512576200051162000703565b5b6200051d826200074b565b9050602081019050919050565b600062000537826200055c565b9050919050565b6000819050919050565b600062000555826200052a565b9050919050565b600073ffffffffffffffffffffffffffffffffffffffff82169050919050565b6000819050919050565b60005b83811015620005a657808201518184015260208101905062000589565b83811115620005b6576000848401525b50505050565b60006002820490506001821680620005d557607f821691505b60208210811415620005ec57620005eb620006a5565b5b50919050565b620005fd826200074b565b810181811067ffffffffffffffff821117156200061f576200061e62000703565b5b80604052505050565b600062000635826200057c565b91507fffffffffffffffffffffffffffffffffffffffffffffffffffffffffffffffff8214156200066b576200066a62000676565b5b600182019050919050565b7f4e487b7100000000000000000000000000000000000000000000000000000000600052601160045260246000fd5b7f4e487b7100000000000000000000000000000000000000000000000000000000600052602260045260246000fd5b7f4e487b7100000000000000000000000000000000000000000000000000000000600052603260045260246000fd5b7f4e487b7100000000000000000000000000000000000000000000000000000000600052604160045260246000fd5b600080fd5b600080fd5b600080fd5b600080fd5b600080fd5b6000601f19601f8301169050919050565b62000767816200053e565b81146200077357600080fd5b50565b620007818162000548565b81146200078d57600080fd5b50565b61262a80620007a06000396000f3fe6080604052600436106101665760003560e01c80638d337b81116100d1578063df1edbe81161008a578063e7b3387c11610064578063e7b3387c146104fe578063ed8c2aed14610529578063f0490b8a14610540578063f2fde38b1461056957610166565b8063df1edbe81461048e578063e23a845a146104aa578063e5ed5b1e146104d557610166565b80638d337b811461037b5780638da5cb5b146103bb5780638f32d59b146103e6578063b4545a8714610411578063c0cc365d1461043a578063cc2ee1961461046357610166565b80634e71d92d116101235780634e71d92d1461029f57806357de26a4146102b6578063597e1fb5146102e3578063709c92761461030e578063715018a61461033757806374478bb31461034e57610166565b806302d947ef1461016b57806306fdde031461019457806310a8aecd146101bf5780632ea66401146101fc5780633c3a220d14610225578063409e220514610262575b600080fd5b34801561017757600080fd5b50610192600480360381019061018d9190611ea5565b610592565b005b3480156101a057600080fd5b506101a9610880565b6040516101b6919061221c565b60405180910390f35b3480156101cb57600080fd5b506101e660048036038101906101e19190611d9e565b61090e565b6040516101f3919061214f565b60405180910390f35b34801561020857600080fd5b50610223600480360381019061021e9190611d9e565b610964565b005b34801561023157600080fd5b5061024c60048036038101906102479190611e78565b610a69565b604051610259919061227e565b60405180910390f35b34801561026e57600080fd5b5061028960048036038101906102849190611e78565b610a8d565b60405161029691906121e6565b60405180910390f35b3480156102ab57600080fd5b506102b4610ab1565b005b3480156102c257600080fd5b506102cb610aee565b6040516102da939291906120d4565b60405180910390f35b3480156102ef57600080fd5b506102f8610b12565b604051610305919061214f565b60405180910390f35b34801561031a57600080fd5b5061033560048036038101906103309190611e38565b610b25565b005b34801561034357600080fd5b5061034c610e13565b005b34801561035a57600080fd5b50610363610ee2565b6040516103729392919061216a565b60405180910390f35b34801561038757600080fd5b506103a2600480360381019061039d9190611d9e565b610f09565b6040516103b294939291906121a1565b60405180910390f35b3480156103c757600080fd5b506103d0610fb0565b6040516103dd91906120b9565b60405180910390f35b3480156103f257600080fd5b506103fb610fd9565b604051610408919061214f565b60405180910390f35b34801561041d57600080fd5b5061043860048036038101906104339190611d9e565b611030565b005b34801561044657600080fd5b50610461600480360381019061045c9190611e78565b611335565b005b34801561046f57600080fd5b50610478611391565b604051610485919061210b565b60405180910390f35b6104a860048036038101906104a39190611dcb565b6113e9565b005b3480156104b657600080fd5b506104bf6116f4565b6040516104cc919061227e565b60405180910390f35b3480156104e157600080fd5b506104fc60048036038101906104f79190611df8565b6116fe565b005b34801561050a57600080fd5b506105136119d6565b604051610520919061212d565b60405180910390f35b34801561053557600080fd5b5061053e611a2e565b005b34801561054c57600080fd5b5061056760048036038101906105629190611d9e565b611b46565b005b34801561057557600080fd5b50610590600480360381019061058b9190611d9e565b611c4b565b005b80600760008273ffffffffffffffffffffffffffffffffffffffff1673ffffffffffffffffffffffffffffffffffffffff16815260200190815260200160002060000160009054906101000a900460ff16156105ed57600080fd5b81600073ffffffffffffffffffffffffffffffffffffffff16600760008373ffffffffffffffffffffffffffffffffffffffff1673ffffffffffffffffffffffffffffffffffffffff16815260200190815260200160002060020160009054906101000a900473ffffffffffffffffffffffffffffffffffffffff1673ffffffffffffffffffffffffffffffffffffffff161480156106b757503373ffffffffffffffffffffffffffffffffffffffff168173ffffffffffffffffffffffffffffffffffffffff16145b8061074f57503373ffffffffffffffffffffffffffffffffffffffff16600760008373ffffffffffffffffffffffffffffffffffffffff1673ffffffffffffffffffffffffffffffffffffffff16815260200190815260200160002060020160009054906101000a900473ffffffffffffffffffffffffffffffffffffffff1673ffffffffffffffffffffffffffffffffffffffff16145b61075857600080fd5b600860009054906101000a900460ff161561077257600080fd5b6006848154811061078657610785612518565b5b9060005260206000200160008154809291906107a190612471565b91905055506001600760008573ffffffffffffffffffffffffffffffffffffffff1673ffffffffffffffffffffffffffffffffffffffff16815260200190815260200160002060000160006101000a81548160ff0219169083151502179055503373ffffffffffffffffffffffffffffffffffffffff168373ffffffffffffffffffffffffffffffffffffffff166005868154811061084357610842612518565b5b90600052602060002001547f49800724769cfeab686bbed287515c62b0780b3ca377ad4dc33a74a2b84ea8a560405160405180910390a450505050565b6004805461088d9061243f565b80601f01602080910402602001604051908101604052809291908181526020018280546108b99061243f565b80156109065780601f106108db57610100808354040283529160200191610906565b820191906000526020600020905b8154815290600101906020018083116108e957829003601f168201915b505050505081565b6000600160008373ffffffffffffffffffffffffffffffffffffffff1673ffffffffffffffffffffffffffffffffffffffff16815260200190815260200160002060009054906101000a900460ff169050919050565b61096c610fd9565b61097557600080fd5b600160008273ffffffffffffffffffffffffffffffffffffffff1673ffffffffffffffffffffffffffffffffffffffff16815260200190815260200160002060009054906101000a900460ff16156109cc57600080fd5b60018060008373ffffffffffffffffffffffffffffffffffffffff1673ffffffffffffffffffffffffffffffffffffffff16815260200190815260200160002060006101000a81548160ff0219169083151502179055508073ffffffffffffffffffffffffffffffffffffffff167fff9a8f4e0a39755c20c899b46171e470382709479fce2aa1e388f95edfe0173960405160405180910390a250565b60068181548110610a7957600080fd5b906000526020600020016000915090505481565b60058181548110610a9d57600080fd5b906000526020600020016000915090505481565b610aba3361090e565b610ac357600080fd5b6002544211610ad157600080fd5b610ad9610fd9565b15610ae357600080fd5b610aec33611c68565b565b6000806000610afb610fb0565b600254610b073361090e565b925092509250909192565b600860009054906101000a900460ff1681565b81600760008273ffffffffffffffffffffffffffffffffffffffff1673ffffffffffffffffffffffffffffffffffffffff16815260200190815260200160002060000160009054906101000a900460ff1615610b8057600080fd5b82600073ffffffffffffffffffffffffffffffffffffffff16600760008373ffffffffffffffffffffffffffffffffffffffff1673ffffffffffffffffffffffffffffffffffffffff16815260200190815260200160002060020160009054906101000a900473ffffffffffffffffffffffffffffffffffffffff1673ffffffffffffffffffffffffffffffffffffffff16148015610c4a57503373ffffffffffffffffffffffffffffffffffffffff168173ffffffffffffffffffffffffffffffffffffffff16145b80610ce257503373ffffffffffffffffffffffffffffffffffffffff16600760008373ffffffffffffffffffffffffffffffffffffffff1673ffffffffffffffffffffffffffffffffffffffff16815260200190815260200160002060020160009054906101000a900473ffffffffffffffffffffffffffffffffffffffff1673ffffffffffffffffffffffffffffffffffffffff16145b610ceb57600080fd5b600860009054906101000a900460ff1615610d0557600080fd5b60008311610d48576040517f08c379a0000000000000000000000000000000000000000000000000000000008152600401610d3f9061223e565b60405180910390fd5b6000600760008673ffffffffffffffffffffffffffffffffffffffff1673ffffffffffffffffffffffffffffffffffffffff168152602001908152602001600020905083816001018190555060018160000160016101000a81548160ff0219169083151502179055503373ffffffffffffffffffffffffffffffffffffffff16848673ffffffffffffffffffffffffffffffffffffffff167f5bd9c8cd0416570878f22361aa825b83e275af1f5ad3af2e353e1f498405b00860405160405180910390a45050505050565b610e1b610fd9565b610e2457600080fd5b600073ffffffffffffffffffffffffffffffffffffffff1660008054906101000a900473ffffffffffffffffffffffffffffffffffffffff1673ffffffffffffffffffffffffffffffffffffffff167f8be0079c531659141344cd1fd0a4f28419497f9722a3daafe3b4186f6b6457e060405160405180910390a360008060006101000a81548173ffffffffffffffffffffffffffffffffffffffff021916908373ffffffffffffffffffffffffffffffffffffffff160217905550565b6000806000610ef03361090e565b6002544211610efd610fd9565b15925092509250909192565b6000806000806000600760008773ffffffffffffffffffffffffffffffffffffffff1673ffffffffffffffffffffffffffffffffffffffff16815260200190815260200160002090508060000160009054906101000a900460ff168160000160019054906101000a900460ff1682600101548360020160009054906101000a900473ffffffffffffffffffffffffffffffffffffffff169450945094509450509193509193565b60008060009054906101000a900473ffffffffffffffffffffffffffffffffffffffff16905090565b60008060009054906101000a900473ffffffffffffffffffffffffffffffffffffffff1673ffffffffffffffffffffffffffffffffffffffff163373ffffffffffffffffffffffffffffffffffffffff1614905090565b80600760008273ffffffffffffffffffffffffffffffffffffffff1673ffffffffffffffffffffffffffffffffffffffff16815260200190815260200160002060000160009054906101000a900460ff161561108b57600080fd5b81600073ffffffffffffffffffffffffffffffffffffffff16600760008373ffffffffffffffffffffffffffffffffffffffff1673ffffffffffffffffffffffffffffffffffffffff16815260200190815260200160002060020160009054906101000a900473ffffffffffffffffffffffffffffffffffffffff1673ffffffffffffffffffffffffffffffffffffffff1614801561115557503373ffffffffffffffffffffffffffffffffffffffff168173ffffffffffffffffffffffffffffffffffffffff16145b806111ed57503373ffffffffffffffffffffffffffffffffffffffff16600760008373ffffffffffffffffffffffffffffffffffffffff1673ffffffffffffffffffffffffffffffffffffffff16815260200190815260200160002060020160009054906101000a900473ffffffffffffffffffffffffffffffffffffffff1673ffffffffffffffffffffffffffffffffffffffff16145b6111f657600080fd5b82600760008273ffffffffffffffffffffffffffffffffffffffff1673ffffffffffffffffffffffffffffffffffffffff16815260200190815260200160002060000160019054906101000a900460ff1661125057600080fd5b600860009054906101000a900460ff161561126a57600080fd5b6000600760008673ffffffffffffffffffffffffffffffffffffffff1673ffffffffffffffffffffffffffffffffffffffff16815260200190815260200160002090506000816001018190555060008160000160016101000a81548160ff0219169083151502179055503373ffffffffffffffffffffffffffffffffffffffff168573ffffffffffffffffffffffffffffffffffffffff167f65b12a532dda3308398d0ea60c768a0bf2509db55bf7f257c1087b14cfd3cfef60405160405180910390a35050505050565b61133d610fd9565b61134657600080fd5b60006002549050816002819055507f48bd2ad49200e0ca36b95736b1b720e3a4db1eb87715905a0242d11e90fcf1768183604051611385929190612299565b60405180910390a15050565b606060058054806020026020016040519081016040528092919081815260200182805480156113df57602002820191906000526020600020905b8154815260200190600101908083116113cb575b5050505050905090565b80600760008273ffffffffffffffffffffffffffffffffffffffff1673ffffffffffffffffffffffffffffffffffffffff16815260200190815260200160002060000160009054906101000a900460ff161561144457600080fd5b81600760008273ffffffffffffffffffffffffffffffffffffffff1673ffffffffffffffffffffffffffffffffffffffff16815260200190815260200160002060000160019054906101000a900460ff1661149e57600080fd5b600860009054906101000a900460ff16156114b857600080fd5b6000600760008573ffffffffffffffffffffffffffffffffffffffff1673ffffffffffffffffffffffffffffffffffffffff168152602001908152602001600020905060008160020160009054906101000a900473ffffffffffffffffffffffffffffffffffffffff169050816001015434101561156b576040517f08c379a00000000000000000000000000000000000000000000000000000000081526004016115629061225e565b60405180910390fd5b600082600101543461157d9190612350565b90508173ffffffffffffffffffffffffffffffffffffffff166108fc84600101549081150290604051600060405180830381858888f193505050501580156115c9573d6000803e3d6000fd5b50600081111561161b573373ffffffffffffffffffffffffffffffffffffffff166108fc829081150290604051600060405180830381858888f19350505050158015611619573d6000803e3d6000fd5b505b60008360000160016101000a81548160ff021916908315150217905550338360020160006101000a81548173ffffffffffffffffffffffffffffffffffffffff021916908373ffffffffffffffffffffffffffffffffffffffff1602179055503373ffffffffffffffffffffffffffffffffffffffff168273ffffffffffffffffffffffffffffffffffffffff168773ffffffffffffffffffffffffffffffffffffffff167fb294c26ec0b075ccd4d6ae733f6661019eab6c771ba5eec5ce6ac6513ab0388660405160405180910390a4505050505050565b6000600254905090565b81600760008273ffffffffffffffffffffffffffffffffffffffff1673ffffffffffffffffffffffffffffffffffffffff16815260200190815260200160002060000160009054906101000a900460ff161561175957600080fd5b82600073ffffffffffffffffffffffffffffffffffffffff16600760008373ffffffffffffffffffffffffffffffffffffffff1673ffffffffffffffffffffffffffffffffffffffff16815260200190815260200160002060020160009054906101000a900473ffffffffffffffffffffffffffffffffffffffff1673ffffffffffffffffffffffffffffffffffffffff1614801561182357503373ffffffffffffffffffffffffffffffffffffffff168173ffffffffffffffffffffffffffffffffffffffff16145b806118bb57503373ffffffffffffffffffffffffffffffffffffffff16600760008373ffffffffffffffffffffffffffffffffffffffff1673ffffffffffffffffffffffffffffffffffffffff16815260200190815260200160002060020160009054906101000a900473ffffffffffffffffffffffffffffffffffffffff1673ffffffffffffffffffffffffffffffffffffffff16145b6118c457600080fd5b600860009054906101000a900460ff16156118de57600080fd5b82600760008673ffffffffffffffffffffffffffffffffffffffff1673ffffffffffffffffffffffffffffffffffffffff16815260200190815260200160002060020160006101000a81548173ffffffffffffffffffffffffffffffffffffffff021916908373ffffffffffffffffffffffffffffffffffffffff1602179055508273ffffffffffffffffffffffffffffffffffffffff163373ffffffffffffffffffffffffffffffffffffffff168573ffffffffffffffffffffffffffffffffffffffff167fb294c26ec0b075ccd4d6ae733f6661019eab6c771ba5eec5ce6ac6513ab0388660405160405180910390a450505050565b60606006805480602002602001604051908101604052809291908181526020018280548015611a2457602002820191906000526020600020905b815481526020019060010190808311611a10575b5050505050905090565b600860009054906101000a900460ff1615611a4857600080fd5b611a50610fd9565b611a5957600080fd5b6001600860006101000a81548160ff021916908315150217905550600360009054906101000a900473ffffffffffffffffffffffffffffffffffffffff1673ffffffffffffffffffffffffffffffffffffffff1663af9da81f306040518263ffffffff1660e01b8152600401611acf9190612201565b600060405180830381600087803b158015611ae957600080fd5b505af1158015611afd573d6000803e3d6000fd5b505050503073ffffffffffffffffffffffffffffffffffffffff167f231ba46a9796cfff3206eb206f870c5e4f68248af093e30cf9e3dd48857a6e6660405160405180910390a2565b611b4e610fd9565b611b5757600080fd5b600160008273ffffffffffffffffffffffffffffffffffffffff1673ffffffffffffffffffffffffffffffffffffffff16815260200190815260200160002060009054906101000a900460ff16611bad57600080fd5b6000600160008373ffffffffffffffffffffffffffffffffffffffff1673ffffffffffffffffffffffffffffffffffffffff16815260200190815260200160002060006101000a81548160ff0219169083151502179055508073ffffffffffffffffffffffffffffffffffffffff167f30acaa541089592567cd4ce36437c68778a43e66dc1a9e7031e4496faf45932560405160405180910390a250565b611c53610fd9565b611c5c57600080fd5b611c6581611c68565b50565b600073ffffffffffffffffffffffffffffffffffffffff168173ffffffffffffffffffffffffffffffffffffffff161415611ca257600080fd5b8073ffffffffffffffffffffffffffffffffffffffff1660008054906101000a900473ffffffffffffffffffffffffffffffffffffffff1673ffffffffffffffffffffffffffffffffffffffff167f8be0079c531659141344cd1fd0a4f28419497f9722a3daafe3b4186f6b6457e060405160405180910390a3806000806101000a81548173ffffffffffffffffffffffffffffffffffffffff021916908373ffffffffffffffffffffffffffffffffffffffff16021790555050565b600081359050611d6e816125af565b92915050565b600081359050611d83816125c6565b92915050565b600081359050611d98816125dd565b92915050565b600060208284031215611db457611db3612547565b5b6000611dc284828501611d5f565b91505092915050565b600060208284031215611de157611de0612547565b5b6000611def84828501611d74565b91505092915050565b60008060408385031215611e0f57611e0e612547565b5b6000611e1d85828601611d5f565b9250506020611e2e85828601611d74565b9150509250929050565b60008060408385031215611e4f57611e4e612547565b5b6000611e5d85828601611d5f565b9250506020611e6e85828601611d89565b9150509250929050565b600060208284031215611e8e57611e8d612547565b5b6000611e9c84828501611d89565b91505092915050565b60008060408385031215611ebc57611ebb612547565b5b6000611eca85828601611d89565b9250506020611edb85828601611d5f565b9150509250929050565b6000611ef18383611fef565b60208301905092915050565b6000611f09838361209b565b60208301905092915050565b611f1e81612384565b82525050565b6000611f2f826122e2565b611f39818561231d565b9350611f44836122c2565b8060005b83811015611f75578151611f5c8882611ee5565b9750611f6783612303565b925050600181019050611f48565b5085935050505092915050565b6000611f8d826122ed565b611f97818561232e565b9350611fa2836122d2565b8060005b83811015611fd3578151611fba8882611efd565b9750611fc583612310565b925050600181019050611fa6565b5085935050505092915050565b611fe9816123a8565b82525050565b611ff8816123b4565b82525050565b612007816123b4565b82525050565b612016816123e8565b82525050565b6000612027826122f8565b612031818561233f565b935061204181856020860161240c565b61204a8161254c565b840191505092915050565b6000612062601b8361233f565b915061206d8261255d565b602082019050919050565b6000612085601c8361233f565b915061209082612586565b602082019050919050565b6120a4816123de565b82525050565b6120b3816123de565b82525050565b60006020820190506120ce6000830184611f15565b92915050565b60006060820190506120e96000830186611f15565b6120f660208301856120aa565b6121036040830184611fe0565b949350505050565b600060208201905081810360008301526121258184611f24565b905092915050565b600060208201905081810360008301526121478184611f82565b905092915050565b60006020820190506121646000830184611fe0565b92915050565b600060608201905061217f6000830186611fe0565b61218c6020830185611fe0565b6121996040830184611fe0565b949350505050565b60006080820190506121b66000830187611fe0565b6121c36020830186611fe0565b6121d060408301856120aa565b6121dd6060830184611f15565b95945050505050565b60006020820190506121fb6000830184611ffe565b92915050565b6000602082019050612216600083018461200d565b92915050565b60006020820190508181036000830152612236818461201c565b905092915050565b6000602082019050818103600083015261225781612055565b9050919050565b6000602082019050818103600083015261227781612078565b9050919050565b600060208201905061229360008301846120aa565b92915050565b60006040820190506122ae60008301856120aa565b6122bb60208301846120aa565b9392505050565b6000819050602082019050919050565b6000819050602082019050919050565b600081519050919050565b600081519050919050565b600081519050919050565b6000602082019050919050565b6000602082019050919050565b600082825260208201905092915050565b600082825260208201905092915050565b600082825260208201905092915050565b600061235b826123de565b9150612366836123de565b925082821015612379576123786124ba565b5b828203905092915050565b600061238f826123be565b9050919050565b60006123a1826123be565b9050919050565b60008115159050919050565b6000819050919050565b600073ffffffffffffffffffffffffffffffffffffffff82169050919050565b6000819050919050565b60006123f3826123fa565b9050919050565b6000612405826123be565b9050919050565b60005b8381101561242a57808201518184015260208101905061240f565b83811115612439576000848401525b50505050565b6000600282049050600182168061245757607f821691505b6020821081141561246b5761246a6124e9565b5b50919050565b600061247c826123de565b91507fffffffffffffffffffffffffffffffffffffffffffffffffffffffffffffffff8214156124af576124ae6124ba565b5b600182019050919050565b7f4e487b7100000000000000000000000000000000000000000000000000000000600052601160045260246000fd5b7f4e487b7100000000000000000000000000000000000000000000000000000000600052602260045260246000fd5b7f4e487b7100000000000000000000000000000000000000000000000000000000600052603260045260246000fd5b600080fd5b6000601f19601f8301169050919050565b7f5072696365206d75737420626520686967686572207468616e20300000000000600082015250565b7f4e6f7420656e6f7567682066756e6473207472616e7366657272656400000000600082015250565b6125b881612384565b81146125c357600080fd5b50565b6125cf81612396565b81146125da57600080fd5b50565b6125e6816123de565b81146125f157600080fd5b5056fea2646970667358221220708e8a7892d1e869c0c555e99b1ec154227f952cfd9177767ab93374070bace464736f6c63430008060033",
  "immutableReferences": {},
  "source": "// SPDX-License-Identifier: MIT\npragma solidity >=0.8.6;\n\nimport \"@gmussi-contracts/gmussi-claimable/contracts/Claimable.sol\";\nimport \"./PollingStation.sol\";\n/**\n * A poll is a contract that stores potential options to vote on, as well as which addresses have voted already.\n * Addresses can vote on the poll until the poll owner closes the contract.\n * Addresses can also put their votes for sale as long as they have not voted yet.\n */\ncontract Poll is Claimable {\n    PollingStation private pollingStation;\n\n    struct Vote {\n        bool used;\n        bool forSale;\n        uint price;\n        address payable owner;\n    }\n\n    string public name; // name of this poll - is this necessary?\n\n    bytes32[] public options; // options that can be voted on\n    uint[] public voteCounts; // number of votes for each option\n\n    mapping(address => Vote) private votes; // stores the votes of everyone\n\n    bool public closed; // stores if the polling is still accepting votes\n\n    /**\n     * Event triggered every time a new vote is given in this poll\n     */\n    event NewVote (bytes32 indexed option, address indexed voteAddr, address indexed user);\n\n    /**\n     * Event triggered when a vote is put for sale\n     */\n    event VoteForSale(address indexed voteAddr, uint indexed price, address indexed user);\n\n    /**\n     * Event triggered when a vote is no longer for sale\n     */\n    event VoteNotForSale(address indexed voteAddr, address indexed user);\n\n    /**\n     * Event triggered when a vote is sold \n     */\n    event VoteOwnershipChanged(address indexed voteAddr, address indexed seller, address indexed buyer);\n\n    /**\n     * Event triggered when the poll is closed\n     */\n    event PollClosed (address indexed pollAddr);\n\n    /**\n     * A poll requires a name and a bytes32 for each option.\n     */\n    constructor(PollingStation _pollingStation, string memory _name, bytes32[] memory _options) {\n        require(_options.length > 0);\n\n        pollingStation = _pollingStation;\n\n        name = _name;\n        for (uint i = 0; i < _options.length; i++) {\n            options.push(_options[i]);\n            voteCounts.push(0);\n        }\n    }\n\n    /**\n     * Stores a vote from the message sender. \n     * Each address can vote only once and only as long as the poll is not closed.\n     * Each address can also sell their voting rights for others, which allows the buyer to vote.\n     * @param _optionIndex a bytes32 representing the option to vote.\n     * @dev Refer to `options` property  \n     * @param _voteAddr address of the voter this vote refers to. Message sender must own that right\n     */\n    function vote(uint _optionIndex, address _voteAddr) public notVoted(_voteAddr) ownsVote(_voteAddr) pollOpen {\n        voteCounts[_optionIndex]++;\n        votes[_voteAddr].used = true;\n\n        emit NewVote(options[_optionIndex], _voteAddr, msg.sender);\n    } \n\n    /**\n     * Puts a vote for sale for a specified price.\n     * @param _voteAddr The vote to be put for sale. Msg.owner must own this vote.\n     * \n     */\n    function sellVote(address _voteAddr, uint price) public notVoted(_voteAddr) ownsVote(_voteAddr) pollOpen {\n        require(price > 0, \"Price must be higher than 0\");\n\n        Vote storage _vote = votes[_voteAddr];\n        _vote.price = price;\n        _vote.forSale = true;\n\n        emit VoteForSale(_voteAddr, price, msg.sender);\n    }\n\n    /**\n     * Makes a vote no longer available for sale\n     * @param _voteAddr The vote address currently for sale\n     */\n    function stopSelling(address _voteAddr) public notVoted(_voteAddr) ownsVote(_voteAddr) forSale(_voteAddr) pollOpen {\n        Vote storage _vote = votes[_voteAddr];\n        _vote.price = 0;\n        _vote.forSale = false;\n\n        emit VoteNotForSale(_voteAddr, msg.sender);\n    }\n\n    /**\n     * Buys a vote for sale. Enough funds must be transferred to this method. \n     * More funds than necessary will be refunded.\n     * @dev This method only works if the vote has not been used AND is for sale \n     * @param _voteAddr the address of the seller whose vote is intended to buy\n     */\n    function buysVote(address payable _voteAddr) public payable notVoted(_voteAddr) forSale(_voteAddr) pollOpen {\n        Vote storage _vote = votes[_voteAddr];\n        address payable seller = _vote.owner;\n\n        require(msg.value >= _vote.price, \"Not enough funds transferred\");\n        \n        uint change = msg.value - _vote.price;\n\n        seller.transfer(_vote.price); // sends the price value to the seller\n\n        if (change > 0) {\n            payable(msg.sender).transfer(change); // send the change back to the buyer\n        }\n\n        _vote.forSale = false;\n        _vote.owner = payable(msg.sender);\n        emit VoteOwnershipChanged(_voteAddr, seller, msg.sender);\n    }\n\n    /**\n     * Delegates a vote to someone else.\n     * @param _voteAddr the vote to be delegated, usually same as msg.sender\n     * @param _newOwner address of the new owner of this vote\n     */\n    function delegateVote(address _voteAddr, address payable _newOwner) public notVoted(_voteAddr) ownsVote(_voteAddr) pollOpen {\n        votes[_voteAddr].owner = _newOwner;\n\n        emit VoteOwnershipChanged(_voteAddr, msg.sender, _newOwner);\n    }\n\n    /**\n     * Closes the poll. This action is irreversible and can only be performed once.\n     */\n    function closePoll() public pollOpen onlyOwner {\n        closed = true;\n\n        pollingStation.pollClosed(this);\n\n        emit PollClosed(address(this));\n    }\n\n    /**\n     * Function modifier that checks if the poll is still opened.\n     */\n    modifier pollOpen () {\n        require(!closed);\n        _;\n    }\n\n    /**\n     * Function modifier that checks if the message sender has already voted in this poll\n     */\n    modifier notVoted(address _voter) {\n        require(!votes[_voter].used);\n        _;\n    }\n\n    /**\n     * Function modifier that checks if the address trying to vote owns that vote \n     */\n    modifier ownsVote(address _voter) {\n        require((votes[_voter].owner == address(0) && _voter == msg.sender) || votes[_voter].owner == msg.sender);\n        _;\n    } \n\n    /**\n     * Function modifier that checks if a vote is for sale\n     */\n    modifier forSale(address _vote) {\n        require(votes[_vote].forSale);\n        _;\n    }\n\n    function getOptions() public view returns (bytes32[] memory) {\n        return options;\n    }\n\n    function getVoteCount() public view returns(uint[] memory) {\n        return voteCounts;\n    }\n\n    function getVote(address _voter) public view returns(bool, bool, uint, address) {\n        Vote storage _vote = votes[_voter];\n        return (_vote.used, _vote.forSale, _vote.price, _vote.owner);\n    }\n }",
  "sourcePath": "/Users/gmussi/git/solidity-voting/contracts/Poll.sol",
  "compiler": {
    "name": "solc",
    "version": "0.8.6+commit.11564f7e.Emscripten.clang"
  },
  "schemaVersion": "3.4.1",
  "updatedAt": "2021-07-13T08:08:40.733Z",
  "devdoc": {
    "kind": "dev",
    "methods": {
      "addClaimer(address)": {
        "params": {
          "_claimer": "address of the claimer to be added"
        }
      },
      "buysVote(address)": {
        "details": "This method only works if the vote has not been used AND is for sale ",
        "params": {
          "_voteAddr": "the address of the seller whose vote is intended to buy"
        }
      },
      "delegateVote(address,address)": {
        "params": {
          "_newOwner": "address of the new owner of this vote",
          "_voteAddr": "the vote to be delegated, usually same as msg.sender"
        }
      },
      "getExpirationTime()": {
        "returns": {
          "_0": "uint with the expiration time"
        }
      },
      "isClaimable()": {
        "details": "The contract is claimable when the 3 results are true.",
        "returns": {
          "_0": "bool: is a claimer, bool: is expired, bool: is not owner"
        }
      },
      "isClaimer(address)": {
        "params": {
          "_claimer": "address to verify"
        },
        "returns": {
          "_0": "true if the caller has been added as claimer, false, otherwise"
        }
      },
      "isOwner()": {
        "returns": {
          "_0": "true if `msg.sender` is the owner of the contract."
        }
      },
      "owner()": {
        "returns": {
          "_0": "the address of the owner."
        }
      },
      "read()": {
        "returns": {
          "_0": "(address: owner of this contract, uint: the expiration date, bool: is caller a claimers?)"
        }
      },
      "removeClaimer(address)": {
        "params": {
          "_claimer": "address of the claimer to be removed"
        }
      },
      "renounceOwnership()": {
        "details": "Allows the current owner to relinquish control of the contract."
      },
      "sellVote(address,uint256)": {
        "params": {
          "_voteAddr": "The vote to be put for sale. Msg.owner must own this vote. "
        }
      },
      "setExpirationTime(uint256)": {
        "params": {
          "_expirationTime": "the new expiration time for this contract"
        }
      },
      "stopSelling(address)": {
        "params": {
          "_voteAddr": "The vote address currently for sale"
        }
      },
      "transferOwnership(address)": {
        "details": "Allows the current owner to transfer control of the contract to a newOwner.",
        "params": {
          "newOwner": "The address to transfer ownership to."
        }
      },
      "vote(uint256,address)": {
        "details": "Refer to `options` property  ",
        "params": {
          "_optionIndex": "a bytes32 representing the option to vote.",
          "_voteAddr": "address of the voter this vote refers to. Message sender must own that right"
        }
      }
    },
    "version": 1
  },
  "userdoc": {
    "events": {
      "ClaimerAdded(address)": {
        "notice": "Throw event to inform listeners of what is happening"
      },
      "NewVote(bytes32,address,address)": {
        "notice": "Event triggered every time a new vote is given in this poll"
      },
      "PollClosed(address)": {
        "notice": "Event triggered when the poll is closed"
      },
      "VoteForSale(address,uint256,address)": {
        "notice": "Event triggered when a vote is put for sale"
      },
      "VoteNotForSale(address,address)": {
        "notice": "Event triggered when a vote is no longer for sale"
      },
      "VoteOwnershipChanged(address,address,address)": {
        "notice": "Event triggered when a vote is sold "
      }
    },
    "kind": "user",
    "methods": {
      "addClaimer(address)": {
        "notice": "Adds a new claimer to the contract"
      },
      "buysVote(address)": {
        "notice": "Buys a vote for sale. Enough funds must be transferred to this method.  More funds than necessary will be refunded."
      },
      "claim()": {
        "notice": "Claim ownership of the contract, once the max inactive time is reached.  Only addresses in claimers can claim, unless the array is empty."
      },
      "closePoll()": {
        "notice": "Closes the poll. This action is irreversible and can only be performed once."
      },
      "constructor": {
        "notice": "A poll requires a name and a bytes32 for each option."
      },
      "delegateVote(address,address)": {
        "notice": "Delegates a vote to someone else."
      },
      "getExpirationTime()": {
        "notice": "Gets the current expiration time set in this contract"
      },
      "isClaimable()": {
        "notice": "Checks if the expiration date is passed and contract can be claimed."
      },
      "isClaimer(address)": {
        "notice": "returns true if the caller has been added as claimer on this contract"
      },
      "read()": {
        "notice": "returns the owner of this contract, the expiration date and if the caller is one of the claimers"
      },
      "removeClaimer(address)": {
        "notice": "Removes a claimer from the contract"
      },
      "renounceOwnership()": {
        "notice": "Renouncing to ownership will leave the contract without an owner. It will not be possible to call the functions with the `onlyOwner` modifier anymore."
      },
      "sellVote(address,uint256)": {
        "notice": "Puts a vote for sale for a specified price."
      },
      "setExpirationTime(uint256)": {
        "notice": "allows the owner to set a new expiration time to extend the ownership of this contract"
      },
      "stopSelling(address)": {
        "notice": "Makes a vote no longer available for sale"
      },
      "vote(uint256,address)": {
        "notice": "Stores a vote from the message sender.  Each address can vote only once and only as long as the poll is not closed. Each address can also sell their voting rights for others, which allows the buyer to vote."
      }
    },
    "notice": "A poll is a contract that stores potential options to vote on, as well as which addresses have voted already. Addresses can vote on the poll until the poll owner closes the contract. Addresses can also put their votes for sale as long as they have not voted yet.",
    "version": 1
  }
}